:100000000C945D000C9485000C9485000C94850084
:100010000C9485000C9485000C9485000C9485004C
:100020000C9485000C9485000C9485000C9485003C
:100030000C9485000C9485000C9485000C9485002C
:100040000C94A2020C9485000C9485000C948500FD
:100050000C9485000C9485000C9485000C9485000C
:100060000C9485000C9485000000000024002700FB
:100070002A0000000000250028002B0004040404CE
:100080000404040402020202020203030303030342
:10009000010204081020408001020408102001021F
:1000A00004081020000000080002010000030407FB
:1000B0000000000000000000100411241FBECFEF5C
:1000C000D8E0DEBFCDBF11E0A0E0B1E0E0EBF8E0AA
:1000D00002C005900D92A231B107D9F721E0A2E14B
:1000E000B1E001C01D92A933B207E1F710E0CDE500
:1000F000D0E004C02197FE010E945004CC35D10706
:10010000C9F70E94EC020C9456040C940000AF92C4
:10011000BF92CF92DF92EF92FF920F931F93CF93F4
:10012000DF936C017B018B01040F151FEB015E0156
:10013000AE18BF08C017D10759F06991D601ED91EB
:10014000FC910190F081E02DC6010995892B79F78A
:10015000C501DF91CF911F910F91FF90EF90DF903C
:10016000CF90BF90AF90089590E0FC01EC55FF4F09
:100170002491FC01E057FF4F3491FC01E458FF4FFC
:10018000E491EE23C9F0222339F0233001F1A8F4E1
:10019000213019F1223029F1F0E0EE0FFF1FEE5867
:1001A000FF4FA591B4918FB7F894EC91611126C0DF
:1001B00030953E233C938FBF08952730A9F0283017
:1001C000C9F0243049F7809180008F7D03C0809171
:1001D00080008F7780938000DFCF84B58F7784BDD8
:1001E000DBCF84B58F7DFBCF8091B0008F7780937C
:1001F000B000D2CF8091B0008F7DF9CF3E2BDACF07
:10020000CF93DF9390E0FC01E057FF4F2491845897
:100210009F4FFC0184918823D1F090E0880F991FB3
:10022000FC01E859FF4FA591B491FC01EE58FF4F36
:10023000C591D49161110EC09FB7F8948C91E22FB3
:10024000E0958E238C932881E223E8839FBFDF9182
:10025000CF9108958FB7F894EC91E22BEC938FBF78
:10026000F6CF3FB7F8948091170190911801A091B3
:100270001901B0911A0126B5A89B05C02F3F19F0AE
:100280000196A11DB11D3FBFBA2FA92F982F882716
:10029000BC01CD01620F711D811D911D42E0660FF1
:1002A000771F881F991F4A95D1F70895089590E008
:1002B00080E00895CF93DF93EC0160E08E810E948F
:1002C000B40061E08E810E94B40060E08E810E94E3
:1002D000B4008BE891E00197F1F7DF91CF91089599
:1002E000CF92DF92EF92FF920F931F93CF93DF9302
:1002F0006C017C0187E0E80EF11CD0E0C0E0062F25
:1003000010E0B8010C2E02C0759567950A94E2F7CB
:100310006170F70181917F010E94B4002196C43081
:10032000D10579F7C601DF91CF911F910F91FF9011
:10033000EF90DF90CF900C945A01CF92DF92EF9222
:10034000FF920F931F93CF93DF93EC01F62E642F50
:100350008C810E94B4008D818F3F19F060E00E9473
:10036000B4000F2D10E08F8584FF25C06E0187E05B
:10037000C80ED11CF12CE12CB8010E2C02C07595D1
:1003800067950A94E2F76170F60181916F010E940E
:10039000B400FFEFEF1AFF0A88E0E816F10461F7F6
:1003A000CE01DF91CF911F910F91FF90EF90DF90E1
:1003B000CF900C945A01B80184E0759567958A95A1
:1003C000E1F7CE010E9470016F2DCE01DF91CF9138
:1003D0001F910F91FF90EF90DF90CF900C947001E0
:1003E00040E0682F81E291E00C949D01CF93DF9370
:1003F000823029F49091300198609093300180937D
:1004000034011092350180E48093360180E18093BD
:10041000370180E58093380161E0809125010E94D9
:100420000001809126018F3F19F061E00E940001D8
:1004300061E0809127010E940001C1E2D1E09E01AC
:10044000215231408091300184FD0BC084E090E066
:1004500021962817390744F461E08E810E9400013B
:10046000EECF88E090E0F4CF8BE39DE00197F1F7C9
:1004700060E0809125010E94B40060E08091270136
:100480000E94B400809126018F3F19F060E00E9425
:10049000B4008091300184FD39C063E081E291E0D5
:1004A0000E947001CBE4D6E4CE010197F1F763E03E
:1004B00081E291E00E9470012197F1F763E081E20F
:1004C00091E00E94700183E592E00197F1F762E00C
:1004D00081E291E00E9470018091300180620E946F
:1004E000F00184E0809331018CE00E94F00181E012
:1004F0000E94F0018BE39FE10197F1F782E0809386
:10050000320186E0DF91CF910C94F00180620E946D
:10051000F0018BE496E40197F1F78091300180625D
:100520000E94F00183E592E00197F1F7809130019C
:1005300080620E94F001D0CF41E00E949D0181E0E5
:1005400090E008951F920F920FB60F9211242F93EF
:100550003F938F939F93AF93BF938091130190919B
:100560001401A0911501B09116013091120123E000
:10057000230F2D3758F50196A11DB11D20931201AF
:100580008093130190931401A0931501B093160169
:100590008091170190911801A0911901B0911A0151
:1005A0000196A11DB11D8093170190931801A0938E
:1005B0001901B0931A01BF91AF919F918F913F9113
:1005C0002F910F900FBE0F901F90189526E8230FC4
:1005D0000296A11DB11DD2CFCF93DF93CDB7DEB769
:1005E000A1970FB6F894DEBF0FBECDBF789484B547
:1005F000826084BD84B5816084BD85B5826085BD1F
:1006000085B5816085BD80916E00816080936E00AC
:10061000109281008091810082608093810080919E
:10062000810081608093810080918000816080934F
:1006300080008091B10084608093B1008091B0000F
:1006400081608093B00080917A00846080937A000A
:1006500080917A00826080937A0080917A00816034
:1006600080937A0080917A00806880937A0010925B
:10067000C10082E00E94F60160E08EE00E9400016D
:1006800060E08FE00E94000160E080E10E940001D4
:100690002BE3222E2FE1322E3AE0832E912CA12C37
:1006A000B12CECE0F1E09BE1E92E91E0F92ED701CD
:1006B000808132968E3008F08E50877080648093EF
:1006C0007C0080917A00806480937A0080917A0027
:1006D000282F2074D22E86FDF9CF9091780080913A
:1006E00079008927982789278D939D9382E191E04E
:1006F0008E179F07E9F681E00E94F001C101019782
:10070000F1F7E1E0809134018111E0E0E195F0E062
:10071000EF5DFE4F84898D0D80680E94F001F70126
:10072000419051907F01052C000C6608770877FEF8
:1007300061C041E06DE281E291E00E949D012227CB
:100740003327A901241935094609570919A28E0131
:100750000F5D1F4FCA01B901A50194010E942E042B
:10076000605DF80162938F01211531054105510546
:1007700089F70115110561F001900020E9F7319723
:10078000AF01401B510BB80181E291E00E9487004C
:10079000F4E0DF0E2CE0D212B4CF0E9431016B01E5
:1007A0007C0188EE482E83E0582E612C712C0E942B
:1007B00031016C197D098E099F09683E73408105DE
:1007C0009105A8F381E0481A51086108710898EE74
:1007D000C90E93E0D91EE11CF11C411451046104BF
:1007E000710429F780E090E0892B09F45ACF0E9428
:1007F000000057CFA301920119A28E010F5D1F4F78
:10080000CA01B901A50194010E942E04605DF8019E
:1008100062938F01211531054105510589F7A9CF53
:10082000E1E2F1E01382128284E091E0918380831F
:1008300082E084838FEF858383E0868384E08783EF
:1008400085E0808786E0818787E08287138614862B
:1008500015861686178681E00C94F601A1E21A2E01
:10086000AA1BBB1BFD010DC0AA1FBB1FEE1FFF1F54
:10087000A217B307E407F50720F0A21BB30BE40BA4
:10088000F50B661F771F881F991F1A9469F76095EB
:100890007095809590959B01AC01BD01CF010895A5
:1008A000EE0FFF1F0590F491E02D0994F894FFCF0F
:1008B000000000009C028700570156010E000F0047
:0208C000100026
:00000001FF
