:020000040000FA
:100000000C941C010C9444010C9444010C94440184
:100010000C9444010C9444010C9444010C9444014C
:100020000C9444010C9444010C9444010C9444013C
:100030000C9444010C9444010C9444010C9444012C
:100040000C941C130C9444010C94EA120C94C412EA
:100050000C9444010C9444010C9444010C9444010C
:100060000C9444010C94440108000000BE92244901
:10007000123EABAAAA2ABECDCCCC4C3E00000080DA
:10008000BEABAAAAAA3E00000000BF000000803F4D
:100090000000000000084178D3BB4387D1133D190D
:1000A0000E3CC3BD4282AD2B3E68EC8276BED98F3A
:1000B000E1A93E4C80EFFFBE01C4FF7F3F0000007E
:1000C000000007634236B79BD8A71A39685618AEA6
:1000D000BAAB558C1D3CB7CC5763BD6DEDFD753E7D
:1000E000F6177231BF000000803F00407A10F35ACB
:1000F00000A0724E18090010A5D4E80000E8764868
:10010000170000E40B54020000CA9A3B000000E113
:10011000F505000080969800000040420F000000A6
:10012000A08601000000102700000000E803000086
:1001300000006400000000000A0000000000010050
:10014000000000002C76D888DC674F0823DFC1DF71
:10015000AE59E1B1B796E5E3E453C63AE651997674
:1001600096E8E6C28426EB898C9B62ED407C6FFCAE
:10017000EFBC9C9F40F2BAA56FA5F490055A2AF7F0
:100180005C936B6CF9676DC11BFCE0E40D47FEF5F9
:1001900020E6B500D0ED902E030094357705008061
:1001A000841E080000204E0A000000C80C333333C0
:1001B000330F986E12831141EF8D2114893BE65560
:1001C00016CFFEE6DB18D1844B381BF77C1D901D43
:1001D000A4BBE424203284725E228100C9F124ECA5
:1001E000A1E53D270000000800020100000304070C
:1001F00000000000000000000000000025002800B2
:100200002B0000000000240027002A00040404043E
:1002100004040404020202020202030303030303B0
:10022000010204081020408001020408102001028D
:10023000040810208613351511241FBECFEFD8E017
:10024000DEBFCDBF25E0AAE7B3E001C01D92A13C0F
:10025000B207E1F713E0A0E0B1E0E4E6FCE302C09E
:1002600005900D92AA37B107D9F711E0CBE1D1E0A3
:1002700004C02197FE010E94241CCA31D107C9F78E
:100280000E947C140C94251E0C94000090E0FC014C
:10029000E05EFD4F2491845F9D4FFC018491882393
:1002A00099F090E0880F991FFC01EE5FFD4FA5913A
:1002B000B491FC01E850FE4F859194918FB7F8946A
:1002C000EC91E22BEC938FBF08954F925F926F9267
:1002D0007F928F929F92AF92BF92EF92FF920F9375
:1002E0001F93CF93DF93C4E9D4E0A7E9B4E0AD0155
:1002F000FE0191919E3008F09E509770906490930B
:100300007C0090917A00906490937A0090917A00AA
:1003100096FDFCCF9091780020917900322F292F03
:100320002D933D934E175F0721F7811154C001EBC8
:1003300015E08AE9E82E84E0F82E6B817C81072E97
:10034000000C880B990B0E940A184B015C01F80104
:1003500020813181428153810E946918A501940155
:100360000E94691827E137EB41ED58E30E946918B4
:100370002B013C01F8012481358146815781C5015B
:10038000B4010E9469182AE037ED43E25CE30E9461
:1003900069189B01AC01C301B2010E945F19F80109
:1003A00020853185428553850E945F190E943D1A40
:1003B0006F3F710519F014F06FEF70E077FF02C026
:1003C00070E060E07C836B8322960C501109EC1680
:1003D000FD0609F0B2CF87E994E0DF91CF911F913C
:1003E0000F91FF90EF90BF90AF909F908F907F9074
:1003F0006F905F904F9008950895DB0114964D9192
:100400005C9115976D917C91DC01ED91FC910280DE
:10041000F381E02D0994AF92BF92CF92DF92EF92D9
:10042000FF920F931F93CF93DF936C017B018B019E
:10043000040F151FEB015E01AE18BF08C017D107EE
:1004400059F06991D601ED91FC910190F081E02D78
:10045000C6010995892B79F7C501DF91CF911F91CD
:100460000F91FF90EF90DF90CF90BF90AF900895E5
:10047000FC01538D448D252F30E0842F90E0821BAA
:10048000930B541710F0CF96089501970895FC012F
:10049000918D828D981761F0A28DAE0FBF2FB11D87
:1004A0005D968C91928D9F5F9F73928F90E00895DF
:1004B0008FEF9FEF0895FC01918D828D981731F099
:1004C000828DE80FF11D858D90E008958FEF9FEFED
:1004D0000895FC01918D228D892F90E0805C9F4FC3
:1004E000821B91098F739927089585E893E00E94F4
:1004F000690221E0892B09F420E0822F089580E031
:1005000090E0892B29F00E94750281110C94000063
:100510000895FC01A48DA80FB92FB11DA35ABF4F98
:100520002C91848D90E001968F739927848FA689F2
:10053000B7892C93A089B1898C91837080648C9346
:10054000938D848D981306C00288F389E02D8081F5
:100550008F7D80830895EF92FF920F931F93CF9327
:10056000DF93EC0181E0888F9B8D8C8D98131AC0EE
:10057000E889F989808185FF15C09FB7F894EE89D5
:10058000FF896083E889F989808183708064808332
:100590009FBF81E090E0DF91CF911F910F91FF907D
:1005A000EF900895F62E0B8D10E00F5F1F4F0F7325
:1005B0001127E02E8C8D8E110CC00FB607FCFACFE0
:1005C000E889F989808185FFF5CFCE010E948902F3
:1005D000F1CFEB8DEC0FFD2FF11DE35AFF4FF082B1
:1005E0009FB7F8940B8FEA89FB8980818062CFCF17
:1005F000CF93DF93EC01888D8823B9F0AA89BB895A
:10060000E889F9898C9185FD03C0808186FD0DC044
:100610000FB607FCF7CF8C9185FFF2CF808185FF65
:10062000EDCFCE010E948902E9CFDF91CF910895ED
:1006300090E0FC01EC51FE4F2491FC01E05EFD4F87
:100640003491FC01E45FFD4FE491EE23C9F02223D5
:1006500039F0233001F1A8F4213019F1223029F1C9
:10066000F0E0EE0FFF1FE850FE4FA591B4918FB759
:10067000F894EC91611126C030953E233C938FBFD6
:1006800008952730A9F02830C9F0243049F7809127
:1006900080008F7D03C0809180008F7780938000E1
:1006A000DFCF84B58F7784BDDBCF84B58F7DFBCF63
:1006B0008091B0008F778093B000D2CF8091B0004E
:1006C0008F7DF9CF3E2BDACF3FB7F894809181032D
:1006D00090918203A0918303B091840326B5A89BD7
:1006E00005C02F3F19F00196A11DB11D3FBFBA2FC4
:1006F000A92F982F8827BC01CD01620F711D811D84
:10070000911D42E0660F771F881F991F4A95D1F708
:1007100008958F929F92AF92BF92CF92DF92EF9205
:10072000FF924B015C010E9464036B017C010E94FB
:1007300064036C197D098E099F09683E7340810529
:100740009105A8F321E0821A9108A108B10888EE6A
:10075000C80E83E0D81EE11CF11C81149104A10491
:10076000B10429F7FF90EF90DF90CF90BF90AF904A
:100770009F908F90089590E080E008950C94FD0183
:10078000CF93DF93EC0160E08E810E94180361E05B
:100790008E810E94180360E08E810E9418038BE80E
:1007A00091E00197F1F7DF91CF910895CF92DF9219
:1007B000EF92FF920F931F93CF93DF936C017C0115
:1007C00087E0E80EF11CD0E0C0E0062F10E0B80191
:1007D0000C2E02C0759567950A94E2F76170F701D7
:1007E00081917F010E9418032196C430D10579F7C9
:1007F000C601DF91CF911F910F91FF90EF90DF9095
:10080000CF900C94C003CF92DF92EF92FF920F93A0
:100810001F93CF93DF93EC01F62E642F8C810E94FF
:1008200018038D818F3F19F060E00E9418030F2D8F
:1008300010E08F8584FF25C06E0187E0C80ED11CB3
:10084000F12CE12CB8010E2C02C0759567950A9425
:10085000E2F76170F60181916F010E941803FFEFCA
:10086000EF1AFF0A88E0E816F10461F7CE01DF9184
:10087000CF911F910F91FF90EF90DF90CF900C944C
:10088000C003B80184E0759567958A95E1F7CE01BC
:100890000E94D6036F2DCE01DF91CF911F910F9152
:1008A000FF90EF90DF90CF900C94D60341E00E9430
:1008B000030481E090E0089540E00C940304FC01FF
:1008C0006089262F2160208B69600C945C04FC01F8
:1008D0002389421710F04FEF420FFC01E40FF11D86
:1008E0002489620F60680C945C040F931F93CF936C
:1008F000DF93EC018B01413069F0422F60E0CE01C3
:100900000E946704B801CE01DF91CF911F910F9132
:100910000C94FD01FB018481958160E170E0681B0E
:10092000790B76956795422FEACF61E00E945C04CF
:100930008BE39FE10197F1F70895CF93DF93823026
:1009400029F4909131049860909331048093350498
:100950001092360480E48093370480E18093380459
:1009600080E580933904809126040E94460180919D
:1009700027048F3F11F00E944601809128040E94B5
:100980004601C2E2D4E09E012252344080913104FB
:1009900084FD0AC084E090E02196281739073CF4D2
:1009A0008E810E944601EFCF88E090E0F5CF8BE387
:1009B0009DE00197F1F760E0809126040E94180302
:1009C00060E0809128040E941803809127048F3FE3
:1009D00019F060E00E9418036091310464FD3CC08E
:1009E00063E082E294E00E94D603CBE4D6E4CE0139
:1009F0000197F1F763E082E294E00E94D603219729
:100A0000F1F763E082E294E00E94D60383E592E08E
:100A10000197F1F762E082E294E00E94D6036091D0
:100A20003104606282E294E00E945C0484E080937E
:100A300032046CE082E294E00E945C0482E294E082
:100A40000E94950482E08093330466E082E294E0A1
:100A5000DF91CF910C945C04606282E294E00E948A
:100A60005C048BE496E40197F1F7609131046062D5
:100A700082E294E00E945C0483E592E00197F1F742
:100A800060913104606282E294E00E945C04C7CF0E
:100A90004F925F926F927F928F929F92AF92BF928E
:100AA000CF92DF92EF92FF921F93CF93DF93CDB758
:100AB000DEB760970FB6F894DEBF0FBECDBF162F1E
:100AC0009E012F5F3F4F690190E1F90111929A95C4
:100AD000E9F744E954E030E090E0891711F1DA01D8
:100AE00060E020E0E32EF12CEE0CFF1C1217A1F0C9
:100AF000F701E60FF11DEE0FFF1FEE0FFF1FEC0DCC
:100B0000FD1D19968D909D90AD90BC901C97808294
:100B10009182A282B3826F5F2F5F1496233031F7E8
:100B20003F5F9F5F445F5F4F9330B9F6682F70E07F
:100B300090E080E00E9408189B01AC0160E070E04A
:100B400080E89FEB0E94C81A4B015C01612F70E0A6
:100B500090E080E00E9408189B01AC0160E070E02A
:100B600080E89FEB0E94C81A2B013C012D853E8531
:100B70004F85588969817A818B819C810E9469188F
:100B80006B017C0129853A854B855C856D817E8171
:100B90008F8198850E9469189B01AC01C701B6013D
:100BA0000E945E196B017C01A3019201C501B40191
:100BB0000E9469189B01AC01C701B6010E94691827
:100BC00060960FB6F894DEBF0FBECDBFDF91CF9118
:100BD0001F91FF90EF90DF90CF90BF90AF909F90CC
:100BE0008F907F906F905F904F900895FB010190E0
:100BF0000020E9F73197AF01461B570BDC01ED915F
:100C0000FC910280F381E02D09948F929F92AF9224
:100C1000BF92EF92FF920F931F93CF93DF93CDB7C5
:100C2000DEB7A1970FB6F894DEBF0FBECDBF7C0133
:100C3000FA01CB0119A2223008F42AE08E010F5DDF
:100C40001F4F822E912CB12CA12CBF01A501940124
:100C50000E94021CF901CA016A300CF5605DD801DE
:100C60006E938D01232B242B252B79F790E080E0C8
:100C7000109721F0BD01C7010E94F605A1960FB69D
:100C8000F894DEBF0FBECDBFDF91CF911F910F91C2
:100C9000FF90EF90BF90AF909F908F900895695C08
:100CA000DECFCF92DF92EF92FF920F931F93CF93FD
:100CB000DF936B01770FEE08FF08F7FE1FC0EC0112
:100CC000E881F9810190F081E02D6DE209958C01B8
:100CD00044275527BA014C195D096E097F092AE09E
:100CE000CE010E940506800F911FDF91CF911F91C9
:100CF0000F91FF90EF90DF90CF9008952AE0B70119
:100D0000A601DF91CF911F910F91FF90EF90DF909F
:100D1000CF900C9405064F925F926F927F928F92C4
:100D20009F92AF92BF92CF92DF92EF92FF920F937A
:100D30001F93CF936B017C01742EAC019B010E9429
:100D4000181B66E272E0811126C046015701E89443
:100D5000B7F82FEF3FEF4FE75FE7C501B4010E94FF
:100D6000181B81110CC02FEF3FEF4FE75FE7C50164
:100D7000B4010E9403186AE272E0181664F02FEFC3
:100D80003FEF4FE75FE4C701B6010E94731A1816E0
:100D9000ACF46EE272E085E893E0CF911F910F9181
:100DA000FF90EF90DF90CF90BF90AF909F908F908B
:100DB0007F906F905F904F900C94F6052FEF3FEF70
:100DC0004FE75FECC701B6010E94031887FDE1CF32
:100DD00020E030E0A901C701B6010E94031810E02D
:100DE00000E087FF0AC06DE285E893E00E94AB0255
:100DF0008C01F7FAF094F7F8F094C0E060E070E04E
:100E000080E09FE37C1641F020E030E040E251E4D6
:100E10000E94CB19CF5FF6CFA70196010E945F1900
:100E20002B013C010E94441A4B015C012AE0BC01E9
:100E3000A40185E893E00E9405067C01E00EF11E06
:100E4000CC23D1F1C501B4010E9408189B01AC016B
:100E5000C301B2010E945E194B015C016EE285E89C
:100E600093E00E94AB02E80EF91EC15028F120E089
:100E700030E040E251E4C501B4010E9469182B0141
:100E80003C010E94441A4B01B12CA12C2AE0B5016F
:100E9000A40185E893E00E940506E80EF91EC5014D
:100EA000B4010E9408189B01AC01C301B2010E9469
:100EB0005E194B015C01D9CFC701CF911F910F91F2
:100EC000FF90EF90DF90CF90BF90AF909F908F906A
:100ED0007F906F905F904F9008950C94F605CF939C
:100EE000DF93EC0182E294E00E94950462E372E0F9
:100EF00082E294E00E946D076C817D8182E294E041
:100F00000E94510640E068E082E294E00E9467049B
:100F100066E372E082E294E00E946D076A817B8161
:100F200082E294E00E94510641E060E082E294E0B7
:100F30000E9467046AE372E082E294E00E946D0717
:100F40006881798182E294E0DF91CF910C9451061F
:100F5000FC0180819181009711F00C945B1560E099
:100F600070E0CB010895FC0124813581232B39F4F5
:100F700021E0FB018081882349F020E007C08081C7
:100F800091810E94151E21E0892BB9F7822F0895C7
:100F90000F931F93CF93DF938C01EB01FC018081B2
:100FA00091810097E1F06881798161157105A9F05F
:100FB000428153812C813D814217530770F00E947A
:100FC0001E1E8C819D81F801958384831D821C8265
:100FD000DF91CF911F910F9108950E94C61C8881C7
:100FE0009981F801918380838A819B819383828395
:100FF0008C819D8195838483198218821B821A8239
:10100000E5CFCF93DF93EC0188819981009711F0B0
:101010000E94C61C198218821D821C821B821A82A1
:10102000DF91CF910895FC0180819181009711F0AB
:101030000C94C61C08950F931F93CF93DF938C01DC
:10104000EC01C85BDF4F0C171D0729F02697CE0176
:101050000E941308F8CFDF91CF911F910F9108954F
:101060000F931F93CF93DF93EC01888199810097B1
:1010700059F02A813B812617370730F081E0DF9154
:10108000CF911F910F9108958B016F5F7F4F0E9449
:101090004F1D009759F0998388831B830A832C8105
:1010A0003D81232B59F7FC011082E8CF80E0E7CF88
:1010B000EF92FF920F931F93CF93DF93611571050A
:1010C00041F480E0DF91CF911F910F91FF90EF905D
:1010D000089541155105B1F07B01EC010C811D8192
:1010E000040F151FB8010E943008882351F328818E
:1010F00039818C819D81B701820F931F0E941E1E32
:101100001D830C8381E0DECFCF93DF93EC01FB01E5
:1011100001900020E9F73197AF01461B570B0E9461
:101120005808811103C0CE010E940108CE01DF9151
:10113000CF910895CF93DF93EC01FB01448155815A
:10114000608171810E945808811103C0CE010E9404
:101150000108CE01DF91CF910895EF92FF920F9396
:101160001F93CF93DF93EC017B018A01BA010E94A8
:10117000300881110BC0CE010E940108CE01DF9121
:10118000CF911F910F91FF90EF9008951D830C83D5
:10119000B701888199810E941E1EF0CFFB0101904A
:1011A0000020E9F73197AF01461B570B0C94AD08AF
:1011B0000F931F93CF93DF93CDB7DEB762970FB630
:1011C000F894DEBF0FBECDBF8C01CB01F8011182B8
:1011D000108213821282158214824AE0BE016F5F70
:1011E0007F4F0E948215BE016F5F7F4FC8010E9432
:1011F000CE0862960FB6F894DEBF0FBECDBFDF916A
:10120000CF911F910F910895FB01DC0111961C9263
:101210001E9213961C921E92129715961C921E9265
:1012200014978617970749F06081718161157105E0
:1012300021F0448155810C94AD0808950F931F93BC
:10124000CF93DF93EC0102E214E0F80182819381F5
:101250009B838A838EE192E09983888384818C8347
:1012600085818D8386818E8388E0E9E2F4E0DE016A
:10127000179601900D928A95E1F7F80187858F877F
:101280008089888B8189898B82898A8B83898B8BE2
:1012900084899589A689B7898C8B9D8BAE8BBF8BF2
:1012A000808D888F6BE374E0CE0149960E9404091B
:1012B000F801878D90A1A1A18F8F98A3A9A386E0A3
:1012C000E5E4F4E0DE01939601900D928A95E1F752
:1012D000DF91CF911F910F910895AF92BF92CF925E
:1012E000DF92EF92FF920F931F93CF93DF937C01D6
:1012F000EB016C015B0188E4A80EB11C10E000E07A
:10130000BE01600F711FC8018C0D9D1D0E94040954
:101310000A5F1F4F0231110599F7629682E1C80EEC
:10132000D11CCA15DB0551F78881F701E85BFF4F37
:101330008083DF91CF911F910F91FF90EF90DF900D
:10134000CF90BF90AF9008950F931F93CF93DF93EB
:10135000CDB7DEB768970FB6F894DEBF0FBECDBF2E
:101360008C01FC0160817181CE0101960E94D80838
:10137000F80162817381CE0107960E94D808F801B6
:1013800064817581CE0143960E94D808BE016D5ECE
:101390007F4FCE010D960E9404096EE372E0CE01EC
:1013A0000D960E948408BE01695F7F4F0E949A08D3
:1013B0006EE372E00E948408BE016F5F7F4F0E945F
:1013C0009A08BC0185E893E00E94FD0160E472E0A8
:1013D00085E893E00E94F605CE010D960E94130861
:1013E000CE0143960E941308CE0107960E9413086F
:1013F000CE0101960E94130868960FB6F894DEBFDE
:101400000FBECDBFDF91CF911F910F910895FC01C9
:10141000118210821382128215821482FB010190C4
:101420000020E9F73197AF01461B570B0C94AD082C
:101430009F92AF92BF92CF92DF92EF92FF920F9363
:101440001F93CF93DF938C016B01942EAA24A39456
:10145000B12C7B0148E4E40EF11CD0E0C0E08BB17C
:101460009E012C5F3F4FF50102C0EE0FFF1F2A9532
:10147000E2F78F708E2B8BB961E070E080E090E036
:101480000E94890363B170E033E0759567953A95E2
:10149000E1F76770F70160836623F1F170E090E097
:1014A00080E00E9408180E94801A28E132E741E398
:1014B0005FE30E94CB190E94441AF701608383B155
:1014C00090E023E0959587952A95E1F78770992715
:1014D000892BA9F78BB18F708BB9F701808192E1CD
:1014E0009C9FB0019D9F700D1124F6E08F9F600DB1
:1014F000711D11246C0D7D1DC8010E940409C801D5
:10150000DF91CF911F910F91FF90EF90DF90CF90DF
:10151000BF90AF909F9008952196C430D10509F0F7
:101520009ECF91109ACF62E572E0C8010E94070A2F
:10153000E6CF4F925F926F927F928F929F92AF927F
:10154000BF92CF92DF92EF92FF920F931F93CF93B0
:10155000DF93CDB7DEB72C970FB6F894DEBF0FBE82
:10156000CDBF8C01D62EC42E49015C0129E1A20E0B
:10157000B11C62E572E0C5010E94CE0862E572E02E
:10158000CE0107960E94070A41E0B401CE01019600
:101590000E94180ABE016F5F7F4FCE0107960E941E
:1015A000C807CE0101960E94130863E472E0CE01E1
:1015B00007960E94B307882309F446C0C5010E941C
:1015C000A8072B013C018FEF4816510461047104F8
:1015D00009F00CF4A6C04C2D6D2DC8010E946704C3
:1015E000F12CD8015D968D919C91F816190638F46E
:1015F0006BE672E0C8010E946D07F394F2CF4C2DA8
:101600006D2DC8010E94670465E472E0C8010E9464
:101610006D0764EF71E080E090E00E9489034C2D3B
:101620006D2DC8010E94670469E672E0C8010E943E
:101630006D074C2D6D2DC8010E94670462E572E0B4
:10164000C5010E94CE08A0CF69E472E0CE010796E2
:101650000E94B307882309F456C0F801E58CF68C84
:10166000E114F10409F44FC062E572E0CE01019685
:101670000E94070AD8015D968D919C91009709F10F
:10168000B1E0EB1AF1088E159F0508F47C01D80132
:101690005996ED91FC915A97EE0DFF1D70801082C6
:1016A00059966D917C91CE0101966115710541F1BC
:1016B0000E94CE08F801818D928DE80EF91ED701A7
:1016C0007C92BE016F5F7F4FC5010E94C807CE01AB
:1016D00001960E941308F801658D6D0D4C2DC8010F
:1016E0000E9467046BE672E0C8010E946D07D80192
:1016F0005D966C916D0D4C2DC8010E94670444CF1E
:101700000E940108D7CF4B855C856F817885C50124
:101710000E945808BE01695F7F4FC8010E94FD0109
:1017200033CFCE0107960E941308C2012C960FB644
:10173000F894DEBF0FBECDBFDF91CF911F910F9107
:10174000FF90EF90DF90CF90BF90AF909F908F90E1
:101750007F906F905F904F9008956F927F928F92DD
:101760009F92AF92BF92CF92DF92EF92FF920F9330
:101770001F93CF93DF93CDB7DEB7C954D1090FB60E
:10178000F894DEBF0FBECDBF8C017B01A42E0E945A
:10179000950462E372E0C8010E946D07C8010E94CF
:1017A0005F04B701CE0101960E946D099E012F5F73
:1017B0003F4F40E063E0C8010E94990AF80194A3FA
:1017C00083A3CE0101960E941B0840E068E0C80197
:1017D0000E94670466E372E0C8010E946D07C801B9
:1017E0000E945F04B701CE0101960E946D099E011F
:1017F0002F5F3F4F40E06BE0C8010E94990AF8015B
:1018000096A385A3CE0101960E941B0841E060E0EB
:10181000C8010E9467046AE372E0C8010E946D0774
:10182000C8010E945F04B701CE0101960E946D09B4
:101830009E012F5F3F4F41E063E0C8010E94990A7B
:10184000F80190A787A3CE0101960E941B08F8011A
:1018500060896E7F608B6860C8010E945C0441E013
:1018600068E0C8010E9467046BE472E0C8010E944E
:101870006D074801F3E28F0E911CD12C3401F40165
:10188000619171914F0185E893E00E945106F2E069
:1018900060E472E0DF1611F06EE372E085E893E039
:1018A0000E946D07D39483E0D812E9CF40E0B701DE
:1018B000CE0101960E94180A62E572E0CE010196FF
:1018C0000E94B307DA2C811101C0D12CCE01019600
:1018D0000E941308DD20D1F06301B12C85B18C7F0B
:1018E0008B2985B9F601819191916F019927909388
:1018F0008B0080938A0064E670E080E090E00E94B4
:101900008903B394F3E0BF12E9CFD0CFC8010E949E
:101910009504C301C75BDF4F0FB6F894DEBF0FBE5F
:10192000CDBFDF91CF911F910F91FF90EF90DF908E
:10193000CF90BF90AF909F908F907F906F900895C1
:101940002F923F924F925F926F927F928F929F92CF
:10195000AF92BF92CF92DF92EF92FF920F931F93BD
:10196000CF93DF93CDB7DEB7C757D1090FB6F89441
:10197000DEBF0FBECDBF6C014B01442EE9E9F5E09F
:1019800010821182128213821482158216821782AB
:1019900010861186128613863C9685E0ED3BF8078B
:1019A00079F7439ADE0111967D0199E0592E411095
:1019B0002DC0C6010E9495046AE572E0C7010E942D
:1019C000070A20E040E0B701C6010E947504C70184
:1019D0000E941308C6010E945F0441E0B401C701E0
:1019E0000E94180AC7010E94A807562EC7010E942C
:1019F00013088FEF850D893008F05BC0F601608910
:101A00006E7F608B6860C6010E945C0481ECA82E2A
:101A100084E0B82EE2961FAEE297C6010E949504BC
:101A2000442009F47AC0D5016D917D918D919C91EE
:101A30002C961FAE1EAE2C972E961FAE1EAE2E9766
:101A400060961FAE1EAE6097870122E044E00E94C0
:101A50003D15009709F45BC0BC01CE01865B9F4F2A
:101A60000E94CE086DE672E0CE018A5A9F4F0E9416
:101A7000070ABE01665B7F4FCE018A5A9F4F0E94C4
:101A80009A08BC01C7010E94040920E040E0B701A8
:101A9000C6010E947504C7010E941308CE018A5A2C
:101AA0009F4F0E941308CE01865B9F4F0E94130830
:101AB00070C040E06DE0C6010E94670468E672E015
:101AC000C7010E94070AB701C6010E94BE03C701F1
:101AD0000E94130840E06DE0C6010E94670465E4BF
:101AE00072E0C7010E94070AB701C6010E94BE0347
:101AF000C7010E94130864EF71E080E090E00E944B
:101B0000890340E06DE0C6010E94670466CFCE0104
:101B1000865B9F4F0E940108A5CFB401C7010E94B8
:101B20006D0940E0B701C6010E94AD0B3C01C70141
:101B30000E941B08F30160817181072E000C880B45
:101B4000990B0E940A18D5016D937D938D939C93F8
:101B50001397F30162817381072E000C880B990B98
:101B60000E940A18D50114966D937D938D939C93D2
:101B70001797F30164817581072E000C880B990B70
:101B80000E940A18D50118966D937D938D939C93AE
:101B90001B9740E0B401C7010E94180A69E472E093
:101BA000C7010E94B307182FC7010E94130881E0E4
:101BB000111157C00E9465016091970470919804BB
:101BC000CE01865B9F4F0E94D80860919904709166
:101BD0009A04CE018A5A9F4F0E94D80860919B04B4
:101BE00070919C04CE018E599F4F0E94D808BE016F
:101BF0006E597F4FCE01845A9F4F0E94040967E5BA
:101C000072E0CE01845A9F4F0E948408BE016A5A36
:101C10007F4F0E949A0867E572E00E948408BE0127
:101C2000665B7F4F0E949A08BC01C7010E940409AD
:101C300021E040E0B701C6010E947504C7010E947F
:101C40001308CE01845A9F4F0E941308CE018E596B
:101C50009F4F0E941308CE018A5A9F4F0E9413087B
:101C600022CF0E9465016091970470919804072E1D
:101C7000000C880B990B0E940A1820E030E048EC19
:101C800052E40E94CB19F501648775878687978790
:101C90006091990470919A04072E000C880B990B9F
:101CA0000E940A1820E030E048EC52E40E94CB1970
:101CB000D50150966D937D938D939C93539760912E
:101CC0009B0470919C04072E000C880B990B0E94BA
:101CD0000A1820E030E048EC52E40E94CB19F501EC
:101CE000648B758B868B978BE296FFADE297FF5FD7
:101CF000E296FFAFE29788E1A80EB11C5F128DCE8D
:101D0000439884E2D7011D928A95E9F7E0EAF4E06E
:101D1000E496FFAFEEAFE497312C212CE2969FAD15
:101D2000E297892F90E0B0E0A0E0E8968CAF9DAFFD
:101D3000AEAFBFAFE897E4960EAD1FADE497A9E054
:101D4000E196AFAFE197C12CD12C76014601570146
:101D500026013701D80191968D919D910D90BC91EE
:101D6000A02DAC968CAF9DAFAEAFBFAFAC979C0132
:101D7000AD01C301B2010E945F192B013C01D801E2
:101D80009D968D919D910D90BC91A02DE0968CAF6C
:101D90009DAFAEAFBFAFE0979C01AD01AC966CAD0F
:101DA0007DAD8EAD9FADAC970E9469189B01AC01D3
:101DB000C501B4010E945F194B015C01E0962CAD96
:101DC0003DAD4EAD5FADE097CA01B9010E94691803
:101DD000AC962CAD3DAD4EAD5FADAC970E94691891
:101DE0009B01AC01C701B6010E945F196B017C0128
:101DF000E196BFADE197B150E196BFAFE197085EC4
:101E00001F4FB111A7CF2E964CAE5DAE6EAE7FAE1A
:101E10002E9762968CAE9DAEAEAEBFAE62976696C2
:101E2000CCAEDDAEEEAEFFAE6697E4960EAD1FAD66
:101E3000E497E0961CAE1DAE1EAE1FAEE097AC96CA
:101E40001CAE1DAE1EAE1FAEAC97C12CD12C7601C0
:101E500046015701E1961FAEE197F80145A456A44B
:101E600067A470A8A3019201C501B4010E945F1983
:101E70004B015C01A3019201C301B2010E946918E8
:101E80009B01AC01C701B6010E945F196B017C0187
:101E900020E030E040E450E4C301B2010E94C81ADF
:101EA0009B01AC01AC966CAD7DAD8EAD9FADAC979A
:101EB0000E945F19AC966CAF7DAF8EAF9FAFAC97B1
:101EC00020E030E040E850E4C301B2010E94C81AAB
:101ED0009B01AC01E0966CAD7DAD8EAD9FADE09702
:101EE0000E945F19E0966CAF7DAF8EAF9FAFE09719
:101EF000E196FFADE197FF5FE196FFAFE197085EE6
:101F00001F4FE2968FADE2978F13A7CFC0929D042B
:101F1000D0929E04E0929F04F092A0048092A104CB
:101F20009092A204A092A304B092A404E8966CAD8F
:101F30007DAD8EAD9FADE8970E9408182B013C0146
:101F40004092A5045092A6046092A7047092A8043F
:101F5000AC968CAD9DADAEADBFADAC978093A904F2
:101F60009093AA04A093AB04B093AC04C092AD04C8
:101F7000D092AE04E092AF04F092B0048092B1042B
:101F80009092B204A092B304B092B404E0968CADE7
:101F90009DADAEADBFADE0978093B5049093B60410
:101FA000A093B704B093B804AC968CAD9DADAEAD24
:101FB000BFADAC978093B9049093BA04A093BB04CF
:101FC000B093BC04C092BD04D092BE04E092BF04A2
:101FD000F092C00460E080E00E944805A7019601ED
:101FE0000E9469186B017C0161E080E00E94480555
:101FF000A50194010E946918A70196010E945F192A
:102000006B017C0162E080E00E944805A30192011F
:102010000E946918A70196010E945F192B013C01DB
:102020008E010F5F1F4F7801912C6701B12C692D34
:102030008B2D0E944805A30192010E94CB19D60165
:102040006D937D938D939D936D01B394B3E0BB121B
:10205000EECF9394ECE0EE0EF11C9B12E6CFC101A3
:102060008F549A4F6C01D6014D905D906D907D908C
:102070006D015E01BAE4AB0EB11CF12CE12CF5014F
:1020800061917191819191915F01F801EE0DFF1DB8
:1020900020813181428153810E9469189B01AC01EA
:1020A000C301B2010E945F192B013C01F4E0EF0E65
:1020B000F11C8CE0E816F10411F7F6013497408228
:1020C0005182628273829A94045F1F4F9110CBCF2A
:1020D000E496AEADBFADE4971496E496BFAFAEAF55
:1020E000E497BCE02B1A3108ECED2E16EFEF3E061C
:1020F00009F021CE69E772E085E893E00E946D0760
:1021000010E000E0C80187569A4F6C01F12CD6010F
:102110006D917D918D919D916D0142E00E948B06A4
:10212000B2E061E472E0FB1611F061E572E085E86F
:1021300093E00E946D07F394E3E0FE12E8CF045FA2
:102140001F4F04321105F1F669EA72E085E893E069
:102150000E946D0710E000E06AED72E085E893E010
:102160000E946D07C8018F539B4F6C01F12CD60163
:102170006D917D918D919D916D0142E00E948B0644
:10218000B5E063E572E0FB1611F067E572E085E803
:1021900093E00E946D07F394E6E0FE12E8CF085E3C
:1021A0001F4F083D1105C1F6C958DF4F0FB6F8940F
:1021B000DEBF0FBECDBFDF91CF911F910F91FF907A
:1021C000EF90DF90CF90BF90AF909F908F907F90D7
:1021D0006F905F904F903F902F900895CF92DF9235
:1021E000EF92FF92CF93DF93CDB7DEB7C257D109FD
:1021F0000FB6F894DEBF0FBECDBF82E294E00E941E
:1022000095046CED72E0CE0101960E94070A20E071
:1022100041E0BE016F5F7F4F82E294E00E9475044F
:10222000CE0101960E94130866EE72E0CE0101967F
:102230000E94070A21E040E0BE016F5F7F4F82E20B
:1022400094E00E947504CE0101960E94130841E0BB
:102250006BE474E0CE0101960E94180ACE0101964B
:102260000E94A8076B017C01CE0101960E94130811
:1022700081E0C816D104E104F104A9F082E0C81697
:10228000D104E104F10409F4F7C0CE58DF4F0FB6D2
:10229000F894DEBF0FBECDBFDF91CF91FF90EF90DE
:1022A000DF90CF90089582E294E00E94950466EF5B
:1022B00072E0CE0101960E94070A20E040E0BE01D4
:1022C0006F5F7F4F82E294E00E947504CE01019619
:1022D0000E94130862E073E0CE0101960E94070A93
:1022E00021E040E0BE016F5F7F4F82E294E00E94F8
:1022F0007504CE0101960E94130841E06BE474E07E
:10230000CE0101960E94180ACE0101960E94A807EC
:102310006B017C01CE0101960E94130881E0C81672
:10232000D104E104F10499F182E0C816D104E1047A
:10233000F10409F0AACF439A40E06BE474E0CE01C7
:1023400001960E94180A62E572E0CE0101960E9491
:10235000B307F82ECE0101960E941308FF2009F45E
:1023600011C180E00E94650190937B0380937A0302
:102370000E946F0780917A0390917B030E94A409C9
:1023800068EC70E080E090E00E948903D5CF82E2A3
:1023900094E00E94950460E173E0CE0101960E94F2
:1023A000070A20E040E0BE016F5F7F4F82E294E0C9
:1023B0000E947504CE0101960E9413086EE173E03D
:1023C000CE0101960E94070A21E040E0BE016F5F46
:1023D0007F4F82E294E00E947504CE0101960E9434
:1023E000130841E06BE474E0CE0101960E94180AE4
:1023F000CE0101960E94A8076B017C01CE010196D7
:102400000E94130881E0C816D104E104F104A1F090
:1024100082E0C816D104E104F10409F036CF6BE480
:1024200074E0CE0101960E946D09CE01865B9F4F3C
:102430000E941E0940E00CC06BE474E0CE010196DE
:102440000E946D09CE01865B9F4F0E941E0941E0EC
:10245000BE016F5F7F4FCE01865B9F4F0E94A00C35
:102460008AE490E08C0F9D1F49960E941308CE01CC
:1024700001960E941B0809CF82E294E00E94950415
:102480006EE273E0CE0101960E94070A20E040E070
:10249000BE016F5F7F4F82E294E00E947504CE011F
:1024A00001960E9413086DE373E0CE0101960E942D
:1024B000070A21E040E0BE016F5F7F4F82E294E0B7
:1024C0000E947504CE0101960E94130841E06BE45E
:1024D00074E0CE0101960E94180ACE0101960E9476
:1024E000A8076B017C01CE0101960E94130881E0D0
:1024F000C816D104E104F10491F182E0C816D104B8
:10250000E104F10409F0C1CE439A40E06BE474E0C9
:10251000CE0101960E94180A62E572E0CE01019692
:102520000E94B307F82ECE0101960E941308FF20E7
:1025300049F180E00E94650190937B0380937A03C8
:102540000E946F0780917A0390917B030E94A409F7
:1025500064E170E080E090E00E948903D6CF6BE4F4
:1025600074E0CE0101960E946D0941E0BE016F5FEB
:102570007F4F82E294E00E94AD0B90937B038093A7
:102580007A0375CF439881CE1F920F920FB60F92A8
:1025900011242F933F934F935F936F937F938F9368
:1025A0009F93AF93BF93EF93FF9385E893E00E94CF
:1025B0008902FF91EF91BF91AF919F918F917F9190
:1025C0006F915F914F913F912F910F900FBE0F90A0
:1025D0001F9018951F920F920FB60F9211242F93F0
:1025E0008F939F93EF93FF93E0919503F091960360
:1025F0008081E0919B03F0919C0382FD1BC0908140
:1026000080919E038F5F8F7320919F03821741F00B
:10261000E0919E03F0E0EB57FC4F958F80939E0373
:10262000FF91EF919F918F912F910F900FBE0F907F
:102630001F9018958081F4CF1F920F920FB60F92C2
:1026400011242F933F938F939F93AF93BF938091C8
:102650007D0390917E03A0917F03B0918003309120
:102660007C0323E0230F2D3758F50196A11DB11DE2
:1026700020937C0380937D0390937E03A0937F033C
:10268000B09380038091810390918203A091830392
:10269000B09184030196A11DB11D80938103909395
:1026A0008203A0938303B0938403BF91AF919F9162
:1026B0008F913F912F910F900FBE0F901F90189503
:1026C00026E8230F0296A11DB11DD2CFE1E8F0E06C
:1026D00080818860808380818F7E8083A0E8B0E0E5
:1026E0008C9181608C938C918D7F8C938C91806286
:1026F0008C938C918F7E8C9380818160808380818C
:102700008D7F808380818B7F808308951F93CF93FB
:10271000DF93E5E8F3E01382128288EE93E0A0E015
:10272000B0E084839583A683B7838CE092E09183A5
:10273000808385EC90E09587848784EC90E0978790
:10274000868780EC90E0918B808B81EC90E0938B7E
:10275000828B82EC90E0958B848B86EC90E0978B5B
:10276000868B118E128E138E148EC4E9D4E01882DB
:1027700019821A8216E0E7E9F4E0DF01812F1D9249
:102780008A95E9F7EDE9F4E084E2DF011D928A958C
:10279000E9F788EDE9E0F1E0A1ECB4E001900D92F9
:1027A0008A95E1F784E2E1EEF1E0A9E9B5E0019074
:1027B0000D928A95E1F73B9AE0E0F1E08081888311
:1027C0008181898382818A836AE473E08BE494E067
:1027D0000E94070A6CE473E081E594E00E94070A16
:1027E0006EE473E087E594E00E94070A60E573E019
:1027F0008DE594E00E94070A62E573E083E694E0C9
:102800000E94070A64E573E089E694E00E94070AE3
:1028100066E573E08FE694E00E94070A68E573E0DE
:1028200085E794E00E94070A6AE573E08BE794E08D
:102830000E94070A63E472E081E894E00E94070ABC
:102840006CE573E087E894E00E94070A69E472E0AF
:102850008DE894E00E94070A109293048AB1806F79
:102860008AB984B1877C84B984B1876084B90E94B5
:102870006613C2E2D4E01B821A828EE192E0998351
:10288000888382E08C838FEF8D8383E08E8384E066
:102890008F8385E08887198787E08A871B861C8657
:1028A0001D861E861F8681E00E949D0462E572E0FF
:1028B0008BE394E00E94070A809105029091060242
:1028C000A09107028F8F98A3A9A384B1876084B9D0
:1028D0000E946613E5E4F4E0DF011D921A95E9F722
:1028E00082E00E949D04CE010E94950481E1888FC0
:1028F000DF91CF911F910895CF93DF9300D000D047
:1029000000D0CDB7DEB7789484B5826084BD84B53D
:10291000816084BD85B5826085BD85B5816085BDDA
:1029200080916E00816080936E0010928100809192
:10293000810082608093810080918100816080931A
:102940008100809180008160809380008091B1003F
:1029500084608093B1008091B00081608093B0006A
:1029600080917A00846080937A0080917A008260FE
:1029700080937A0080917A00816080937A008091C0
:102980007A00806880937A001092C100E0919503EC
:10299000F091960382E08083E0919103F09192039D
:1029A0001082E0919303F09194038FEC8083109256
:1029B0009D03E0919903F0919A0386E08083E09172
:1029C0009703F0919803808180618083E091970361
:1029D000F0919803808188608083E0919703F09163
:1029E0009803808180688083E0919703F091980339
:1029F00080818F7D80836EE573E0CE0101960E9419
:102A0000070A20E041E0BE016F5F7F4F82E294E061
:102A10000E947504CE0101960E94130869E673E0D6
:102A2000CE0101960E94070A21E041E0BE016F5FDE
:102A30007F4F82E294E00E947504CE0101960E94CD
:102A4000130864EF71E080E090E00E94890300E0E9
:102A500010E00E94EE1001151105D9F30E947502D5
:102A60008823B9F30E940000F4CF8BE394E00E9426
:102A700013088BE494E00C941B08EF920F931F93C0
:102A8000CF93DF93E80134E047FD34E1042E000CDE
:102A9000550B57FF03C0519541955109E32E022F65
:102AA000242FAE010E94BC15CE01DF91CF911F9162
:102AB0000F91EF9008951F93FC0199278827BC017F
:102AC000E89411911032E9F3193010F01E30C8F378
:102AD0001B3251F01D3249F4689406C00E948D15D6
:102AE000610F711D811D911D119110531A30B0F3AA
:102AF0003EF490958095709561957F4F8F4F9F4FD5
:102B00001F910895BB274A3031F4992322F4BDE286
:102B1000909581959F4F0C94A315592F482F372FCF
:102B2000262F660F771F881F991F660F771F881F34
:102B3000991F620F731F841F951F660F771F881FD1
:102B4000991F0895BB27FB015527AA27880F991FB6
:102B5000AA1FA41710F0A41B83955051B9F7A05DCC
:102B6000AA3308F0A95DA193009779F7B111B19349
:102B70001192CB010C94F317A9E0B0E0E2ECF5E17F
:102B80000C942D196A01F22EB02E102FFBE3AF2EFC
:102B9000A01608F41BE31F5F012F27E0AE014F5F73
:102BA0005F4F0E941B17BC018981982F997091304B
:102BB00009F43FC09BE2E1FC04C09E2D9170E0FC53
:102BC0003AC05E2D5071E82FE87083FF46C084E064
:102BD000911101C083E0EF2DE81B8F1508F0E0E0B4
:102BE000D6018E2F20E2552351F1992329F0D601E9
:102BF0009C93C60101966C0196012D5F3F4FE2FE4A
:102C000024C08EE4D6018C9391E411969C93119785
:102C100012968C93D9018E2F90E281111BC0E20F86
:102C2000F32FF11D10828EEF9FEF2996ECE00C94AC
:102C300049199DE2C6CF90E2C4CF2D9381508111F6
:102C4000FCCFCE0ED11CE0E0D0CF8EE6D6018C9327
:102C500091E6DBCF9D938150E0CF482F447082FFF7
:102C60003DC084E0911101C083E08F1510F4EF2D79
:102C7000E81BD6018E2F20E2552309F1992329F074
:102C8000D6019C93C60101966C0196012D5F3F4FC2
:102C9000E2FE1BC089E4D6018C938EE411968C93DE
:102CA000119786E412968C93D9018E2F90E2882397
:102CB00009F4B5CF9D938150FACF2D9381508111A6
:102CC000FCCFCE0ED11CE0E0D9CF89E6D6018C93A3
:102CD0008EE611968C93119786E6E4CF9B0177FFE1
:102CE00002C030E020E0A1E0B0E0911102C0B0E00D
:102CF000A0E0F9013196AE0FBF1F8B2C912CBB20A9
:102D000009F461C05401EFEFAE1ABE0AAA0DBB1D53
:102D1000FA161B0619F014F04F2D4A1B511188C0EA
:102D2000E3FC59C07601A42FB0E2A1114FC0C40E3C
:102D3000D11C992309F45BC040E0D6011196F6013D
:102D400090836D01552309F448C0012F060F9A8125
:102D5000582F507184FF03C0913309F401501016AD
:102D60000CF047C0093008F008E0EEE2FE2E5B01EF
:102D7000A01AB10885019194819491082F3F3207E0
:102D800029F4D601FC92F60131966F0162177307A0
:102D900094F1021713077CF5DB01A21BB30BAA24E5
:102DA000A394B12CAC0EBD1EAA0DBB1D11968C9127
:102DB00021503109D601119628153905F4F0F60194
:102DC00080836D01DBCFB12CA12CA0CFF701B19393
:102DD0007F01A150AACF9111B0CFD601942F50E31B
:102DE00002C05D9391509111FCCFC40ED11C40E004
:102DF000ACCF01E0BACF80E3DBCF6217730731F4C9
:102E0000963388F4953311F4552369F0F6018083E5
:102E1000FD01842F90E2811108C0A40FB11D1C9206
:102E200090E080E002CF81E3F1CF91938150F3CF26
:102E3000911183CF8ACF283008F027E03327DA01B9
:102E4000990F311D87FD916000966105710539F478
:102E500032602E5F3D9330E32A95E1F708959F3F5E
:102E600030F080387105610509F03C5F3C5F3D93AF
:102E7000913008F08068911DDF93CF931F930F93DB
:102E8000FF92EF92192F987F9695E92F9695969538
:102E9000E90FFF27EC5BFE4F99273327EE24FF2431
:102EA000A701E70105900894079428F4360FE71E60
:102EB000F81E491F511D660F771F881F991F069422
:102EC000A1F70590079428F4E70EF81E491F561F36
:102ED000C11D770F881F991F661F0694A1F70590E3
:102EE000079428F4F80E491F561FC71FD11D880FDD
:102EF000991F661F771F0694A1F70590079420F489
:102F0000490F561FC71FD81F990F661F771F881FAD
:102F10000694A9F784911095177041F0D695C7953E
:102F200057954795F794E7941A95C1F7EAEEF0E0C4
:102F300068941590159135916591959105907FE272
:102F40007395E118F10A430B560BC90BD009C0F772
:102F5000E10CF11E431F561FC91FD01D7EF47033B4
:102F600011F48A95E6CFE894015030F0080F0AF486
:102F70000027021708F4202F2395022F7A3328F018
:102F800079E37D932A95E9F710C07D932A9589F618
:102F9000069497956795379517951794E118F10A58
:102FA000430B560BC90BD00998F023957E9173956E
:102FB0007A3308F070E37C932013B8F77E91706148
:102FC0007D9330F0839571E37D9370E32A95E1F76B
:102FD0001124EF90FF900F911F91CF91DF919927CE
:102FE00087FD90950895DC01FC01672F719177238F
:102FF000E1F7329704C07C916D9370836291AE17B4
:10300000BF07C8F308950E94451808F481E00895A9
:10301000E89409C097FB3EF4909580957095619572
:103020007F4F8F4F9F4F9923A9F0F92F96E9BB2728
:103030009395F695879577956795B795F111F8CFA4
:10304000FAF4BB0F11F460FF1BC06F5F7F4F8F4F0F
:103050009F4F16C0882311F096E911C0772321F005
:103060009EE8872F762F05C0662371F096E8862F9D
:1030700070E060E02AF09A95660F771F881FDAF7F4
:10308000880F9695879597F90895990F0008550F21
:10309000AA0BE0E8FEEF16161706E807F907C0F0DE
:1030A00012161306E407F50798F0621B730B840BE6
:1030B000950B39F40A2661F0232B242B252B21F4C0
:1030C00008950A2609F4A140A6958FEF811D811D60
:1030D00008950E947C180C94ED180E94DF1838F0B7
:1030E0000E94E61820F0952311F00C94D6180C9449
:1030F000DC1811240C9421190E94FE1870F3959F7E
:10310000C1F3950F50E0551F629FF001729FBB27DE
:10311000F00DB11D639FAA27F00DB11DAA1F649F7A
:103120006627B00DA11D661F829F2227B00DA11D2D
:10313000621F739FB00DA11D621F839FA00D611DB3
:10314000221F749F3327A00D611D231F849F600DD4
:10315000211D822F762F6A2F11249F5750409AF0FD
:10316000F1F088234AF0EE0FFF1FBB1F661F771F89
:10317000881F91505040A9F79E3F510580F00C9454
:10318000D6180C9421195F3FE4F3983ED4F386954A
:1031900077956795B795F795E7959F5FC1F7FE2BF4
:1031A000880F911D9695879597F9089597F99F67D0
:1031B00080E870E060E008959FEF80EC08950024BF
:1031C0000A941616170618060906089500240A948C
:1031D00012161306140605060895092E0394000C12
:1031E00011F4882352F0BB0F40F4BF2B11F460FFA1
:1031F00004C06F5F7F4F8F4F9F4F089557FD9058CA
:10320000440F551F59F05F3F71F04795880F97FBAA
:10321000991F61F09F3F79F0879508951216130664
:103220001406551FF2CF4695F1DF08C01616170693
:103230001806991FF1CF86957105610508940895C8
:10324000E894BB2766277727CB0197F908952F923B
:103250003F924F925F926F927F928F929F92AF9226
:10326000BF92CF92DF92EF92FF920F931F93CF9373
:10327000DF93CDB7DEB7CA1BDB0B0FB6F894DEBF0A
:103280000FBECDBF09942A88398848885F846E8430
:103290007D848C849B84AA84B984C884DF80EE807A
:1032A000FD800C811B81AA81B981CE0FD11D0FB683
:1032B000F894DEBF0FBECDBFED0108955058BB2777
:1032C000AA270E9476190C94ED180E94DF1838F096
:1032D0000E94E61820F039F49F3F19F426F40C946C
:1032E000DC180EF4E095E7FB0C94D618E92F0E9449
:1032F000FE1858F3BA17620773078407950720F082
:1033000079F4A6F50C9420190EF4E0950B2EBA2F43
:10331000A02D0B01B90190010C01CA01A0011124DB
:10332000FF27591B99F0593F50F4503E68F11A1687
:10333000F040A22F232F342F4427585FF3CF469518
:1033400037952795A795F0405395C9F77EF41F163A
:10335000BA0B620B730B840BBAF09150A1F0FF0F04
:10336000BB1F661F771F881FC2F70EC0BA0F621FF0
:10337000731F841F48F4879577956795B795F795E0
:103380009E3F08F0B0CF9395880F08F09927EE0F75
:103390009795879508950E94DF190C94ED180E9467
:1033A000E61858F00E94DF1840F029F45F3F29F03A
:1033B0000C94D61851110C9421190C94DC180E940D
:1033C000FE1868F39923B1F3552391F3951B550B20
:1033D000BB27AA2762177307840738F09F5F5F4FE8
:1033E000220F331F441FAA1FA9F335D00E2E3AF027
:1033F000E0E832D091505040E695001CCAF72BD03F
:10340000FE2F29D0660F771F881FBB1F261737078F
:103410004807AB07B0E809F0BB0B802DBF01FF27C1
:1034200093585F4F3AF09E3F510578F00C94D618B0
:103430000C9421195F3FE4F3983ED4F38695779579
:103440006795B795F7959F5FC9F7880F911D96957A
:10345000879597F90895E1E0660F771F881FBB1FD6
:10346000621773078407BA0720F0621B730B840B83
:10347000BA0BEE1F88F7E09508950E94441A6894ED
:10348000B1110C94211908950E94061988F09F57D4
:1034900098F0B92F9927B751B0F0E1F0660F771F78
:1034A000881F991F1AF0BA95C9F714C0B13091F06E
:1034B0000E942019B1E008950C942019672F782FED
:1034C0008827B85F39F0B93FCCF386957795679533
:1034D000B395D9F73EF490958095709561957F4F9F
:1034E0008F4F9F4F08950E94451808F48FEF08955D
:1034F00016F00C94571B0C94DC1868940C94D61896
:103500000E940619A8F39923C1F3AEF3DF93CF937A
:103510001F930F93FF92C92FDD2788232AF021974D
:10352000660F771F881FDAF720E030E040E85FEB96
:103530009FE3883920F0803E38F021968F770E94F3
:103540005F19E8E6F0E004C00E945F19E5E9F0E0E9
:103550000E94651B8B01BE01EC01FB2E6F577109A8
:103560007595771F880B990B0E940A1828E132E79E
:1035700041E35FE30E947C18AF2D9801AE01FF90FC
:103580000F911F91CF91DF910E9476190C94ED1845
:10359000FA01EE0FFF1F309621053105A1F16115EB
:1035A000710561F48038BFE39B0749F16894903856
:1035B000810561F08038BFEF9B0741F099234AF500
:1035C000FF3FE1053105210519F1E8940894E795DD
:1035D000D901AA2329F4AB2FBE2FF85FD0F310C076
:1035E000FF5F70F4A695E0F7F73950F019F0FF3A55
:1035F00038F49F779F930DD00F9007FC9058089553
:1036000046F00C94DC1860E070E080E89FE30895D9
:103610004FE79F775F934F933F932F930E94801ABA
:103620002F913F914F915F910E9469180C94251B37
:103630000E944518880B990B089529F416F00C94F4
:10364000D6180C9420190C94DC180E940619A8F3C3
:103650009638A0F707F80F92E8942BE33AEA48EB84
:103660005FE70E947F180F920F920F924DB75EB7DF
:103670000F920E94CE1BE2ECF0E00E94651B4F917E
:103680005F91EF91FF91E595EE1FFF1F49F0FE5707
:10369000E0684427EE0F441FFA95E1F74195550B7A
:1036A0000E94981B0F9007FE0C948C1B08959F3F5F
:1036B00031F0915020F4879577956795B795880FED
:1036C000911D9695879597F90895DF93CF931F9352
:1036D0000F93FF92EF92DF927B018C01689406C0FA
:1036E000DA2EEF010E947C18FE01E894A591259145
:1036F000359145915591A6F3EF010E947619FE018F
:103700009701A801DA9469F7DF90EF90FF900F918D
:103710001F91CF91DF9108959B01AC0160E070E0B3
:1037200080E89FE30C94CB190C94D6180C94571B8B
:103730000E940619D8F39923C9F3940F511DA3F3DE
:103740009150504094F059F0882332F0660F771F63
:10375000881F91505040C1F79E3F51052CF7880FAC
:10376000911D9695879597F908955F3FACF0983E27
:103770009CF0BB27869577956795B79508F4B1605F
:103780009395C1F7BB0F58F711F460FFE8CF6F5F57
:103790007F4F8F4F9F4FE3CF0C942119FA01DC012B
:1037A000AA0FBB1F9B01AC01BF5728F42227332768
:1037B0004427507820C0B75190F4AB2F0024469591
:1037C00037952795011CA395D2F3002071F0220FA5
:1037D000331F441FB395DAF30ED00C945E19613099
:1037E0007105A0E88A07B94630F49B01AC01662751
:1037F000772788279078309621F020833183428381
:1038000053830895A1E21A2EAA1BBB1BFD010DC014
:10381000AA1FBB1FEE1FFF1FA217B307E407F50780
:1038200020F0A21BB30BE40BF50B661F771F881F5C
:10383000991F1A9469F760957095809590959B01F2
:10384000AC01BD01CF010895EE0FFF1F0590F4916B
:10385000E02D09940F931F93CF93DF93823091054E
:1038600010F482E090E0E091BF05F091C00530E0F7
:1038700020E0B0E0A0E0309799F42115310509F47B
:103880004AC0281B390B24303105D8F58A819B8129
:103890006115710589F1FB0193838283FE0111C0DB
:1038A000408151810281138148175907E0F0481780
:1038B000590799F4109761F012960C93129713968A
:1038C0001C933296CF01DF91CF911F910F910895F4
:1038D0000093BF051093C005F4CF2115310551F0B9
:1038E0004217530738F0A901DB019A01BD01DF013E
:1038F000F801C1CFEF01F9CF9093C0058093BF05C8
:10390000CDCFFE01E20FF31F819391932250310935
:1039100039832883D7CF2091BD053091BE05232B55
:1039200041F420910501309106013093BE052093AA
:10393000BD0520910301309104012115310541F4A9
:103940002DB73EB74091070150910801241B350B5C
:10395000E091BD05F091BE05E217F307A0F42E1B20
:103960003F0B2817390778F0AC014E5F5F4F2417E3
:10397000350748F04E0F5F1F5093BE054093BD05BD
:10398000819391939FCFF0E0E0E09CCFCF93DF93C2
:103990000097E9F0FC01329713821282A091BF05D3
:1039A000B091C005ED0130E020E01097A1F4208136
:1039B0003181820F931F2091BD053091BE052817DC
:1039C000390709F061C0F093BE05E093BD05DF91B2
:1039D000CF910895EA01CE17DF07E8F54A815B81B0
:1039E0009E0141155105B1F7E901FB83EA83499135
:1039F0005991C40FD51FEC17FD0761F480819181A7
:103A00000296840F951FE9019983888382819381AF
:103A10009B838A83F0E0E0E012968D919C9113974E
:103A20000097B9F52D913C911197CD010296820F27
:103A3000931F2091BD053091BE052817390739F62F
:103A4000309751F51092C0051092BF05B093BE0596
:103A5000A093BD05BCCFD383C28340815181840F25
:103A6000951FC817D90761F44E5F5F4F8881998110
:103A7000480F591F518340838A819B81938382839E
:103A80002115310509F0B0CFF093C005E093BF05D3
:103A90009ECFFD01DC01C0CF13821282D7CFB0E0F0
:103AA000A0E0E5E5FDE10C9429198C01009751F4A3
:103AB000CB010E942A1C8C01C801CDB7DEB7E0E122
:103AC0000C944519FC01E60FF71F9C0122503109A7
:103AD000E217F30708F49DC0D901CD91DC9111974D
:103AE000C617D70798F0C530D10530F3CE0104973B
:103AF0008617970708F3C61BD70B2297C193D1935C
:103B00006D937C93CF010E94C61CD6CF5B01AC1A8B
:103B1000BD0A4C018C0E9D1EA091BF05B091C00541
:103B2000512C412CF12CE12C109731F58091BD05E1
:103B30009091BE058815990509F05CC04616570698
:103B400008F058C08091030190910401009741F45E
:103B50008DB79EB74091070150910801841B950BCA
:103B6000E817F90708F055C0F093BE05E093BD05CE
:103B7000F90171836083A0CF8D919C91119712966A
:103B80006C90129713967C901397A815B90559F568
:103B90006C0142E0C40ED11CCA14DB0420F1AC015C
:103BA0004A195B09DA011296159780F062827382D6
:103BB00051834083D9016D937C93E114F10471F03A
:103BC000D7011396FC93EE93129776CF22968C0F23
:103BD0009D1FF90191838083F301EFCFF093C0051E
:103BE000E093BF0569CF4816590608F42C017D0102
:103BF000D3019ACFCB010E942A1C7C01009749F087
:103C0000AE01B8010E940C1EC8010E94C61C8701AB
:103C100053CF10E000E050CFFB01DC0102C0019067
:103C20000D9241505040D8F70895FB01DC018D9171
:103C3000019080190110D9F3990B0895FB01DC0163
:103C400001900D920020E1F7089511E0CBE1D1E061
:103C500004C0FE010E94241C2196CC31D107C9F773
:103C6000F894FFCF100F0E0000C105800000000087
:103C7000000000000000000000C3F578401F851B15
:103C8000405C8F02400000F8410000F8410000F85D
:103C900041C3F59040666636408FC2254000007CE7
:103CA0004200007C4200007C42713DAA40295C5FDA
:103CB000403D0A57400000BE420000BE420000BE28
:103CC000420000C840C3F58840C3F588400000FEAC
:103CD000420000FE420000FE420000D04033339319
:103CE000403333934000001F4300001F4300001F78
:103CF0004352B8DE409A99A140713DA24000003F76
:103D00004300003F4300003F433333EB40EC51B0EE
:103D1000401F85B34000005F4300005F4300005F29
:103D2000436666FE400000C8403333CB4000007F4E
:103D30004300007F4300007F43333303413333D3D9
:103D400040295CD740DCB1D14044A8ADC19C1D2EB8
:103D5000C10A11BE3FE8B13A427905EFC247EC20F3
:103D6000406104FD41289091C2100F0F0000000037
:103D7000AB020B023802F802690247025B02000044
:103D8000000056040B02BB03FC016E616E00696EFD
:103D900066006F766600523A2000473A2000423AA9
:103DA00020002C000D0A002A004552520023004436
:103DB0006F6E65210009005D2C0A002C20004974FB
:103DC00074657220507473202D3E20002020202026
:103DD0000043617074757265202D3E200052656746
:103DE00072657373696F6E20436F6E7374616E7466
:103DF000730A2D2D2D2D2D2D2D2D2D2D2D2D2D2DD0
:103E00002D2D2D2D2D2D2D2D2D2D2D0A005261778F
:103E10002044617461206D6573737572656D656EA4
:103E200074730A2D2D2D2D2D2D2D2D2D2D2D2D2D58
:103E30002D2D2D2D2D2D2D2D2D2D2D2D0A005B0001
:103E40004D61696E204D656E7500313A53656E7334
:103E500020323A5267624C65640043616C69627259
:103E6000617465203F00313A59657320202020326B
:103E70003A4E6F0043616C692E204D6574686F6423
:103E80003F00312E477261792020322E436F6C6FD4
:103E90007200313A20436F6C6F7220696E707574D6
:103EA00000323A205265616C2054696D6500310022
:103EB0003200330034003500360037003800390056
:103EC000300057656C636F6D65202121005465617A
:0E3ED0006D20536167697474617269757300C7
:107E0000112484B714BE81FFF0D085E080938100F7
:107E100082E08093C00088E18093C10086E0809377
:107E2000C20080E18093C4008EE0C9D0259A86E02C
:107E300020E33CEF91E0309385002093840096BBD3
:107E4000B09BFECF1D9AA8958150A9F7CC24DD24C4
:107E500088248394B5E0AB2EA1E19A2EF3E0BF2EE7
:107E6000A2D0813461F49FD0082FAFD0023811F036
:107E7000013811F484E001C083E08DD089C08234E0
:107E800011F484E103C0853419F485E0A6D080C0E4
:107E9000853579F488D0E82EFF2485D0082F10E0AE
:107EA000102F00270E291F29000F111F8ED06801E7
:107EB0006FC0863521F484E090D080E0DECF843638
:107EC00009F040C070D06FD0082F6DD080E0C81688
:107ED00080E7D80618F4F601B7BEE895C0E0D1E017
:107EE00062D089930C17E1F7F0E0CF16F0E7DF06D8
:107EF00018F0F601B7BEE89568D007B600FCFDCFD4
:107F0000A601A0E0B1E02C9130E011968C91119780
:107F100090E0982F8827822B932B1296FA010C0160
:107F200087BEE89511244E5F5F4FF1E0A038BF0790
:107F300051F7F601A7BEE89507B600FCFDCF97BE46
:107F4000E89526C08437B1F42ED02DD0F82E2BD052
:107F50003CD0F601EF2C8F010F5F1F4F84911BD097
:107F6000EA94F801C1F70894C11CD11CFA94CF0C13
:107F7000D11C0EC0853739F428D08EE10CD085E9AC
:107F80000AD08FE07ACF813511F488E018D01DD067
:107F900080E101D065CF982F8091C00085FFFCCF94
:107FA0009093C60008958091C00087FFFCCF809118
:107FB000C00084FD01C0A8958091C6000895E0E648
:107FC000F0E098E1908380830895EDDF803219F02E
:107FD00088E0F5DFFFCF84E1DECF1F93182FE3DFCA
:107FE0001150E9F7F2DF1F91089580E0E8DFEE27F6
:047FF000FF270994CA
:027FFE00040479
:00000001FF
