S01000004C43445F636F64652E7372656347
S11300000C9434000C943E000C943E000C943E007E
S11300100C943E000C943E000C943E000C943E0064
S11300200C943E000C943E000C943E000C943E0054
S11300300C943E000C943E000C943E000C943E0044
S11300400C943E000C943E000C943E000C943E0034
S11300500C943E000C943E000C943E000C943E0024
S11300600C943E000C943E0011241FBECFEFD8E048
S1130070DEBFCDBF0E94B6000C94C0000C940000FB
S11300808BB188608BB98FE99FE00197F1F700C0CD
S113009000008BB1877F8BB908958BB1837F8BB9B7
S11300A08BB18F708BB98BB18BB90E9440008BB12F
S11300B08F708BB98BB180628BB90E9440008BB179
S11300C08F708BB98BB180628BB90E9440008BB169
S11300D08F708BB98BB180688BB90E9440008BB153
S11300E08F708BB98BB18BB90E9440008BB18F702C
S11300F08BB98BB1806F8BB90E9440008BB18F702C
S11301008BB98BB18BB90E9440008BB18F708BB9C6
S11301108BB180668BB90E9440000895CF93DF9322
S11301209BB1937F9BB9C82FD0E080E4689FC00D3A
S1130130D11D1124C0688BB18F708BB98BB19C2FEA
S1130140907F892B8BB90E9440008BB18F708BB943
S11301508BB1C295D295D07FDC27C07FDC27C82B1A
S1130160CBB90E944000DF91CF9108958AB18F638B
S11301708AB90E944D0061E082E00E948E00FFCFA8
S1070180F894FFCF1D
S9030000FC
