:100000000C9434000C9449000C9449000C94490061
:100010000C9449000C9449000C9449000C9449003C
:100020000C9449000C9449000C9449000C9449002C
:100030000C9449000C9449000C9449000C9449001C
:100040000C9449000C9449000C9449000C9449000C
:100050000C9449000C9449000C9449000C944900FC
:100060000C9449000C94490011241FBECFEFD8E036
:10007000DEBFCDBF11E0A0E0B1E0E6E7F1E002C0F5
:1000800005900D92A830B107D9F70E949D000C94FD
:10009000B9000C94000088B1846088B98FE99FE0B2
:1000A0000197F1F700C0000088B18B7F88B90895EF
:1000B00088B1887F88B981E085B90E944B0088E3C8
:1000C00085B90E944B008FE085B90E944B0086E005
:1000D00085B90E944B0008950F931F93CF93DF9330
:1000E0008C01D62F88B1887F88B988B1816088B9A2
:1000F000C0E0CD1748F4F801EC0FF11D808185B9FF
:100100000E944B00CF5FF5CFDF91CF911F910F91F0
:10011000089598B1987F98B990E4699F800D112453
:10012000806885B90E944B00089588B1887F88B99E
:1001300081E085B90E944B0008958FEF84B987B1A3
:10014000876087B90E94580060E085E00E948900BE
:1001500066E080E091E00E946C002FEF83ED90E379
:10016000215080409040E1F700C000000E949500BF
:06017000FFCFF894FFCF61
:08017600596173697275000004
:00000001FF
