:020000040000FA
:100000000C945D000C9485000C9485000C94850084
:100010000C9485000C9485000C9485000C9485004C
:100020000C9485000C9485000C9485000C9485003C
:100030000C9485000C9485000C9485000C9485002C
:100040000C946E050C9485000C943C050C941605DC
:100050000C9485000C9485000C9485000C9485000C
:100060000C9485000C94850000000008000201003B
:100070000003040700000000000000000000000072
:10008000250028002B0000000000240027002A0083
:10009000040404040404040402020202020203032E
:1000A0000303030301020408102040800102040836
:1000B0001020010204081020B80511241FBECFEF44
:1000C000D8E0DEBFCDBF11E0A0E0B1E0E6E4F4E1AE
:1000D00002C005900D92AA34B107D9F722E0AAE434
:1000E000B1E001C01D92AE30B207E1F710E0CDE5FE
:1000F000D0E004C02197FE010E941B0ACC35D10735
:10010000C9F70E9402060C94210A0C94000090E0AA
:10011000FC01EC55FF4F249180579F4FFC018491C7
:10012000882399F090E0880F991FFC01EA57FF4F50
:10013000A591B491FC01E458FF4F859194918FB73C
:10014000F894EC91E22BEC938FBF0895AF92BF929D
:10015000CF92DF92EF92FF920F931F93CF93DF9393
:100160006C017B018B01040F151FEB015E01AE18C2
:10017000BF08C017D10759F06991D601ED91FC91E4
:100180000190F081E02DC6010995892B79F7C50111
:10019000DF91CF911F910F91FF90EF90DF90CF9063
:1001A000BF90AF900895FC01538D448D252F30E012
:1001B000842F90E0821B930B541710F0CF96089574
:1001C00001970895FC01918D828D981761F0A28DA1
:1001D000AE0FBF2FB11D5D968C91928D9F5F9F7367
:1001E000928F90E008958FEF9FEF0895FC01918D1D
:1001F000828D981731F0828DE80FF11D858D90E08A
:1002000008958FEF9FEF0895FC01918D228D892F26
:1002100090E0805C9F4F821B91098F73992708950E
:1002200089E591E00E94040121E0892B09F420E096
:10023000822F089580E090E0892B29F00E94100120
:1002400081110C9400000895FC01A48DA80FB92F12
:10025000B11DA35ABF4F2C91848D90E001968F73EE
:100260009927848FA689B7892C93A089B1898C910D
:10027000837080648C93938D848D981306C002885C
:10028000F389E02D80818F7D80830895EF92FF9226
:100290000F931F93CF93DF93EC0181E0888F9B8DA9
:1002A0008C8D98131AC0E889F989808185FF15C063
:1002B0009FB7F894EE89FF896083E889F989808186
:1002C0008370806480839FBF81E090E0DF91CF9155
:1002D0001F910F91FF90EF900895F62E0B8D10E077
:1002E0000F5F1F4F0F731127E02E8C8D8E110CC0E6
:1002F0000FB607FCFACFE889F989808185FFF5CF31
:10030000CE010E942401F1CFEB8DEC0FFD2FF11DEA
:10031000E35AFF4FF0829FB7F8940B8FEA89FB896D
:1003200080818062CFCFCF93DF93EC01888D8823CB
:10033000B9F0AA89BB89E889F9898C9185FD03C048
:10034000808186FD0DC00FB607FCF7CF8C9185FF2D
:10035000F2CF808185FFEDCFCE010E942401E9CF4D
:10036000DF91CF91089590E0FC01E859FF4F24916F
:10037000FC01EC55FF4F3491FC01E057FF4FE49135
:10038000EE23C9F0222339F0233001F1A8F4213003
:1003900019F1223029F1F0E0EE0FFF1FE458FF4F72
:1003A000A591B4918FB7F894EC91611126C0309566
:1003B0003E233C938FBF08952730A9F02830C9F021
:1003C000243049F7809180008F7D03C080918000A8
:1003D0008F7780938000DFCF84B58F7784BDDBCFAC
:1003E00084B58F7DFBCF8091B0008F778093B00074
:1003F000D2CF8091B0008F7DF9CF3E2BDACF3FB7BF
:10040000F89480914F0190915001A0915101B091C9
:10041000520126B5A89B05C02F3F19F00196A11DDA
:10042000B11D3FBFBA2FA92F982F8827BC01CD013E
:10043000620F711D811D911D42E0660F771F881F9D
:10044000991F4A95D1F708958F929F92AF92BF92CC
:10045000CF92DF92EF92FF924B015C010E94FF016D
:100460006B017C010E94FF016C197D098E099F09B7
:10047000683E734081059105A8F321E0821A910836
:10048000A108B10888EEC80E83E0D81EE11CF11C5B
:1004900081149104A104B10429F7FF90EF90DF903B
:1004A000CF90BF90AF909F908F900895089590E067
:1004B00080E008952F923F924F925F926F927F92C9
:1004C0008F929F92AF92BF92CF92DF92EF92FF9264
:1004D0000F931F93CF93DF9300D000D000D01F92D3
:1004E000CDB7DEB78F83CE0101965C0186E0D501E2
:1004F0001D928A95E9F70AE010E0E8E1F1E0650174
:10050000B501808132968E3008F08E5087708064FD
:1005100080937C0080917A00806480937A0080913F
:100520007A0086FDFCCF8091780090917900DB0104
:100530004D915D91BD019D0122503109840F951FA0
:10054000D9018D939C93B1E0EE31FB07D1F662E0C7
:1005500070E080E090E00E9424020150110969F6E9
:100560008CE0882E81E0982E93E5E92E91E0F92E1B
:1005700000E011E0E6E0AE0EB11C2AE0222E312CA4
:10058000D6018D919D916D01F40141905190619042
:1005900071904F01B1010E94F309072E000C880BE6
:1005A000990B0E94FA08A30192010E9486090E94F9
:1005B000C208FF81FF2321F1D7016D937C93B2E044
:1005C000EB0EF11C0E5F1F4FAC14BD04C9F627964D
:1005D0000FB6F894DEBF0FBECDBFDF91CF911F9154
:1005E0000F91FF90EF90DF90CF90BF90AF909F90D2
:1005F0008F907F906F905F904F903F902F900895D5
:10060000F80140805180052C000C66087708072E01
:10061000000C880B990B9B01AC0124193509460984
:100620005709ABEEB0E00E94A70726813781032E61
:10063000000C440B550B24193509460957090E9433
:100640008807265F3F4F4F4F5F4FD7012D933C9355
:10065000B6CFCF93DF93EC0160E08E810E94B301AF
:1006600061E08E810E94B30160E08E810E94B3013F
:100670008BE891E00197F1F7DF91CF910895CF9248
:10068000DF92EF92FF920F931F93CF93DF936C0152
:100690007C0187E0E80EF11CD0E0C0E0062F10E0FE
:1006A000B8010C2E02C0759567950A94E2F7617047
:1006B000F70181917F010E94B3012196C430D105D9
:1006C00079F7C601DF91CF911F910F91FF90EF90C5
:1006D000DF90CF900C942903CF92DF92EF92FF929C
:1006E0000F931F93CF93DF93EC01F62E642F8C8131
:1006F0000E94B3018D818F3F19F060E00E94B30129
:100700000F2D10E08F8584FF25C06E0187E0C80E95
:10071000D11CF12CE12CB8010E2C02C07595679507
:100720000A94E2F76170F60181916F010E94B301B2
:10073000FFEFEF1AFF0A88E0E816F10461F7CE0137
:10074000DF91CF911F910F91FF90EF90DF90CF90AD
:100750000C942903B80184E0759567958A95E1F7B3
:10076000CE010E943F036F2DCE01DF91CF911F91EB
:100770000F91FF90EF90DF90CF900C943F0340E0FB
:10078000682F86EF91E00C946C03CF93DF93823057
:1007900029F49091050298609093050280930902D4
:1007A00010920A0280E480930B0280E180930C0295
:1007B00080E580930D028091FA010E94870080916C
:1007C000FB018F3F11F00E9487008091FC010E9485
:1007D0008700C6EFD1E09E01265F3140809105027F
:1007E00084FD0AC084E090E02196281739073CF484
:1007F0008E810E948700EFCF88E090E0F5CF8BE3F9
:100800009DE00197F1F760E08091FA010E94B30149
:1008100060E08091FC010E94B3018091FB018F3F59
:1008200019F060E00E94B3018091050284FD39C097
:1008300063E086EF91E00E943F03CBE4D6E4CE0173
:100840000197F1F763E086EF91E00E943F03219763
:10085000F1F763E086EF91E00E943F0383E592E0C9
:100860000197F1F762E086EF91E00E943F038091EB
:10087000050280620E94BF0384E0809306028CE040
:100880000E94BF0381E00E94BF038BE39FE10197B9
:10089000F1F782E08093070286E0DF91CF910C941C
:1008A000BF0380620E94BF038BE496E40197F1F7D7
:1008B0008091050280620E94BF0383E592E0019768
:1008C000F1F78091050280620E94BF03D0CF909122
:1008D0000902691710F06FEF690FE62FF0E0EA5098
:1008E000FE4F9489890F80680C94BF0341E00E94F9
:1008F0006C0381E090E00895FB0101900020E9F78E
:100900003197AF01461B570BDC01ED91FC91028042
:10091000F381E02D09944F925F926F927F928F92B4
:100920009F92AF92BF92CF92DF92EF92FF920F937E
:100930001F93CF93DF93CDB7DEB7A1970FB6F8948F
:10094000DEBF0FBECDBF8C016B01770FEE08FF0835
:10095000F7FE49C0DC01ED91FC910190F081E02DA2
:100960006DE209955C0122273327A9012C193D0965
:100970004E095F0919A2FE01B1967F019AE0492E46
:10098000512C612C712CCA01B901A30192010E9462
:10099000B207605DD7016E937D01211531054105D8
:1009A000510589F790E080E0109721F0BD01C80162
:1009B0000E947C048A0D9B1DA1960FB6F894DEBFA1
:1009C0000FBECDBFDF91CF911F910F91FF90EF90A0
:1009D000DF90CF90BF90AF909F908F907F906F905F
:1009E0005F904F900895A701960119A2FE01B1965C
:1009F0007F018AE0882E912CA12CB12CCA01B9016B
:100A0000A50194010E94B207605DD7016E937D013C
:100A1000211531054105510589F790E080E01097D7
:100A200059F2BD01C8010E947C04C6CF1F920F92EB
:100A30000FB60F9211242F933F934F935F936F93B1
:100A40007F938F939F93AF93BF93EF93FF9389E52A
:100A500091E00E942401FF91EF91BF91AF919F918E
:100A60008F917F916F915F914F913F912F910F9057
:100A70000FBE0F901F9018951F920F920FB60F92F6
:100A800011242F938F939F93EF93FF93E09169012C
:100A9000F0916A018081E0916F01F091700182FD17
:100AA0001BC09081809172018F5F8F7320917301C1
:100AB000821741F0E0917201F0E0E75AFE4F958F06
:100AC00080937201FF91EF919F918F912F910F90E1
:100AD0000FBE0F901F9018958081F4CF1F920F9238
:100AE0000FB60F9211242F933F938F939F93AF9341
:100AF000BF9380914B0190914C01A0914D01B09119
:100B00004E0130914A0123E0230F2D3758F501960D
:100B1000A11DB11D20934A0180934B0190934C017C
:100B2000A0934D01B0934E0180914F0190915001DF
:100B3000A0915101B09152010196A11DB11D809368
:100B40004F0190935001A0935101B0935201BF9176
:100B5000AF919F918F913F912F910F900FBE0F906A
:100B60001F90189526E8230F0296A11DB11DD2CF24
:100B7000E9E5F1E01382128288EE93E0A0E0B0E0B4
:100B800084839583A683B78382E291E091838083F7
:100B900085EC90E09587848784EC90E09787868742
:100BA00080EC90E0918B808B81EC90E0938B828B3A
:100BB00082EC90E0958B848B86EC90E0978B868B13
:100BC000118E128E138E148EE6EFF1E013821282D4
:100BD00084E391E09183808382E084838FEF858337
:100BE00083E0868384E0878385E0808786E0818751
:100BF00087E082871386148615861686178681E01D
:100C00000C94C503789484B5826084BD84B58160FA
:100C100084BD85B5826085BD85B5816085BD8091C7
:100C20006E00816080936E0010928100809181003F
:100C30008260809381008091810081608093810037
:100C4000809180008160809380008091B1008460F9
:100C50008093B1008091B00081608093B00080915A
:100C60007A00846080937A0080917A008260809319
:100C70007A0080917A00816080937A0080917A0076
:100C8000806880937A001092C10082E00E94C503C0
:100C900068EC70E080E090E00E942402E09169013D
:100CA000F0916A0182E08083E0916501F091660134
:100CB0001082E0916701F09168018FEC80831092BF
:100CC0007101E0916D01F0916E0186E08083E09109
:100CD0006B01F0916C01808180618083E0916B01F8
:100CE000F0916C01808188608083E0916B01F091CC
:100CF0006C01808180688083E0916B01F0916C01D0
:100D000080818F7D808381E00E945A02609153012F
:100D100070915401072E000C880B990B0E94FA0861
:100D200020E030E040E450E40E94500820E030E051
:100D3000A9010E94E4074B015C016091550170918B
:100D40005601072E000C880B990B0E94FA0820E030
:100D500030E040E450E40E945008A50194010E9454
:100D6000E4074B015C016091570170915801072E17
:100D7000000C880B990B0E94FA0820E030E040E458
:100D800050E40E945008A50194010E94E4074B0121
:100D90005C01C3E5D1E00CE011E089E5E82E81E0DB
:100DA000F82E69917991072E000C880B990B0E94FF
:100DB000FA089B01AC01C501B4010E945008F8017A
:100DC00061937193819391938F01EC16FD0649F71E
:100DD00081E00E945A0280915301909154019093B6
:100DE00001018093000180915501909156019093EB
:100DF00003018093020180915701909158019093D3
:100E0000050180930401CBE3DFE100E010E080E026
:100E10000E945A02609153017091540189E591E05A
:100E20000E948B046CE371E089E591E00E947C04F0
:100E3000609155017091560189E591E00E948B0403
:100E40006CE371E089E591E00E947C0460915701B8
:100E50007091580189E591E00E948B046EE371E086
:100E600089E591E00E947C0481E00E94BF03CE01ED
:100E70000197F1F760E080E00E94670461E471E0AF
:100E800086EF91E00E947C0460E083E00E946704AA
:100E9000609153017091540186EF91E00E948B04A0
:100EA00060E088E00E94670464E471E086EF91E00E
:100EB0000E947C0460E08BE00E9467046091550111
:100EC0007091560186EF91E00E948B0461E080E012
:100ED0000E94670467E471E086EF91E00E947C0461
:100EE00061E083E00E9467046091570170915801AE
:100EF00086EF91E00E948B040115110509F487CF5C
:100F00000E941001882309F482CF0E9400007FCF45
:100F1000052E97FB1EF400940E949F0757FD07D0F3
:100F20000E94B20707FC03D04EF40C949F07509523
:100F30004095309521953F4F4F4F5F4F08959095C5
:100F40008095709561957F4F8F4F9F4F08950E94B8
:100F5000D407A59F900DB49F900DA49F800D911D67
:100F600011240895A1E21A2EAA1BBB1BFD010DC07E
:100F7000AA1FBB1FEE1FFF1FA217B307E407F50749
:100F800020F0A21BB30BE40BF50B661F771F881F25
:100F9000991F1A9469F760957095809590959B01BB
:100FA000AC01BD01CF010895A29FB001B39FC00164
:100FB000A39F700D811D1124911DB29F700D811D85
:100FC0001124911D08955058BB27AA270E94FB07A2
:100FD0000C944C090E943E0938F00E94450920F00B
:100FE00039F49F3F19F426F40C943B090EF4E09574
:100FF000E7FB0C943509E92F0E945D0958F3BA17F5
:10100000620773078407950720F079F4A6F50C941E
:101010007F090EF4E0950B2EBA2FA02D0B01B9011C
:1010200090010C01CA01A0011124FF27591B99F05E
:10103000593F50F4503E68F11A16F040A22F232F6A
:10104000342F4427585FF3CF469537952795A795BA
:10105000F0405395C9F77EF41F16BA0B620B730B61
:10106000840BBAF09150A1F0FF0FBB1F661F771FD2
:10107000881FC2F70EC0BA0F621F731F841F48F487
:10108000879577956795B795F7959E3F08F0B0CF10
:101090009395880F08F09927EE0F979587950895F7
:1010A0000E9464080C944C090E94450958F00E9463
:1010B0003E0940F029F45F3F29F00C9435095111A5
:1010C0000C9480090C943B090E945D0968F39923F4
:1010D000B1F3552391F3951B550BBB27AA27621734
:1010E0007307840738F09F5F5F4F220F331F441F41
:1010F000AA1FA9F335D00E2E3AF0E0E832D0915075
:101100005040E695001CCAF72BD0FE2F29D0660F61
:10111000771F881FBB1F261737074807AB07B0E8A4
:1011200009F0BB0B802DBF01FF2793585F4F3AF0AA
:101130009E3F510578F00C9435090C9480095F3F6F
:10114000E4F3983ED4F3869577956795B795F79530
:101150009F5FC9F7880F911D9695879597F9089518
:10116000E1E0660F771F881FBB1F621773078407B4
:10117000BA0720F0621B730B840BBA0BEE1F88F7C3
:10118000E09508950E94C9086894B1110C948009F3
:1011900008950E94650988F09F5798F0B92F992704
:1011A000B751B0F0E1F0660F771F881F991F1AF052
:1011B000BA95C9F714C0B13091F00E947F09B1E02F
:1011C00008950C947F09672F782F8827B85F39F02E
:1011D000B93FCCF3869577956795B395D9F73EF4EB
:1011E00090958095709561957F4F8F4F9F4F089593
:1011F000E89409C097FB3EF49095809570956195B1
:101200007F4F8F4F9F4F9923A9F0F92F96E9BB2766
:101210009395F695879577956795B795F111F8CFE2
:10122000FAF4BB0F11F460FF1BC06F5F7F4F8F4F4D
:101230009F4F16C0882311F096E911C0772321F043
:101240009EE8872F762F05C0662371F096E8862FDB
:1012500070E060E02AF09A95660F771F881FDAF732
:10126000880F9695879597F9089597F99F6780E875
:1012700070E060E008959FEF80EC089500240A94E8
:101280001616170618060906089500240A94121661
:101290001306140605060895092E0394000C11F494
:1012A000882352F0BB0F40F4BF2B11F460FF04C041
:1012B0006F5F7F4F8F4F9F4F089557FD9058440F9A
:1012C000551F59F05F3F71F04795880F97FB991FA5
:1012D00061F09F3F79F08795089512161306140662
:1012E000551FF2CF4695F1DF08C0161617061806EF
:1012F000991FF1CF86957105610508940895E894CA
:10130000BB2766277727CB0197F908950E94990993
:101310000C944C090E943E0938F00E94450920F0C7
:10132000952311F00C9435090C943B0911240C946D
:1013300080090E945D0970F3959FC1F3950F50E0FD
:10134000551F629FF001729FBB27F00DB11D639F77
:10135000AA27F00DB11DAA1F649F6627B00DA11D1D
:10136000661F829F2227B00DA11D621F739FB00DC3
:10137000A11D621F839FA00D611D221F749F332733
:10138000A00D611D231F849F600D211D822F762FCC
:101390006A2F11249F5750409AF0F1F088234AF0A9
:1013A000EE0FFF1FBB1F661F771F881F9150504015
:1013B000A9F79E3F510580F00C9435090C948009E3
:1013C0005F3FE4F3983ED4F3869577956795B7959C
:1013D000F795E7959F5FC1F7FE2B880F911D9695B6
:1013E000879597F9089597FB072E16F4009407D078
:1013F00077FD09D00E94070A07FC05D03EF49095BE
:1014000081959F4F0895709561957F4F0895AA1B10
:10141000BB1B51E107C0AA1FBB1FA617B70710F0DF
:10142000A61BB70B881F991F5A95A9F78095909511
:10143000BC01CD010895EE0FFF1F0590F491E02D42
:101440000994F894FFCF000000000000FF03FF03A1
:10145000FF030000803F0000803F0000803F0E003F
:101460000F001000000000004601A600D300930109
:101470000401E200F600000000007604A600570216
:1014800056022C000D0A00523A00473A00423A0038
:107800000C94343C0C94513C0C94513C0C94513CE1
:107810000C94513C0C94513C0C94513C0C94513CB4
:107820000C94513C0C94513C0C94513C0C94513CA4
:107830000C94513C0C94513C0C94513C0C94513C94
:107840000C94513C0C94513C0C94513C0C94513C84
:107850000C94513C0C94513C0C94513C0C94513C74
:107860000C94513C0C94513C11241FBECFEFD8E036
:10787000DEBFCDBF11E0A0E0B1E0ECE9FFE702C060
:1078800005900D92A230B107D9F712E0A2E0B1E065
:1078900001C01D92AD30B107E1F70E942D3D0C945F
:1078A000CC3F0C94003C982F959595959595959582
:1078B000905D8F708A307CF0282F295A8091C0000B
:1078C00085FFFCCF9093C6008091C00085FFFCCF60
:1078D0002093C6000895282F205DF0CF982F809127
:1078E000C00085FFFCCF9093C6000895EF92FF92F1
:1078F0000F931F93EE24FF2487018091C00087FD22
:1079000017C00894E11CF11C011D111D81E4E8164B
:1079100082E4F8068FE0080780E0180770F3E09132
:107920000401F091050109958091C00087FFE9CF1E
:107930008091C6001F910F91FF90EF9008950E94D3
:10794000763C982F8091C00085FFFCCF9093C600B5
:1079500091362CF490330CF09053892F089597555D
:10796000892F08951F930E949F3C182F0E949F3CCF
:107970001295107F810F1F9108951F93182F882350
:1079800021F00E94763C1150E1F71F9108951F935A
:10799000182F0E94763C803249F0809103018F5F5E
:1079A000809303018530C1F01F9108958091C0003C
:1079B00085FFFCCF84E18093C6008091C00085FFE5
:1079C000FCCF1093C6008091C00085FFFCCF80E102
:1079D0008093C6001F910895E0910401F091050184
:1079E00009951F9108950E94763C803241F0809164
:1079F00003018F5F80930301853081F008958091AA
:107A0000C00085FFFCCF84E18093C6008091C00058
:107A100085FFFCCF80E18093C6000895E0910401CA
:107A2000F09105010995089540E951E08823A1F0FE
:107A30002D9A28EE33E0FA013197F1F721503040CA
:107A4000D1F72D9828EE33E0FA013197F1F7215064
:107A50003040D1F7815061F708953F924F925F9285
:107A60006F927F928F929F92AF92BF92CF92DF924E
:107A7000EF92FF920F931F93CF93DF93000080E16B
:107A80008093C4001092C50088E18093C10086E015
:107A90008093C2005098589A259A81E00E94143D24
:107AA00024E1F22E9EE1E92E85E9D82E0FE0C02ECA
:107AB00010E1B12EAA24A394B1E49B2EA6E58A2E50
:107AC000F2E57F2EE0E26E2E79E4572E63E5462E36
:107AD00050E5352E0E94763C8033B1F18133B9F107
:107AE000803409F46FC0813409F476C0823409F41B
:107AF00085C0853409F488C0803531F1823521F1A3
:107B0000813511F1853509F485C0863509F48DC0BC
:107B1000843609F496C0843709F403C1853709F423
:107B200072C1863709F466C0809103018F5F80932C
:107B30000301853079F6E0910401F0910501099582
:107B40000E94763C803351F60E94F33CC3CF0E94E2
:107B5000763C803249F78091C00085FFFCCFF092DF
:107B6000C6008091C00085FFFCCF9092C600809136
:107B7000C00085FFFCCF8092C6008091C00085FFC9
:107B8000FCCF7092C6008091C00085FFFCCF609250
:107B9000C6008091C00085FFFCCF5092C600809146
:107BA000C00085FFFCCF4092C6008091C00085FFD9
:107BB000FCCF3092C6008091C00085FFFCCFB09210
:107BC000C60088CF0E94763C863808F4BDCF0E945C
:107BD000763C0E94F33C7ECF0E94763C803809F4CC
:107BE0009CC0813809F40BC1823809F43CC1883942
:107BF00009F48FC080E00E94C73C6CCF84E10E94F2
:107C0000BD3C0E94F33C66CF85E00E94BD3C0E94D3
:107C1000F33C60CF0E94763C809306010E94763C44
:107C2000809307010E94F33C55CF0E94763C80333D
:107C300009F41DC183E00E94BD3C80E00E94C73C66
:107C400049CF0E94763C809309020E94763C809343
:107C5000080280910C028E7F80930C020E94763C79
:107C6000853409F415C18091080290910902892B8D
:107C700089F000E010E00E94763CF801E85FFE4FDA
:107C800080830F5F1F4F80910802909109020817AF
:107C9000190788F30E94763C803209F045CF809125
:107CA0000C0280FF01C16091060170910701660F0F
:107CB000771F7093070160930601A0910802B091AD
:107CC00009021097C9F0E8E0F1E09B01AD014E0F09
:107CD0005F1FF999FECF32BD21BD819180BDFA9A17
:107CE000F99A2F5F3F4FE417F50799F76A0F7B1F4B
:107CF00070930701609306018091C00085FFFCCF5F
:107D0000F092C6008091C00085FFFCCFB092C60003
:107D1000E1CE83E00E94C73CDDCE82E00E94C73CFA
:107D2000D9CE0E94763C809309020E94763C8093D3
:107D300008028091060190910701880F991F909386
:107D40000701809306010E94763C853409F4A6C0A1
:107D500080910C028E7F80930C020E94763C8032D0
:107D600009F0B8CE8091C00085FFFCCFF092C6002C
:107D7000609108027091090261157105B9F140E046
:107D800050E080910C02A82FA170B82FB27011C0E2
:107D9000BB2309F45CC0E0910601F0910701319624
:107DA000F0930701E09306014F5F5F4F46175707B7
:107DB000E8F4AA2369F3F999FECF209106013091E6
:107DC000070132BD21BDF89A90B58091C00085FFB2
:107DD000FCCF9093C6002F5F3F4F30930701209355
:107DE00006014F5F5F4F4617570718F38091C00099
:107DF00085FDE5CE8091C00085FFF8CFE0CE81E023
:107E00000E94C73C67CE0E94763C803209F08CCE3F
:107E10008091C00085FFFCCFF092C6008091C00029
:107E200085FFFCCFE092C6008091C00085FFFCCFAB
:107E3000D092C6008091C00085FFFCCFC092C600E2
:107E40008091C00085FFFCCFB092C60043CEE09188
:107E50000601F091070194918091C00085FFFCCF4D
:107E60009093C6009CCF80E10E94C73C33CE0E9415
:107E7000763C0E94763C182F0E94763C112309F430
:107E800083C0113009F484C08FE00E94C73C22CE29
:107E900080910C02816080930C02E5CE80910C02EF
:107EA000816080930C0259CF809107018823880F4D
:107EB000880B8A2180930B02809106019091070123
:107EC000880F991F90930701809306018091080203
:107ED00080FF09C080910802909109020196909359
:107EE000090280930802F894F999FECF1127E091D6
:107EF0000601F0910701C8E0D1E08091080290915D
:107F00000902103091F40091570001700130D9F34B
:107F100003E000935700E89500915700017001308D
:107F2000D9F301E100935700E89509901990009169
:107F3000570001700130D9F301E000935700E89534
:107F40001395103498F011270091570001700130FB
:107F5000D9F305E000935700E895009157000170B0
:107F60000130D9F301E100935700E895329602976A
:107F700009F0C7CF103011F00296E5CF112480919F
:107F8000C00085FFB9CEBCCE8EE10E94C73CA2CD19
:0E7F900085E90E94C73C9ECDF894FFCF80008B
:00000001FF
