:100000000C9435000C945D000C945D000C945D0024
:100010000C945D000C945D000C945D000C945D00EC
:100020000C945D000C945D000C945D000C945D00DC
:100030000C945D000C945D000C945D000C945D00CC
:100040000C94F7000C945D000C945D000C945D0022
:100050000C945D000C945D000C945D000C945D00AC
:100060000C945D000C945D00CC0111241FBECFEFF9
:10007000D8E0DEBFCDBF21E0A2E1B1E001C01D921A
:10008000AF31B207E1F711E0A0E0B1E0E2E9F8E05A
:1000900002C005900D92A231B107D9F710E0C5E377
:1000A000D0E004C02197FE010E944002C433D10772
:1000B000C9F70E9441010C9447040C9400005B9A1C
:1000C0008FE99FE00197F1F700C000005B98089569
:1000D000BF92CF92DF92EF92FF920F931F93CF9335
:1000E000DF93CDB7DEB76E970FB6F894DEBF0FBEC5
:1000F000CDBF7C01FC018481958100E110E0081BEB
:10010000190B169507958BB1837F8BB91127005C6E
:100110001F4F00688BB18F708BB99BB1802F807F90
:10012000892B8BB90E945F008BB18F708BB98BB11B
:1001300094E0000F111F9A95E1F7082B0BB90E946C
:100140005F008BB1837F8BB95A9ACE0101966C0107
:100150008EE1F60111928A95E9F7F7010481158184
:100160000F3F100771F00115110559F0F70160817B
:100170007181A801C6010E943804F601E00FF11F49
:100180001082B12C0B2D10E0F701848195810817A6
:100190001907E8F48BB18F708BB99BB10C0D1D1D45
:1001A000F8018081807F892B8BB90E945F008BB121
:1001B0008F708BB98BB1F8012081F0E12F02900193
:1001C0001124822B8BB90E945F00B394DBCF6E9613
:1001D0000FB6F894DEBF0FBECDBFDF91CF911F9158
:1001E0000F91FF90EF90DF90CF90BF9008951F92F6
:1001F0000F920FB60F9211242F933F938F939F93DB
:10020000AF93BF938091170190911801A0911901AC
:10021000B0911A013091160123E0230F2D3758F5C4
:100220000196A11DB11D2093160180931701909393
:100230001801A0931901B0931A01809112019091B5
:100240001301A0911401B09115010196A11DB11DDA
:100250008093120190931301A0931401B0931501A0
:10026000BF91AF919F918F913F912F910F900FBEB2
:100270000F901F90189526E8230F0296A11DB11D1F
:10028000D2CFCF93DF9300D000D000D0CDB7DEB770
:10029000789484B5826084BD84B5816084BD85B561
:1002A000826085BD85B5816085BD80916E0081606D
:1002B00080936E0010928100809181008260809313
:1002C0008100809181008160809381008091800015
:1002D0008160809380008091B10084608093B10040
:1002E0008091B00081608093B00080917A0084603A
:1002F00080937A0080917A00826080937A00809166
:100300007A00816080937A0080917A00806880937F
:100310007A001092C1001A8219821C821B821E82EE
:100320001D826CE070E090E080E00E946B0300971B
:10033000A9F09A8389832BE030E03C832B832D81C5
:100340003E81232B11F4FC0110822BE030E03E8330
:100350002D8366E071E00E9431040CC089819A818E
:10036000009711F00E94E2021A8219821E821D82F9
:100370001C821B82CE0101960E94680089819A81AD
:10038000009711F00E94E20200E010E00115110553
:10039000E9F30E940000FACF8AB18F638AB98BB16A
:1003A000837F8BB98BB18F708BB98BB18BB90E9466
:1003B0005F008BB18F708BB95D9A0E945F008BB12B
:1003C0008F708BB95D9A0E945F008BB18F708BB973
:1003D0005F9A0E945F008BB18F708BB98BB18BB924
:1003E0000E945F008BB18F708BB98BB1806F8BB91E
:1003F0000E945F008BB18F708BB98BB18BB90E945B
:100400005F008BB18F708BB98BB180668BB90C9408
:100410005F002F923F924F925F926F927F928F92E6
:100420009F92AF92BF92CF92DF92EF92FF920F9383
:100430001F93CF93DF93CDB7DEB7CA1BDB0B0FB68D
:10044000F894DEBF0FBECDBF09942A88398848884A
:100450005F846E847D848C849B84AA84B984C884E0
:10046000DF80EE80FD800C811B81AA81B981CE0FD7
:10047000D11D0FB6F894DEBF0FBECDBFED010895BC
:10048000EE0FFF1F0590F491E02D09940F931F9339
:10049000CF93DF938230910510F482E090E0E091F9
:1004A0001D01F0911E0130E020E0B0E0A0E03097A7
:1004B00099F42115310509F44AC0281B390B243061
:1004C0003105D8F58A819B816115710589F1FB01A0
:1004D00093838283FE0111C0408151810281138187
:1004E00048175907E0F04817590799F4109761F039
:1004F00012960C93129713961C933296CF01DF91AC
:10050000CF911F910F91089500931D0110931E012B
:10051000F4CF2115310551F04217530738F0A901E6
:10052000DB019A01BD01DF01F801C1CFEF01F9CF75
:1005300090931E0180931D01CDCFFE01E20FF31FAA
:10054000819391932250310939832883D7CF209109
:100550001B0130911C01232B41F4209102013091A9
:10056000030130931C0120931B0120910001309165
:1005700001012115310541F42DB73EB74091040129
:1005800050910501241B350BE0911B01F0911C01DA
:10059000E217F307A0F42E1B3F0B2817390778F05A
:1005A000AC014E5F5F4F2417350748F04E0F5F1FB9
:1005B00050931C0140931B01819391939FCFF0E0D6
:1005C000E0E09CCFCF93DF930097E9F0FC013297F6
:1005D00013821282A0911D01B0911E01ED0130E045
:1005E00020E01097A1F420813181820F931F209188
:1005F0001B0130911C012817390709F061C0F093E5
:100600001C01E0931B01DF91CF910895EA01CE1701
:10061000DF07E8F54A815B819E0141155105B1F77D
:10062000E901FB83EA8349915991C40FD51FEC1767
:10063000FD0761F4808191810296840F951FE90185
:1006400099838883828193819B838A83F0E0E0E0B1
:1006500012968D919C9113970097B9F52D913C912D
:100660001197CD010296820F931F20911B013091AB
:100670001C012817390739F6309751F510921E01E1
:1006800010921D01B0931C01A0931B01BCCFD3831A
:10069000C28340815181840F951FC817D90761F427
:1006A0004E5F5F4F88819981480F591F5183408366
:1006B0008A819B81938382832115310509F0B0CF14
:1006C000F0931E01E0931D019ECFFD01DC01C0CF20
:1006D00013821282D7CFB0E0A0E0E1E7F3E00C9400
:1006E0000B028C01009751F4CB010E9446028C0151
:1006F000C801CDB7DEB7E0E10C942702FC01E60F9C
:10070000F71F9C0122503109E217F30708F49DC03E
:10071000D901CD91DC911197C617D70798F0C53054
:10072000D10530F3CE0104978617970708F3C61B4F
:10073000D70B2297C193D1936D937C93CF010E94E5
:10074000E202D6CF5B01AC1ABD0A4C018C0E9D1E95
:10075000A0911D01B0911E01512C412CF12CE12CD6
:10076000109731F580911B0190911C018815990516
:1007700009F05CC04616570608F058C08091000189
:1007800090910101009741F48DB79EB7409104010B
:1007900050910501841B950BE817F90708F055C027
:1007A000F0931C01E0931B01F90171836083A0CFDA
:1007B0008D919C91119712966C90129713967C9044
:1007C0001397A815B90559F56C0142E0C40ED11C68
:1007D000CA14DB0420F1AC014A195B09DA01129654
:1007E000159780F06282738251834083D9016D93A3
:1007F0007C93E114F10471F0D7011396FC93EE930E
:10080000129776CF22968C0F9D1FF90191838083DA
:10081000F301EFCFF0931E01E0931D0169CF48165D
:10082000590608F42C017D01D3019ACFCB010E9417
:1008300046027C01009749F0AE01B8010E942804ED
:10084000C8010E94E202870153CF10E000E050CFC0
:10085000FB01DC0102C001900D9241505040D8F7DD
:100860000895FB01DC0101900D920020E1F708954D
:10087000FB01DC014150504048F001900D920020F6
:10088000C9F701C01D9241505040E0F70895F89417
:02089000FFCF98
:1008920000001F01800048656C6C6F20576F726CFE
:0208A2006400F0
:00000001FF
