:020000040000FA
:100000000C94F4000C941C010C941C010C941C0125
:100010000C941C010C941C010C941C010C941C01EC
:100020000C941C010C941C010C941C010C941C01DC
:100030000C941C010C941C010C941C010C941C01CC
:100040000C94400F0C941C010C940E0F0C94E80EB1
:100050000C941C010C941C010C941C010C941C01AC
:100060000C941C010C941C0108000000BE92244951
:10007000123EABAAAA2ABECDCCCC4C3E00000080DA
:10008000BEABAAAAAA3E00000000BF000000803F4D
:100090000000000000084178D3BB4387D1133D190D
:1000A0000E3CC3BD4282AD2B3E68EC8276BED98F3A
:1000B000E1A93E4C80EFFFBE01C4FF7F3F0000007E
:1000C000000007634236B79BD8A71A39685618AEA6
:1000D000BAAB558C1D3CB7CC5763BD6DEDFD753E7D
:1000E000F6177231BF000000803F00407A10F35ACB
:1000F00000A0724E18090010A5D4E80000E8764868
:10010000170000E40B54020000CA9A3B000000E113
:10011000F505000080969800000040420F000000A6
:10012000A08601000000102700000000E803000086
:1001300000006400000000000A0000000000010050
:10014000000000002C76D888DC674F0823DFC1DF71
:10015000AE59E1B1B796E5E3E453C63AE651997674
:1001600096E8E6C28426EB898C9B62ED407C6FFCAE
:10017000EFBC9C9F40F2BAA56FA5F490055A2AF7F0
:100180005C936B6CF9676DC11BFCE0E40D47FEF5F9
:1001900020E6B500D0ED902E030094357705008061
:1001A000841E080000204E0A000000C80C333333C0
:1001B000330F986E12831141EF8D2114893BE65560
:1001C00016CFFEE6DB18D1844B381BF77C1D901D43
:1001D000A4BBE424203284725E228100C9F124ECA5
:1001E000A1E53D27AA0F301311241FBECFEFD8E0A1
:1001F000DEBFCDBF24E0A6E6B2E001C01D92A93467
:10020000B207E1F712E0A0E0B1E0E8E7F8E302C0EE
:1002100005900D92A636B107D9F710E0C3EFD0E0F4
:1002200004C02197FE010E941F1AC23FD107C9F7DF
:100230000E940C110C942F1C0C9400004F925F92A2
:100240006F927F928F929F92AF92BF92EF92FF92A6
:100250000F931F93CF93DF93C4E6D3E0A7E6B3E0F9
:10026000AD01FE0191919E3008F09E509770906410
:1002700090937C0090917A00906490937A00909192
:100280007A0096FDFCCF9091780020917900322F72
:10029000292F2D933D934E175F0721F7811154C0ED
:1002A00009E314E08AE6E82E83E0F82E6B817C8176
:1002B000072E000C880B990B0E9405164B015C0160
:1002C000F80120813181428153810E946416A50189
:1002D00094010E94641627E137EB41ED58E30E9438
:1002E00064162B013C01F801248135814681578138
:1002F000C501B4010E9464162AE037ED43E25CE3D5
:100300000E9464169B01AC01C301B2010E945A17FE
:10031000F80120853185428553850E945A170E9435
:1003200038186F3F710519F014F06FEF70E077FF28
:1003300002C070E060E07C836B8322960C50110950
:10034000EC16FD0609F0B2CF87E693E0DF91CF917E
:100350001F910F91FF90EF90BF90AF909F908F9063
:100360007F906F905F904F9008950895AF92BF92E5
:10037000CF92DF92EF92FF920F931F93CF93DF9371
:100380006C017B018B01040F151FEB015E01AE18A0
:10039000BF08C017D10759F06991D601ED91FC91C2
:1003A0000190F081E02DC6010995892B79F7C501EF
:1003B000DF91CF911F910F91FF90EF90DF90CF9041
:1003C000BF90AF900895FC01538D448D252F30E0F0
:1003D000842F90E0821B930B541710F0CF96089552
:1003E00001970895FC01918D828D981761F0A28D7F
:1003F000AE0FBF2FB11D5D968C91928D9F5F9F7345
:10040000928F90E008958FEF9FEF0895FC01918DFA
:10041000828D981731F0828DE80FF11D858D90E067
:1004200008958FEF9FEF0895FC01918D228D892F04
:1004300090E0805C9F4F821B91098F7399270895EC
:1004400081E792E00E94140221E0892B09F420E068
:10045000822F089580E090E0892B29F00E942002ED
:1004600081110C9400000895FC01A48DA80FB92FF0
:10047000B11DA35ABF4F2C91848D90E001968F73CC
:100480009927848FA689B7892C93A089B1898C91EB
:10049000837080648C93938D848D981306C002883A
:1004A000F389E02D80818F7D80830895EF92FF9204
:1004B0000F931F93CF93DF93EC0181E0888F9B8D87
:1004C0008C8D98131AC0E889F989808185FF15C041
:1004D0009FB7F894EE89FF896083E889F989808164
:1004E0008370806480839FBF81E090E0DF91CF9133
:1004F0001F910F91FF90EF900895F62E0B8D10E055
:100500000F5F1F4F0F731127E02E8C8D8E110CC0C3
:100510000FB607FCFACFE889F989808185FFF5CF0E
:10052000CE010E943402F1CFEB8DEC0FFD2FF11DB7
:10053000E35AFF4FF0829FB7F8940B8FEA89FB894B
:1005400080818062CFCFCF93DF93EC01888D8823A9
:10055000B9F0AA89BB89E889F9898C9185FD03C026
:10056000808186FD0DC00FB607FCF7CF8C9185FF0B
:10057000F2CF808185FFEDCFCE010E943402E9CF1A
:10058000DF91CF9108953FB7F89480916B029091DD
:100590006C02A0916D02B0916E0226B5A89B05C0B9
:1005A0002F3F19F00196A11DB11D3FBFBA2FA92FF2
:1005B000982F8827BC01CD01620F711D811D911DEF
:1005C00042E0660F771F881F991F4A95D1F708955B
:1005D0008F929F92AF92BF92CF92DF92EF92FF9253
:1005E0004B015C010E94C3026B017C010E94C302AB
:1005F0006C197D098E099F09683E7340810591053C
:10060000A8F321E0821A9108A108B10888EEC80E6B
:1006100083E0D81EE11CF11C81149104A104B104F3
:1006200029F7FF90EF90DF90CF90BF90AF909F9011
:100630008F9008955B9A8FE99FE00197F1F700C0D2
:1006400000005B9808958BB1837F8BB98BB18F705D
:100650008BB98BB18BB90E941A038BB18F708BB998
:100660005C9A0C941A03CF93DF938BB1837F8BB981
:1006700080E4489FE0011124C60FD11DC0688BB1F2
:100680008F708BB99BB18C2F807F892B8BB90E9487
:100690001A038BB18F708BB96BB184E0CC0FDD1F67
:1006A0008A95E1F7C62BCBB9DF91CF910C941A0351
:1006B000FC0101900020E9F73197AF01481B590B6D
:1006C000BC0181E792E00C94B6018F929F92AF92A9
:1006D000BF920F931F93CF93DF93CDB7DEB7A19750
:1006E0000FB6F894DEBF0FBECDBF19A2423008F49A
:1006F0004AE08E010F5D1F4F842E912CB12CA12C4E
:10070000A50194010E94FD19E62FB901CA01EA3042
:10071000F4F4E05DD801EE938D01232B242B252BDF
:1007200079F790E080E0109719F0CD010E9458030E
:10073000A1960FB6F894DEBF0FBECDBFDF91CF916B
:100740001F910F91BF90AF909F908F900895E95C9B
:10075000E1CF0C9458034F925F926F927F928F92E9
:100760009F92AF92BF92CF92DF92EF92FF920F9340
:100770001F93CF936B017C01742EAC019B010E94EF
:100780001319882399F08FE391E0CF911F910F9176
:10079000FF90EF90DF90CF90BF90AF909F908F90A1
:1007A0007F906F905F904F900C94580346015701D3
:1007B000E894B7F82FEF3FEF4FE75FE7C501B401CB
:1007C0000E94131981110DC02FEF3FEF4FE75FE734
:1007D000C501B4010E94FE1518161CF483E491E0D3
:1007E000D4CF2FEF3FEF4FE75FE4C701B6010E9480
:1007F0006E1818161CF487E491E0C7CF2FEF3FEF77
:100800004FE75FECC701B6010E94FE1587FDF3CFED
:1008100020E030E0A901C701B6010E94FE1510E0FA
:1008200000E087FF0AC06DE281E792E00E94560275
:100830008C01F7FAF094F7F8F094C0E060E070E013
:1008400080E09FE37C1641F020E030E040E251E49C
:100850000E94C617CF5FF6CFA70196010E945A17D4
:100860002B013C010E943F184B015C014AE00E94B1
:1008700065037C01E00EF11ECC23C1F1C501B4017A
:100880000E9403169B01AC01C301B2010E945917DB
:100890004B015C016EE281E792E00E945602E80E95
:1008A000F91EC15018F120E030E040E251E4C501EA
:1008B000B4010E9464162B013C010E943F184B01B9
:1008C000B12CA12C4AE0C501B4010E946503E80ED9
:1008D000F91EC501B4010E9403169B01AC01C301BE
:1008E000B2010E9459174B015C01DBCFC701CF91C8
:1008F0001F910F91FF90EF90DF90CF90BF90AF903E
:100900009F908F907F906F905F904F9008954F923F
:100910005F926F927F928F929F92AF92BF92CF928F
:10092000DF92EF92FF921F93CF93DF93CDB7DEB7A5
:1009300060970FB6F894DEBF0FBECDBF162F9E0195
:100940002F5F3F4F690190E1F90111929A95E9F704
:1009500044E653E030E090E0891711F1DA0160E0FD
:1009600020E0E32EF12CEE0CFF1C1217A1F0F70192
:10097000E60FF11DEE0FFF1FEE0FFF1FEC0DFD1D2B
:1009800019968D909D90AD90BC901C97808291821D
:10099000A282B3826F5F2F5F1496233031F73F5FDF
:1009A0009F5F445F5F4F9330B9F6682F70E090E02F
:1009B00080E00E9403169B01AC0160E070E080E8DB
:1009C0009FEB0E94C3184B015C01612F70E090E027
:1009D00080E00E9403169B01AC0160E070E080E8BB
:1009E0009FEB0E94C3182B013C012D853E854F854E
:1009F000588969817A818B819C810E9464166B0180
:100A00007C0129853A854B855C856D817E818F814E
:100A100098850E9464169B01AC01C701B6010E9433
:100A200059176B017C01A3019201C501B4010E9419
:100A300064169B01AC01C701B6010E946416609662
:100A40000FB6F894DEBF0FBECDBFDF91CF911F91DF
:100A5000FF90EF90DF90CF90BF90AF909F908F90DE
:100A60007F906F905F904F900895FC0180819181FD
:100A7000009711F00C94561360E070E0CB010895DC
:100A8000FC0124813581232B39F421E0FB01808195
:100A9000882349F020E007C0808191810E94101CCA
:100AA00021E0892BB9F7822F08950F931F93CF93DD
:100AB000DF938C01EB01FC01808191810097E1F0D3
:100AC0006881798161157105A9F0428153812C817A
:100AD0003D814217530770F00E94191C8C819D8143
:100AE000F801958384831D821C82DF91CF911F9131
:100AF0000F9108950E94C11A88819981F80191830C
:100B000080838A819B81938382838C819D8195835D
:100B10008483198218821B821A82E5CFCF93DF93D8
:100B2000EC0188819981009711F00E94C11A198205
:100B300018821D821C821B821A82DF91CF91089538
:100B4000FC0180819181009711F00C94C11A0895E5
:100B50000F931F93CF93DF938C01EC01C85BDF4FA2
:100B60000C171D0729F02697CE010E94A005F8CF8B
:100B7000DF91CF911F910F9108950F931F93CF9302
:100B8000DF93EC0188819981009759F02A813B819C
:100B90002617370730F081E0DF91CF911F910F9139
:100BA00008958B016F5F7F4F0E944A1B009759F099
:100BB000998388831B830A832C813D81232B59F7DA
:100BC000FC011082E8CF80E0E7CFEF92FF920F9315
:100BD0001F93CF93DF936115710541F480E0DF919E
:100BE000CF911F910F91FF90EF90089541155105FE
:100BF000B1F07B01EC010C811D81040F151FB801C0
:100C00000E94BD05882351F3288139818C819D8103
:100C1000B701820F931F0E94191C1D830C8381E072
:100C2000DECFCF93DF93EC01FB0101900020E9F7C9
:100C30003197AF01461B570B0E94E505811103C098
:100C4000CE010E948E05CE01DF91CF910895CF9302
:100C5000DF93EC01FB0144815581608171810E9429
:100C6000E505811103C0CE010E948E05CE01DF9102
:100C7000CF910895EF92FF920F931F93CF93DF933D
:100C8000EC017B018A01BA010E94BD0581110BC0F4
:100C9000CE010E948E05CE01DF91CF911F910F9161
:100CA000FF90EF9008951D830C83B701888199818F
:100CB0000E94191CF0CFFB0101900020E9F7319749
:100CC000AF01461B570B0C943A060F931F93CF931B
:100CD000DF93CDB7DEB762970FB6F894DEBF0FBED5
:100CE000CDBF8C01CB01F8011182108213821282D8
:100CF000158214824AE0BE016F5F7F4F0E947D1310
:100D0000BE016F5F7F4FC8010E945B0662960FB6FF
:100D1000F894DEBF0FBECDBFDF91CF911F910F9131
:100D20000895FB01DC0111961C921E9213961C92F1
:100D30001E92129715961C921E921497861797076B
:100D400049F0608171816115710521F044815581FF
:100D50000C943A060895AF92BF92CF92DF92EF9231
:100D6000FF920F931F93CF93DF937C01EB016C01F4
:100D70005B0188E4A80EB11C10E000E0BE01600F2A
:100D8000711FC8018C0D9D1D0E9491060A5F1F4FA7
:100D90000231110599F7629682E1C80ED11CCA157D
:100DA000DB0551F78881F701E85BFF4F8083DF9116
:100DB000CF911F910F91FF90EF90DF90CF90BF9058
:100DC000AF9008950F931F93CF93DF93CDB7DEB706
:100DD00068970FB6F894DEBF0FBECDBF8C01FC0143
:100DE00060817181CE0101960E946506F8016281E1
:100DF0007381CE0107960E946506F80164817581B2
:100E0000CE0143960E946506BE016D5E7F4FCE0106
:100E10000D960E9491066BE471E0CE010D960E9442
:100E20001106BE01695F7F4F0E9427066BE471E0E7
:100E30000E941106BE016F5F7F4F0E942706FC01D2
:100E4000448155816081718181E792E00E94B60101
:100E50008DE491E00E945803CE010D960E94A005FA
:100E6000CE0143960E94A005CE0107960E94A005E0
:100E7000CE0101960E94A00568960FB6F894DEBFD9
:100E80000FBECDBFDF91CF911F910F910895FC014F
:100E9000118210821382128215821482FB0101904A
:100EA0000020E9F73197AF01461B570B0C943A0627
:100EB0009F92AF92BF92CF92DF92EF92FF920F93E9
:100EC0001F93CF93DF938C016B01942EAA24A394DC
:100ED000B12C7B0148E4E40EF11CD0E0C0E08BB102
:100EE0009E012C5F3F4FF50102C0EE0FFF1F2A95B8
:100EF000E2F78F708E2B8BB961E070E080E090E0BC
:100F00000E94E80263B170E033E0759567953A9509
:100F1000E1F76770F70160836623F1F170E090E01C
:100F200080E00E9403160E947B1828E132E741E32B
:100F30005FE30E94C6170E943F18F701608383B1E8
:100F400090E023E0959587952A95E1F7877099279A
:100F5000892BA9F78BB18F708BB9F701808192E152
:100F60009C9FB0019D9F700D1124F6E08F9F600D36
:100F7000711D11246C0D7D1DC8010E949106C801D0
:100F8000DF91CF911F910F91FF90EF90DF90CF9065
:100F9000BF90AF909F9008952196C430D10509F07D
:100FA0009ECF91109ACF6FE671E0C8010E9447076B
:100FB000E6CFBF92CF92DF92EF92FF920F931F93F3
:100FC000CF93DF93CDB7DEB76E970FB6F894DEBF41
:100FD0000FBECDBF6B018BB1837F8BB95A9ACE0107
:100FE00001967C018EE1F70111928A95E9F7FB01E8
:100FF000048115810F3F100771F00115110559F09B
:10100000FB0160817181A801C7010E94201CF701CA
:10101000E00FF11F1082B12C0B2D10E0F60184813E
:10102000958108171907E8F48BB18F708BB99BB1C4
:101030000E0D1F1DF8018081807F892B8BB90E94C6
:101040001A038BB18F708BB98BB1F8012081F0E15D
:101050002F0290011124822B8BB90E941A03B394A2
:10106000DBCF6E960FB6F894DEBF0FBECDBFDF911B
:10107000CF911F910F91FF90EF90DF90CF90BF9095
:1010800008950F931F93CF93DF9300D000D000D02B
:10109000CDB7DEB78C010E94230360E571E0CE017D
:1010A00001960E944707BE016F5F7F4F8EE093E07D
:1010B0000E94D907CE0101960E94A005F801648123
:1010C0007581CE0101960E946506BE016F5F7F4F5C
:1010D0008EE093E00E94D907CE0101960E94A00500
:1010E00040E068E08EE093E00E94330364E571E045
:1010F000CE0101960E944707BE016F5F7F4F8EE0D1
:1011000093E00E94D907CE0101960E94A005F80144
:1011100062817381CE0101960E946506BE016F5FF8
:101120007F4F8EE093E00E94D907CE0101960E9486
:10113000A00541E060E08EE093E00E94330368E5A3
:1011400071E0CE0101960E944707BE016F5F7F4F9D
:101150008EE093E00E94D907CE0101960E94A0057F
:10116000F80160817181CE0101960E946506BE0181
:101170006F5F7F4F8EE093E00E94D907CE0101960A
:101180000E94A00526960FB6F894DEBF0FBECDBF15
:10119000DF91CF911F910F9108958F929F92AF92FF
:1011A000BF92CF92DF92EF92FF920F931F93CF9354
:1011B000DF93CDB7DEB72C970FB6F894DEBF0FBE26
:1011C000CDBFF82EE62E6A016FE671E08EE093E067
:1011D0000E945B066FE671E0CE0107960E9447070A
:1011E00041E0B601CE0101960E945807BE016F5F33
:1011F0007F4FCE0107960E945505CE0101960E94B1
:10120000A0056CE571E0CE0107960E944005882399
:1012100009F470C08EE093E00E9435054B015C013B
:101220008FEF88169104A104B10409F00CF4EBC00F
:101230004E2D6F2D8EE093E00E94330310E08091DD
:101240001203909113031817190698F464E671E0DD
:10125000CE0101960E944707BE016F5F7F4F8EE06F
:1012600093E00E94D907CE0101960E94A0051F5F5E
:10127000E6CF4E2D6F2D8EE093E00E9433036EE596
:1012800071E0CE0101960E944707BE016F5F7F4F5C
:101290008EE093E00E94D907CE0101960E94A0053E
:1012A00064EF71E080E090E00E94E8024E2D6F2D27
:1012B0008EE093E00E94330362E671E0CE01019676
:1012C0000E944707BE016F5F7F4F8EE093E00E9450
:1012D000D907CE0101960E94A0054E2D6F2D8EE0FC
:1012E00093E00E9433036FE671E08EE093E00E948A
:1012F0005B0676CF66E671E0CE0107960E94400558
:10130000882309F465C0009112031091130301159D
:10131000110509F45DC06FE671E0CE0101960E94EF
:1013200047078091120390911303009709F1015030
:1013300011098017910708F48C01E0910E03F091D8
:101340000F03E00FF11FB080108260910E037091C7
:101350000F03CE01019661157105B9F10E945B067C
:1013600080910E0390910F03080F191FF801B082AE
:10137000BE016F5F7F4F8EE093E00E945505CE0166
:1013800001960E94A005609112036F0D4E2D8EE014
:1013900093E00E94330364E671E0CE0101960E945F
:1013A0004707BE016F5F7F4F8EE093E00E94D90731
:1013B000CE0101960E94A005609112036F0D4E2D83
:1013C0008EE093E00E9433030BCF0E948E05C8CFBE
:1013D0004B855C856F8178858EE093E00E94E50502
:1013E000BE01695F7F4FCE0101960E949106BE014A
:1013F0006F5F7F4F8EE093E00E94D907CE01019688
:101400000E94A005EDCECE0107960E94A005C40162
:101410002C960FB6F894DEBF0FBECDBFDF91CF91F3
:101420001F910F91FF90EF90DF90CF90BF90AF9002
:101430009F908F9008959F92AF92BF92CF92DF922C
:10144000EF92FF920F931F93CF93DF93CDB7DEB749
:10145000C954D1090FB6F894DEBF0FBECDBF8C01C1
:101460000E9423038BB18F708BB98BB18BB90E9413
:101470001A038BB18F708BB98BB1806F8BB90E94BF
:101480001A0340E060E08EE093E00E94330360E5E1
:1014900071E0CE0101960E944707BE016F5F7F4F4A
:1014A0008EE093E00E94D907CE0101960E94A0052C
:1014B000B801CE0101960E94AB06AE014F5F5F4FAF
:1014C00060E083E00E94CD0890931503809314039D
:1014D000CE0101960E94A80540E068E08EE093E00E
:1014E0000E94330364E571E0CE0101960E94470734
:1014F000BE016F5F7F4F8EE093E00E94D907CE015F
:1015000001960E94A005B801CE0101960E94AB068B
:10151000AE014F5F5F4F60E08BE00E94CD0890937B
:10152000170380931603CE0101960E94A80541E09F
:1015300060E08EE093E00E94330368E571E0CE0145
:1015400001960E944707BE016F5F7F4F8EE093E0D8
:101550000E94D907CE0101960E94A005B801CE01D4
:1015600001960E94AB06AE014F5F5F4F61E083E0E2
:101570000E94CD089093190380931803CE01019621
:101580000E94A8058BB18F708BB98BB18BB90E946B
:101590001A038BB18F708BB98BB1806C8BB90E94A1
:1015A0001A0341E068E08EE093E00E94330368E6AE
:1015B00071E0CE0101960E944707BE016F5F7F4F29
:1015C0008EE093E00E94D907CE0101960E94A0050B
:1015D00094E1A92E93E0B92E912CF501C190D19000
:1015E0005F010D2C000CEE08FF084AE0C701B601B0
:1015F000F7FE0DC06DE281E792E00E945602662779
:101600007727CB016C197D098E099F094AE00E945A
:101610006503F2E08BE491E09F1202C08DE491E05B
:101620000E94A903939483E09812D7CF40E0B801B9
:10163000CE0101960E9458076FE671E0CE01019637
:101640000E944005F82ECE0101960E94A005FF20C1
:10165000E9F084E1C82E83E0D82EF12C85B18C7F8F
:101660008F2985B9F601819191916F019927909306
:101670008B0080938A0064E670E080E090E00E9436
:10168000E802F394F3E0FF12E9CFD0CF0E942303E6
:1016900084E193E0C75BDF4F0FB6F894DEBF0FBE67
:1016A000CDBFDF91CF911F910F91FF90EF90DF9011
:1016B000CF90BF90AF909F900895EF92FF920F93BD
:1016C0001F93CF93DF9300D000D000D0CDB7DEB70B
:1016D0008C017B01413009F1422F60E0C8010E947A
:1016E0003303B701CE0101960E949106BE016F5FE0
:1016F0007F4FC8010E94D907CE0101960E94A00524
:1017000026960FB6F894DEBF0FBECDBFDF91CF9106
:101710001F910F91FF90EF900895FB0184819581B7
:1017200060E170E0681B790B76956795422FD6CF04
:101730002F923F924F925F926F927F928F929F92E1
:10174000AF92BF92CF92DF92EF92FF920F931F93CF
:10175000CF93DF93CDB7DEB7CD54D1090FB6F89450
:10176000DEBF0FBECDBF5C014B0181E294E02E963F
:101770009FAF8EAF2E97FC011082118212821382CE
:10178000148215821682178210861186128613869D
:101790003C9694E0E534F90779F7439A94E6C92E2C
:1017A00093E0D92EDE0111967D01F60165A576A59F
:1017B00087A590A91EA21DA218A61FA21AA619A647
:1017C000870122E044E00E943813009709F487C0A3
:1017D000BC01CE0185960E945B0666E771E0CE01F2
:1017E000C1960E944707BE016B5D7F4FCE01C19637
:1017F0000E942706BC01C7010E94910620E040E03C
:10180000B701C5010E945D0BC7010E94A005CE0172
:10181000C1960E94A005CE0185960E94A00540E0D9
:10182000B401C7010E94580766E671E0C7010E9433
:101830004005182FC7010E94A00581E0111154C076
:101840000E941E0160916B0370916C03CE0185961E
:101850000E9465066091690370916A03CE01C1968A
:101860000E9465066091670370916803CE01CD9672
:101870000E946506BE01635C7F4FCE01C7960E9441
:10188000910663E771E0CE01C7960E941106BE0182
:101890006F5C7F4F0E94270663E771E00E9411068C
:1018A000BE016B5D7F4F0E942706BC01C7010E94ED
:1018B000910621E040E0B701C5010E945D0BC70120
:1018C0000E94A005CE01C7960E94A005CE01CD962C
:1018D0000E94A005CE01C1960E94A0059CCFCE011A
:1018E00085960E948E0579CF0E941E016091670344
:1018F00070916803072E000C880B990B0E94051647
:1019000020E030E048EC52E40E94C617D601D99698
:101910006D937D938D939C93DC9760916903709197
:101920006A03072E000C880B990B0E94051620E015
:1019300030E048EC52E40E94C617F60165AB76AB86
:1019400087AB90AF60916B0370916C03072E000C16
:10195000880B990B0E94051620E030E048EC52E419
:101960000E94C617D601D1966D937D938D939C935B
:10197000D497B0E1CB0ED11CE4EFCE16E3E0DE0647
:1019800009F013CF439884E2D7011D928A95E9F7B5
:1019900084E0282E312C01E913E0C12CD12C7601F2
:1019A00046015701D8018D919D910D90BC91A02DBC
:1019B00027968CAF9DAFAEAFBFAF2797F801E20D72
:1019C000F31D4080518062807380A3019201BC01AD
:1019D000CD010E9464169B01AC01C501B4010E94B7
:1019E0005A174B015C01A3019201C301B2010E948D
:1019F000641627962CAD3DAD4EAD5FAD27970E9486
:101A000064169B01AC01C701B6010E945A176B0115
:101A10007C01005F1F4FB4E001321B0719F680E024
:101A200090E0A0E9B4E48DA39EA3AFA3B8A789A6D4
:101A30009AA6ABA6BCA6CDA6DEA6EFA6F8AA810103
:101A40000C591C4F99E028969FAF28972C961CAEF6
:101A50001DAE1EAE1FAE2C9727961CAE1DAE1EAE41
:101A60001FAE2797C12CD12C760146015701D80112
:101A70009D964D905D906D907C90D097A3019201C2
:101A8000C501B4010E945A174B015C01A3019201E8
:101A9000C301B2010E9464169B01AC01C701B601EB
:101AA0000E945A176B017C0120E030E040E450E4D2
:101AB000C301B2010E94C3189B01AC0127966CAD13
:101AC0007DAD8EAD9FAD27970E945A1727966CAFBC
:101AD0007DAF8EAF9FAF279720E030E040E850E425
:101AE000C301B2010E94C3189B01AC012C966CADDE
:101AF0007DAD8EAD9FAD2C970E945A172C966CAF82
:101B00007DAF8EAF9FAF2C972896BFAD2897B15071
:101B10002896BFAF2897005F1F4FB111A8CFC09282
:101B20006D03D0926E03E0926F03F0927003809287
:101B3000710390927203A0927303B092740380E0D9
:101B400090E0A0E1B1E48093750390937603A093B5
:101B50007703B093780327968CAD9DADAEADBFAD46
:101B600027978093790390937A03A0937B03B09394
:101B70007C03C0927D03D0927E03E0927F03F092BB
:101B800080038092810390928203A0928303B0929B
:101B900084032C968CAD9DADAEADBFAD2C978093DC
:101BA000850390938603A0938703B09388032796B9
:101BB0008CAD9DADAEADBFAD27978093890390935B
:101BC0008A03A0938B03B0938C03C0928D03D092B1
:101BD0008E03E0928F03F092900360E080E00E9419
:101BE0008704A70196010E9464166B017C0161E0E5
:101BF00080E00E948704A50194010E946416A70159
:101C000096010E945A176B017C0162E080E00E94FD
:101C1000870420E030E040E151E40E946416A7010F
:101C200096010E945A172B013C01DE0111967D019D
:101C30006D0110E0560100E0612F802F0E948704A3
:101C4000A30192010E94C617F501619371938193DC
:101C500091935F010F5F033079F71F5FFCE0CF0EB8
:101C6000D11C133039F72E96AEACBFAC2E97D501F0
:101C70004D905D906D907D905D014E01B5E28B0EB3
:101C8000911CD12CC12CF4016191719181919191A0
:101C90004F01F701EC0DFD1D2081318142815381FF
:101CA0000E9464169B01AC01C301B2010E945A1745
:101CB0002B013C01F4E0CF0ED11C8CE0C816D104FE
:101CC00011F7F5013497408251826282738211507C
:101CD0009CE0E90EF11C1111CACF2E96AEADBFAD3E
:101CE0002E971C962E96BFAFAEAF2E97B4E02B0E5C
:101CF000311CE0E12E16310409F04DCE82E891E06E
:101D00000E94A90310E000E0C8018F5D9B4F6C01A9
:101D1000F12CD6016D917D918D919D916D0142E0E7
:101D20000E94AB03B2E08EE491E0FB1611F08EE668
:101D300091E00E94A903F394E3E0FE12EACF045F6E
:101D40001F4F0432110501F782EB91E00E94A903B5
:101D500010E000E083EE91E00E94A903C8018F56D5
:101D60009C4F6C01F12CD6016D917D918D919D91CF
:101D70006D0142E00E94AB03B3E080E791E0FB1607
:101D800011F083E791E00E94A903F394E4E0FE12CE
:101D9000EACF005F1F4F00391105E1F6C35BDF4F4B
:101DA0000FB6F894DEBF0FBECDBFDF91CF911F916C
:101DB0000F91FF90EF90DF90CF90BF90AF909F90EA
:101DC0008F907F906F905F904F903F902F900895ED
:101DD0001F920F920FB60F9211242F933F934F93A0
:101DE0005F936F937F938F939F93AF93BF93EF9383
:101DF000FF9381E792E00E943402FF91EF91BF913F
:101E0000AF919F918F917F916F915F914F913F9192
:101E10002F910F900FBE0F901F9018951F920F9249
:101E20000FB60F9211242F938F939F93EF93FF93ED
:101E3000E0918102F09182028081E0918702F0912D
:101E4000880282FD1BC0908180918A028F5F8F7310
:101E500020918B02821741F0E0918A02F0E0EF5866
:101E6000FD4F958F80938A02FF91EF919F918F9103
:101E70002F910F900FBE0F901F9018958081F4CF77
:101E80001F920F920FB60F9211242F933F938F93AF
:101E90009F93AF93BF938091670290916802A09146
:101EA0006902B0916A023091660223E0230F2D3758
:101EB00058F50196A11DB11D20936602809367021B
:101EC00090936802A0936902B0936A0280916B02BA
:101ED00090916C02A0916D02B0916E020196A11DCD
:101EE000B11D80936B0290936C02A0936D02B0932E
:101EF0006E02BF91AF919F918F913F912F910F9063
:101F00000FBE0F901F90189526E8230F0296A11D73
:101F1000B11DD2CFE1E8F0E08081886080838081CC
:101F20008F7E8083A0E8B0E08C9181608C938C914F
:101F30008D7F8C938C9180628C938C918F7E8C930F
:101F400080818160808380818D7F808380818B7F91
:101F5000808308951F93CF93DF93E1E7F2E013822C
:101F6000128288EE93E0A0E0B0E084839583A6839C
:101F7000B78381E391E09183808385EC90E095873E
:101F8000848784EC90E09787868780EC90E0918B43
:101F9000808B81EC90E0938B828B82EC90E0958B30
:101FA000848B86EC90E0978B868B118E128E138E2D
:101FB000148EC4E6D3E0188219821A8216E0E7E68E
:101FC000F3E0DF01812F1D928A95E9F7EDE6F3E05A
:101FD00084E2DF011D928A95E9F7E1E9F3E080E907
:101FE000DF011D928A95E9F780E090E0A8EFB1E467
:101FF0008093A1039093A203A093A303B093A4039F
:1020000080E090E0ACE7B2E48093B1039093B20338
:10201000A093B303B093B40380E090E0AEEBB2E4DE
:102020008093C1039093C203A093C303B093C403EE
:1020300080E090E0AEEFB2E48093D1039093D203BE
:10204000A093D303B093D40380E090E0AFE1B3E476
:102050008093E1039093E203A093E303B093E4033E
:1020600080E090E0AFE3B3E48093F1039093F20358
:10207000A093F303B093F40380E090E0AFE5B3E402
:102080008093010490930204A0930304B09304048A
:1020900080E090E0AFE7B3E48093110490931204E2
:1020A000A0931304B093140484E2E9E0F1E0A1E208
:1020B000B4E001900D928A95E1F73B9AE0E0F1E0FF
:1020C000808188838181898382818A8365EE71E042
:1020D0008BE193E00E94470767EE71E081E293E0B5
:1020E0000E94470769EE71E087E293E00E9447078C
:1020F0006BEE71E08DE293E00E9447076DEE71E0B8
:1021000083E393E00E9447076FEE71E089E393E079
:102110000E94470761EF71E08FE393E00E94470759
:1021200063EF71E085E493E00E94470765EF71E09B
:102130008BE493E00E9447076CE571E081E593E052
:102140000E94470767EF71E087E593E00E94470729
:1021500066E671E08DE593E00E9447071092630305
:102160008AB1806F8AB984B1877C84B984B1876071
:1021700084B90E948A0F6FE671E08EE093E00E94BE
:102180004707E4E1F3E0DF011D921A95E9F784B116
:10219000876084B90E948A0F8AB18F638AB98BB134
:1021A000837F8BB98BB18F708BB98BB18BB90E9448
:1021B0001A038BB18F708BB95D9A0E941A038BB191
:1021C0008F708BB95D9A0E941A038BB18F708BB997
:1021D0005F9A0E941A038BB18F708BB98BB18BB948
:1021E0000E941A038BB18F708BB98BB1806C8BB945
:1021F0000E941A038BB18F708BB98BB18BB90E947F
:102200001A038BB18F708BB98BB180668BB9DF915C
:10221000CF911F910C941A03CF93DF93CDB7DEB704
:10222000C655D1090FB6F894DEBF0FBECDBF789466
:1022300084B5826084BD84B5816084BD85B58260CB
:1022400085BD85B5816085BD80916E00816080937C
:102250006E001092810080918100826080938100E5
:1022600080918100816080938100809180008160F5
:10227000809380008091B10084608093B100809150
:10228000B00081608093B00080917A008460809378
:102290007A0080917A00826080937A0080917A003F
:1022A000816080937A0080917A00806880937A00C0
:1022B0001092C100E0918102F091820282E080835D
:1022C000E0917D02F0917E021082E0917F02F09118
:1022D00080028FEC808310928902E0918502F09158
:1022E000860286E08083E0918302F09184028081FF
:1022F00080618083E0918302F09184028081886014
:102300008083E0918302F0918402808180688083E1
:10231000E0918302F091840280818F7D808369EF58
:1023200071E0CE0101960E94470720E041E0BE0126
:102330006F5F7F4F8EE093E00E945D0BCE010196B0
:102340000E94A00564E072E0CE0101960E9447075A
:1023500021E041E0BE016F5F7F4F8EE093E00E947D
:102360005D0BCE0101960E94A00564EF71E080E054
:1023700090E00E94E8028AE490E08C0F9D1F069690
:102380005C0100E010E00E94230365E172E0CE01F1
:1023900001960E94470720E041E0BE016F5F7F4F3A
:1023A0008EE093E00E945D0BCE0101960E94A00595
:1023B0006FE172E0CE0101960E94470721E040E004
:1023C000BE016F5F7F4F8EE093E00E945D0BCE01F8
:1023D00001960E94A00541E06BE173E0CE010196F9
:1023E0000E945807CE0101960E9435056B017C01C1
:1023F000CE0101960E94A00591E0C916D104E10426
:10240000F10499F082E0C816D104E104F10409F462
:10241000A5C00115110509F4B6CF0E94200288233A
:1024200009F4B1CF0E940000AECF0E9423036FE2F7
:1024300072E0CE0101960E94470720E040E0BE0115
:102440006F5F7F4F8EE093E00E945D0BCE0101969F
:102450000E94A0056BE372E0CE0101960E9447073F
:1024600021E040E0BE016F5F7F4F8EE093E00E946D
:102470005D0BCE0101960E94A00541E06BE173E087
:10248000CE0101960E945807CE0101960E943505A3
:102490006B017C01CE0101960E94A00591E0C91656
:1024A000D104E104F10499F182E0C816D104E104F9
:1024B000F10409F0AECF439A40E06BE173E0CE0146
:1024C00001960E9458076FE671E0CE0101960E94C6
:1024D0004005F82ECE0101960E94A005FF2009F4C8
:1024E000BDC080E00E941E019093700280936F0235
:1024F0000E94410880916F02909170020E94E20652
:1025000068EC70E080E090E00E94E802D5CF6BE1DB
:1025100073E0CE0101960E94AB066EE073E0CE013F
:10252000865B9F4F0E94910686E0E4E1F3E0D501CF
:1025300001900D928A95E1F7BE016F5F7F4FCE014A
:10254000865B9F4F0E94980BCE01865B9F4F0E9437
:10255000A005CE0101960E94A8055BCF0E9423032F
:1025600069E472E0CE0101960E94470720E040E056
:10257000BE016F5F7F4F8EE093E00E945D0BCE0146
:1025800001960E94A00568E572E0CE0101960E94C6
:10259000470721E040E0BE016F5F7F4F8EE093E090
:1025A0000E945D0BCE0101960E94A00541E06BE107
:1025B00073E0CE0101960E945807CE0101960E9459
:1025C00035056B017C01CE0101960E94A00591E0CA
:1025D000C916D104E104F10491F182E0C816D104D6
:1025E000E104F10409F015CF439A40E06BE173E098
:1025F000CE0101960E9458076FE671E0CE01019668
:102600000E944005F82ECE0101960E94A005FF20F1
:1026100029F180E00E941E019093700280936F0266
:102620000E94410880916F02909170020E94E20620
:1026300064E170E080E090E00E94E802D6CF6BE1B8
:1026400073E0CE0101960E94AB06CE0101960E9476
:102650001B0A9093700280936F027BCF4398D9CE70
:102660008EE093E00E94A0058BE193E00C94A80516
:10267000EF920F931F93CF93DF93E80134E047FD70
:1026800034E1042E000C550B57FF03C051954195C2
:102690005109E32E022F242FAE010E94B713CE0161
:1026A000DF91CF911F910F91EF9008951F93FC013F
:1026B00099278827BC01E89411911032E9F3193069
:1026C00010F01E30C8F31B3251F01D3249F46894EB
:1026D00006C00E948813610F711D811D911D11910B
:1026E00010531A30B0F33EF4909580957095619533
:1026F0007F4F8F4F9F4F1F910895BB274A3031F472
:10270000992322F4BDE2909581959F4F0C949E13DE
:10271000592F482F372F262F660F771F881F991F95
:10272000660F771F881F991F620F731F841F951FE5
:10273000660F771F881F991F0895BB27FB01552738
:10274000AA27880F991FAA1FA41710F0A41B83950E
:102750005051B9F7A05DAA3308F0A95DA193009785
:1027600079F7B111B1931192CB010C94EE15A9E058
:10277000B0E0EDEBF3E10C9428176A01F22EB02ED5
:10278000102FFBE3AF2EA01608F41BE31F5F012FF1
:1027900027E0AE014F5F5F4F0E941615BC01898193
:1027A000982F9970913009F43FC09BE2E1FC04C07E
:1027B0009E2D9170E0FC3AC05E2D5071E82FE870BC
:1027C00083FF46C084E0911101C083E0EF2DE81B38
:1027D0008F1508F0E0E0D6018E2F20E2552351F14D
:1027E000992329F0D6019C93C60101966C019601AC
:1027F0002D5F3F4FE2FE24C08EE4D6018C9391E41E
:1028000011969C93119712968C93D9018E2F90E27A
:1028100081111BC0E20FF32FF11D10828EEF9FEF8D
:102820002996ECE00C9444179DE2C6CF90E2C4CF09
:102830002D9381508111FCCFCE0ED11CE0E0D0CF82
:102840008EE6D6018C9391E6DBCF9D938150E0CF4D
:10285000482F447082FF3DC084E0911101C083E0A5
:102860008F1510F4EF2DE81BD6018E2F20E2552393
:1028700009F1992329F0D6019C93C60101966C01B8
:1028800096012D5F3F4FE2FE1BC089E4D6018C9379
:102890008EE411968C93119786E412968C93D9014D
:1028A0008E2F90E2882309F4B5CF9D938150FACF03
:1028B0002D9381508111FCCFCE0ED11CE0E0D9CFF9
:1028C00089E6D6018C938EE611968C93119786E655
:1028D000E4CF9B0177FF02C030E020E0A1E0B0E050
:1028E000911102C0B0E0A0E0F9013196AE0FBF1F18
:1028F0008B2C912CBB2009F461C05401EFEFAE1A70
:10290000BE0AAA0DBB1DFA161B0619F014F04F2DB6
:102910004A1B511188C0E3FC59C07601A42FB0E2D4
:10292000A1114FC0C40ED11C992309F45BC040E033
:10293000D6011196F60190836D01552309F448C024
:10294000012F060F9A81582F507184FF03C09133D5
:1029500009F4015010160CF047C0093008F008E0E7
:10296000EEE2FE2E5B01A01AB108850191948194DC
:1029700091082F3F320729F4D601FC92F6013196D7
:102980006F016217730794F1021713077CF5DB01DF
:10299000A21BB30BAA24A394B12CAC0EBD1EAA0D8E
:1029A000BB1D11968C9121503109D6011196281525
:1029B0003905F4F0F60180836D01DBCFB12CA12C39
:1029C000A0CFF701B1937F01A150AACF9111B0CF51
:1029D000D601942F50E302C05D9391509111FCCF2A
:1029E000C40ED11C40E0ACCF01E0BACF80E3DBCF16
:1029F0006217730731F4963388F4953311F4552335
:102A000069F0F6018083FD01842F90E2811108C0F6
:102A1000A40FB11D1C9290E080E002CF81E3F1CFC2
:102A200091938150F3CF911183CF8ACF283008F052
:102A300027E03327DA01990F311D87FD9160009659
:102A40006105710539F432602E5F3D9330E32A95BC
:102A5000E1F708959F3F30F080387105610509F076
:102A60003C5F3C5F3D93913008F08068911DDF939F
:102A7000CF931F930F93FF92EF92192F987F969504
:102A8000E92F96959695E90FFF27EC5BFE4F992766
:102A90003327EE24FF24A701E7010590089407944B
:102AA00028F4360FE71EF81E491F511D660F771FC9
:102AB000881F991F0694A1F70590079428F4E70E44
:102AC000F81E491F561FC11D770F881F991F661FCB
:102AD0000694A1F70590079428F4F80E491F561F95
:102AE000C71FD11D880F991F661F771F0694A1F776
:102AF0000590079420F4490F561FC71FD81F990F40
:102B0000661F771F881F0694A9F784911095177088
:102B100041F0D695C79557954795F794E7941A9540
:102B2000C1F7EAEEF0E06894159015913591659142
:102B3000959105907FE27395E118F10A430B560BCE
:102B4000C90BD009C0F7E10CF11E431F561FC91F66
:102B5000D01D7EF4703311F48A95E6CFE8940150CD
:102B600030F0080F0AF40027021708F4202F2395ED
:102B7000022F7A3328F079E37D932A95E9F710C084
:102B80007D932A9589F606949795679537951795BD
:102B90001794E118F10A430B560BC90BD00998F0B2
:102BA00023957E9173957A3308F070E37C9320131C
:102BB000B8F77E9170617D9330F0839571E37D93DA
:102BC00070E32A95E1F71124EF90FF900F911F9188
:102BD000CF91DF91992787FD90950895DC01FC0145
:102BE000672F71917723E1F7329704C07C916D9341
:102BF00070836291AE17BF07C8F308950E94401614
:102C000008F481E00895E89409C097FB3EF490959C
:102C10008095709561957F4F8F4F9F4F9923A9F0B5
:102C2000F92F96E9BB279395F69587957795679544
:102C3000B795F111F8CFFAF4BB0F11F460FF1BC088
:102C40006F5F7F4F8F4F9F4F16C0882311F096E91B
:102C500011C0772321F09EE8872F762F05C06623C9
:102C600071F096E8862F70E060E02AF09A95660F82
:102C7000771F881FDAF7880F9695879597F908953B
:102C8000990F0008550FAA0BE0E8FEEF161617067D
:102C9000E807F907C0F012161306E407F50798F0E5
:102CA000621B730B840B950B39F40A2661F0232BFE
:102CB000242B252B21F408950A2609F4A140A6957A
:102CC0008FEF811D811D08950E9477160C94E816E0
:102CD0000E94DA1638F00E94E11620F0952311F0D8
:102CE0000C94D1160C94D71611240C941C170E9426
:102CF000F91670F3959FC1F3950F50E0551F629F31
:102D0000F001729FBB27F00DB11D639FAA27F00D44
:102D1000B11DAA1F649F6627B00DA11D661F829F6B
:102D20002227B00DA11D621F739FB00DA11D621F50
:102D3000839FA00D611D221F749F3327A00D611D6D
:102D4000231F849F600D211D822F762F6A2F11244F
:102D50009F5750409AF0F1F088234AF0EE0FFF1F82
:102D6000BB1F661F771F881F91505040A9F79E3FD9
:102D7000510580F00C94D1160C941C175F3FE4F3BE
:102D8000983ED4F3869577956795B795F795E7952F
:102D90009F5FC1F7FE2B880F911D9695879597F938
:102DA000089597F99F6780E870E060E008959FEFCD
:102DB00080EC089500240A941616170618060906D2
:102DC000089500240A9412161306140605060895A1
:102DD000092E0394000C11F4882352F0BB0F40F429
:102DE000BF2B11F460FF04C06F5F7F4F8F4F9F4F69
:102DF000089557FD9058440F551F59F05F3F71F0EB
:102E00004795880F97FB991F61F09F3F79F0879551
:102E10000895121613061406551FF2CF4695F1DFDA
:102E200008C0161617061806991FF1CF869571056A
:102E3000610508940895E894BB2766277727CB019E
:102E400097F908952F923F924F925F926F927F92DF
:102E50008F929F92AF92BF92CF92DF92EF92FF92AA
:102E60000F931F93CF93DF93CDB7DEB7CA1BDB0B56
:102E70000FB6F894DEBF0FBECDBF09942A883988FB
:102E800048885F846E847D848C849B84AA84B98402
:102E9000C884DF80EE80FD800C811B81AA81B9810E
:102EA000CE0FD11D0FB6F894DEBF0FBECDBFED0122
:102EB00008955058BB27AA270E9471170C94E81652
:102EC0000E94DA1638F00E94E11620F039F49F3F94
:102ED00019F426F40C94D7160EF4E095E7FB0C9445
:102EE000D116E92F0E94F91658F3BA176207730733
:102EF0008407950720F079F4A6F50C941B170EF4BF
:102F0000E0950B2EBA2FA02D0B01B90190010C01F9
:102F1000CA01A0011124FF27591B99F0593F50F411
:102F2000503E68F11A16F040A22F232F342F442769
:102F3000585FF3CF469537952795A795F040539561
:102F4000C9F77EF41F16BA0B620B730B840BBAF031
:102F50009150A1F0FF0FBB1F661F771F881FC2F79C
:102F60000EC0BA0F621F731F841F48F487957795B0
:102F70006795B795F7959E3F08F0B0CF9395880F6A
:102F800008F09927EE0F9795879508950E94DA1714
:102F90000C94E8160E94E11658F00E94DA1640F0F0
:102FA00029F45F3F29F00C94D11651110C941C1791
:102FB0000C94D7160E94F91668F39923B1F35523A0
:102FC00091F3951B550BBB27AA276217730784073C
:102FD00038F09F5F5F4F220F331F441FAA1FA9F3D2
:102FE00035D00E2E3AF0E0E832D091505040E695C0
:102FF000001CCAF72BD0FE2F29D0660F771F881F21
:10300000BB1F261737074807AB07B0E809F0BB0B13
:10301000802DBF01FF2793585F4F3AF09E3F510527
:1030200078F00C94D1160C941C175F3FE4F3983E93
:10303000D4F3869577956795B795F7959F5FC9F710
:10304000880F911D9695879597F90895E1E0660F91
:10305000771F881FBB1F621773078407BA0720F00A
:10306000621B730B840BBA0BEE1F88F7E095089573
:103070000E943F186894B1110C941C1708950E9487
:10308000011788F09F5798F0B92F9927B751B0F0E2
:10309000E1F0660F771F881F991F1AF0BA95C9F7DC
:1030A00014C0B13091F00E941B17B1E008950C9448
:1030B0001B17672F782F8827B85F39F0B93FCCF3FB
:1030C000869577956795B395D9F73EF49095809559
:1030D000709561957F4F8F4F9F4F08950E944016C6
:1030E00008F48FEF089516F00C9452190C94D7162B
:1030F00068940C94D1160E940117A8F39923C1F388
:10310000AEF3DF93CF931F930F93FF92C92FDD2769
:1031100088232AF02197660F771F881FDAF720E0AF
:1031200030E040E85FEB9FE3883920F0803E38F0E4
:1031300021968F770E945A17E8E6F0E004C00E94BB
:103140005A17E5E9F0E00E9460198B01BE01EC011D
:10315000FB2E6F5771097595771F880B990B0E948D
:10316000051628E132E741E35FE30E947716AF2DB1
:103170009801AE01FF900F911F91CF91DF910E94B6
:1031800071170C94E816FA01EE0FFF1F3096210517
:103190003105A1F16115710561F48038BFE39B072A
:1031A00049F168949038810561F08038BFEF9B0742
:1031B00041F099234AF5FF3FE1053105210519F159
:1031C000E8940894E795D901AA2329F4AB2FBE2FE0
:1031D000F85FD0F310C0FF5F70F4A695E0F7F73901
:1031E00050F019F0FF3A38F49F779F930DD00F906D
:1031F00007FC9058089546F00C94D71660E070E0F4
:1032000080E89FE308954FE79F775F934F933F9345
:103210002F930E947B182F913F914F915F910E94B5
:1032200064160C9420190E944016880B990B08957F
:1032300029F416F00C94D1160C941B170C94D71685
:103240000E940117A8F39638A0F707F80F92E894A8
:103250002BE33AEA48EB5FE70E947A160F920F924F
:103260000F924DB75EB70F920E94C919E2ECF0E0E1
:103270000E9460194F915F91EF91FF91E595EE1FCC
:10328000FF1F49F0FE57E0684427EE0F441FFA95F0
:10329000E1F74195550B0E9493190F9007FE0C948E
:1032A000871908959F3F31F0915020F487957795C5
:1032B0006795B795880F911D9695879597F908950D
:1032C000DF93CF931F930F93FF92EF92DF927B01D7
:1032D0008C01689406C0DA2EEF010E947716FE0179
:1032E000E894A5912591359145915591A6F3EF016B
:1032F0000E947117FE019701A801DA9469F7DF9027
:10330000EF90FF900F911F91CF91DF9108959B0156
:10331000AC0160E070E080E89FE30C94C6170C9469
:10332000D1160C9452190E940117D8F39923C9F3AE
:10333000940F511DA3F39150504094F059F08823FD
:1033400032F0660F771F881F91505040C1F79E3FA3
:1033500051052CF7880F911D9695879597F908953B
:103360005F3FACF0983E9CF0BB27869577956795BC
:10337000B79508F4B1609395C1F7BB0F58F711F4F6
:1033800060FFE8CF6F5F7F4F8F4F9F4FE3CF0C946D
:103390001C17FA01DC01AA0FBB1F9B01AC01BF5730
:1033A00028F4222733274427507820C0B75190F4BF
:1033B000AB2F0024469537952795011CA395D2F392
:1033C000002071F0220F331F441FB395DAF30ED0A3
:1033D0000C94591761307105A0E88A07B94630F49A
:1033E0009B01AC016627772788279078309621F0DB
:1033F00020833183428353830895A1E21A2EAA1BAE
:10340000BB1BFD010DC0AA1FBB1FEE1FFF1FA21794
:10341000B307E407F50720F0A21BB30BE40BF50B91
:10342000661F771F881F991F1A9469F7609570951A
:10343000809590959B01AC01BD01CF010895EE0FE1
:10344000FF1F0590F491E02D09940F931F93CF93E4
:10345000DF938230910510F482E090E0E091470420
:10346000F091480430E020E0B0E0A0E0309799F41B
:103470002115310509F44AC0281B390B24303105C8
:10348000D8F58A819B816115710589F1FB019383D0
:103490008283FE0111C0408151810281138148174E
:1034A0005907E0F04817590799F4109761F0129600
:1034B0000C93129713961C933296CF01DF91CF9104
:1034C0001F910F9108950093470410934804F4CF7F
:1034D0002115310551F04217530738F0A901DB01DE
:1034E0009A01BD01DF01F801C1CFEF01F9CF90933F
:1034F000480480934704CDCFFE01E20FF31F819370
:1035000091932250310939832883D7CF20914504E4
:1035100030914604232B41F420910501309106019E
:103520003093460420934504209103013091040117
:103530002115310541F42DB73EB740910701509157
:103540000801241B350BE0914504F0914604E21775
:10355000F307A0F42E1B3F0B2817390778F0AC01B6
:103560004E5F5F4F2417350748F04E0F5F1F509393
:10357000460440934504819391939FCFF0E0E0E0AF
:103580009CCFCF93DF930097E9F0FC013297138231
:103590001282A0914704B0914804ED0130E020E090
:1035A0001097A1F420813181820F931F209145044F
:1035B000309146042817390709F061C0F09346049A
:1035C000E0934504DF91CF910895EA01CE17DF071C
:1035D000E8F54A815B819E0141155105B1F7E9018A
:1035E000FB83EA8349915991C40FD51FEC17FD075E
:1035F00061F4808191810296840F951FE90199837E
:103600008883828193819B838A83F0E0E0E0129635
:103610008D919C9113970097B9F52D913C9111973D
:10362000CD010296820F931F2091450430914604EC
:103630002817390739F6309751F51092480410923F
:103640004704B0934604A0934504BCCFD383C28300
:1036500040815181840F951FC817D90761F44E5FCF
:103660005F4F88819981480F591F518340838A8118
:103670009B81938382832115310509F0B0CFF093AC
:103680004804E09347049ECFFD01DC01C0CF1382C4
:103690001282D7CFB0E0A0E0E0E5FBE10C94241764
:1036A0008C01009751F4CB010E94251A8C01C801AE
:1036B000CDB7DEB7E0E10C944017FC01E60FF71F31
:1036C0009C0122503109E217F30708F49DC0D9018B
:1036D000CD91DC911197C617D70798F0C530D10569
:1036E00030F3CE0104978617970708F3C61BD70B54
:1036F0002297C193D1936D937C93CF010E94C11AFD
:10370000D6CF5B01AC1ABD0A4C018C0E9D1EA09158
:103710004704B0914804512C412CF12CE12C109716
:1037200031F580914504909146048815990509F07A
:103730005CC04616570608F058C08091030190916E
:103740000401009741F48DB79EB740910701509155
:103750000801841B950BE817F90708F055C0F09392
:103760004604E0934504F90171836083A0CF8D91F5
:103770009C91119712966C90129713967C901397C8
:10378000A815B90559F56C0142E0C40ED11CCA1444
:10379000DB0420F1AC014A195B09DA011296159796
:1037A00080F06282738251834083D9016D937C9350
:1037B000E114F10471F0D7011396FC93EE93129784
:1037C00076CF22968C0F9D1FF90191838083F301A0
:1037D000EFCFF0934804E093470469CF48165906A9
:1037E00008F42C017D01D3019ACFCB010E94251A48
:1037F0007C01009749F0AE01B8010E94071CC80186
:103800000E94C11A870153CF10E000E050CFFB01A6
:10381000DC0102C001900D9241505040D8F708954C
:10382000FB01DC018D91019080190110D9F3990BF6
:103830000895FB01DC0101900D920020E1F708954D
:10384000FB01DC014150504048F001900D920020F6
:10385000C9F701C01D9241505040E0F7089510E0B3
:10386000C3EFD0E004C0FE010E941F1A2196C43F9E
:10387000D107C9F7F894FFCF100F0E00004904805C
:10388000005EBAE5404102EFC198DD84406210500D
:1038900040A8B5E14158B9DDC23BDF0F404ED1072A
:1038A00042E2A9ADC2000000005602B601E301A346
:1038B000021402F20106026E616E00696E66006F0C
:1038C0007666002C000D0A00523A2000473A20008C
:1038D000423A20002A0045525200202020002300B6
:1038E000446F6E65210009005D0A002C20004361D1
:1038F0007074757265202D3E200052656772657385
:1039000073696F6E20436F6E7374616E74730A2DEA
:103910002D2D2D2D2D2D2D2D2D2D2D2D2D2D2D2DD7
:103920002D2D2D2D2D2D2D2D0A0052617720446136
:103930007461206D6573737572656D656E74730A5D
:103940002D2D2D2D2D2D2D2D2D2D2D2D2D2D2D2DA7
:103950002D2D2D2D2D2D2D2D2D0A005B003100320A
:1039600000330034003500360037003800390030AD
:103970000057656C636F6D65202121005465616D92
:10398000205361676974746172697573004D616970
:103990006E204D656E7500313A53656E7320323A74
:1039A0005267624C65640043616C69627261746560
:1039B000203F00313A59657320202020323A4E6F63
:1039C00000313A20436F6C6F7220696E707574001D
:0E39D000323A205265616C2054696D6500002A
:107E0000112484B714BE81FFF0D085E080938100F7
:107E100082E08093C00088E18093C10086E0809377
:107E2000C20080E18093C4008EE0C9D0259A86E02C
:107E300020E33CEF91E0309385002093840096BBD3
:107E4000B09BFECF1D9AA8958150A9F7CC24DD24C4
:107E500088248394B5E0AB2EA1E19A2EF3E0BF2EE7
:107E6000A2D0813461F49FD0082FAFD0023811F036
:107E7000013811F484E001C083E08DD089C08234E0
:107E800011F484E103C0853419F485E0A6D080C0E4
:107E9000853579F488D0E82EFF2485D0082F10E0AE
:107EA000102F00270E291F29000F111F8ED06801E7
:107EB0006FC0863521F484E090D080E0DECF843638
:107EC00009F040C070D06FD0082F6DD080E0C81688
:107ED00080E7D80618F4F601B7BEE895C0E0D1E017
:107EE00062D089930C17E1F7F0E0CF16F0E7DF06D8
:107EF00018F0F601B7BEE89568D007B600FCFDCFD4
:107F0000A601A0E0B1E02C9130E011968C91119780
:107F100090E0982F8827822B932B1296FA010C0160
:107F200087BEE89511244E5F5F4FF1E0A038BF0790
:107F300051F7F601A7BEE89507B600FCFDCF97BE46
:107F4000E89526C08437B1F42ED02DD0F82E2BD052
:107F50003CD0F601EF2C8F010F5F1F4F84911BD097
:107F6000EA94F801C1F70894C11CD11CFA94CF0C13
:107F7000D11C0EC0853739F428D08EE10CD085E9AC
:107F80000AD08FE07ACF813511F488E018D01DD067
:107F900080E101D065CF982F8091C00085FFFCCF94
:107FA0009093C60008958091C00087FFFCCF809118
:107FB000C00084FD01C0A8958091C6000895E0E648
:107FC000F0E098E1908380830895EDDF803219F02E
:107FD00088E0F5DFFFCF84E1DECF1F93182FE3DFCA
:107FE0001150E9F7F2DF1F91089580E0E8DFEE27F6
:047FF000FF270994CA
:027FFE00040479
:00000001FF
