:020000040000FA
:100000000C9435000C945D000C945D000C945D0024
:100010000C945D000C945D000C945D000C945D00EC
:100020000C945D000C945D000C945D000C945D00DC
:100030000C945D000C945D000C945D000C945D00CC
:100040000C9491010C945D000C945D000C945D0087
:100050000C945D000C94DB010C945D000C945D002D
:100060000C945D000C945D00AF0211241FBECFEF15
:10007000D8E0DEBFCDBF21E0A6E0B1E001C01D9217
:10008000A331B207E1F711E0A0E0B1E0E2ECFAE061
:1000900002C005900D92A630B107D9F710E0C5E374
:1000A000D0E004C02197FE010E945803C433D10759
:1000B000C9F70E94E6010C945F050C9400003FB75D
:1000C000F89480910B0190910C01A0910D01B091D9
:1000D0000E0126B5A89B05C02F3F19F00196A11D62
:1000E000B11D3FBFBA2FA92F982F8827BC01CD0182
:1000F000620F711D811D911D42E0660F771F881FE1
:10010000991F4A95D1F70895982F906490937C0099
:10011000EAE7F0E09FE8908321E030E001C0220FA1
:100120008A95EAF720937E00808180648083089519
:100130005B9A8FE99FE00197F1F700C000005B98A0
:100140000895CF93C82F8BB1837F8BB98BB18F70FC
:100150008BB95F9A0E9498008BB18F708BB98BB16D
:10016000C295C07FC82BCBB9CF910C949800BF9299
:10017000CF92DF92EF92FF920F931F93CF93DF9373
:10018000CDB7DEB76E970FB6F894DEBF0FBECDBF0A
:100190006C018BB1837F8BB95A9ACE0101967C0199
:1001A0008EE1F70111928A95E9F7F6010481158134
:1001B0000F3F100771F00115110559F0F60160812C
:1001C0007181A801C7010E945005F701E00FF11FDE
:1001D0001082B12C0B2D10E0F60184819581081757
:1001E0001907E8F48BB18F708BB99BB10E0D1F1DF1
:1001F000F8018081807F892B8BB90E9498008BB198
:100200008F708BB98BB1F8012081F0E12F02900142
:100210001124822B8BB90E949800B394DBCF6E9689
:100220000FB6F894DEBF0FBECDBFDF91CF911F9107
:100230000F91FF90EF90DF90CF90BF900895FC0159
:1002400080819181009711F00C94FA030895CF9268
:10025000DF92EF92FF920F931F93CF93DF93CDB76F
:10026000DEB762970FB6F894DEBF0FBECDBF8C012C
:10027000CB01F8011182108213821282158214823E
:100280004AE09E012F5F3F4F6901B9010E94EC02D5
:10029000F60101900020E9F731977F01EC18FD0885
:1002A000F80180819181009729F0228133812E15F8
:1002B0003F0590F4B7016F5F7F4F0E948304F80100
:1002C000009799F091838083F382E28224813581C3
:1002D000232B11F4FC011082F801F582E482B601AF
:1002E000808191810E9449050DC080819181009794
:1002F00011F00E94FA03F801118210821582148213
:100300001382128262960FB6F894DEBF0FBECDBF85
:10031000DF91CF911F910F91FF90EF90DF90CF90E1
:1003200008951F920F920FB60F9211242F933F93AF
:100330008F939F93AF93BF93809107019091080192
:10034000A0910901B0910A013091060123E0230F29
:100350002D3758F50196A11DB11D209306018093FC
:10036000070190930801A0930901B0930A018091BD
:100370000B0190910C01A0910D01B0910E0101961D
:10038000A11DB11D80930B0190930C01A0930D0151
:10039000B0930E01BF91AF919F918F913F912F919B
:1003A0000F900FBE0F901F90189526E8230F02960E
:1003B000A11DB11DD2CF1F920F920FB60F92112423
:1003C000F8940F900FBE0F901F901895CF93DF9366
:1003D00000D000D000D0CDB7DEB7789484B582606D
:1003E00084BD84B5816084BD85B5826085BD85B5D9
:1003F000816085BD80916E00816080936E00109257
:1004000081008091810082608093810080918100D1
:100410008160809381008091800081608093800062
:100420008091B10084608093B1008091B0008160C0
:100430008093B00080917A00846080937A008091EC
:100440007A00826080937A0080917A008160809344
:100450007A0080917A00806880937A001092C100BF
:1004600000E010E08BB1837F8BB98BB18F708BB9BB
:100470008BB18BB90E9498008BB18F708BB95C9A4D
:100480000E94980080E00E94A10080E00E94840009
:100490006091780070917900CE0101960E94270149
:1004A000CE0101960E94B700CE0101960E941F0165
:1004B00085E00E94A10081E00E94840060917800A4
:1004C00070917900CE0101960E942701CE0101961C
:1004D0000E94B700CE0101960E941F018AE00E948F
:1004E000A10082E00E948400609178007091790000
:1004F000CE0101960E942701CE0101960E94B7000D
:10050000CE0101960E941F010E945F004B015C0119
:1005100084E6C82ED12CE12CF12C0E945F006819D2
:1005200079098A099B09683E734081059105A8F302
:1005300021E0C21AD108E108F10888EE880E83E0B4
:10054000981EA11CB11CC114D104E104F10429F7C7
:100550000115110509F486CF0E94000083CF8AB1EE
:100560008F638AB98BB1837F8BB98BB18F708BB955
:100570008BB18BB90E9498008BB18F708BB95D9A4B
:100580000E9498008BB18F708BB95D9A0E94980081
:100590008BB18F708BB95F9A0E9498008BB18F706E
:1005A0008BB98BB18BB90E9498008BB18F708BB9CE
:1005B0008BB1806C8BB90E9498008BB18F708BB916
:1005C0008BB18BB90E9498008BB18F708BB98BB1B6
:1005D00080668BB90C949800BB274A3031F499237C
:1005E00022F4BDE2909581959F4F0C94F802BB27B1
:1005F000FB015527AA27880F991FAA1FA41710F0DF
:10060000A41B83955051B9F7A05DAA3308F0A95DEA
:10061000A193009779F7B111B1931192CB010C948A
:100620001103DC01FC01672F71917723E1F7329709
:1006300004C07C916D9370836291AE17BF07C8F3BD
:1006400008952F923F924F925F926F927F928F9276
:100650009F92AF92BF92CF92DF92EF92FF920F9351
:100660001F93CF93DF93CDB7DEB7CA1BDB0B0FB65B
:10067000F894DEBF0FBECDBF09942A883988488818
:100680005F846E847D848C849B84AA84B984C884AE
:10069000DF80EE80FD800C811B81AA81B981CE0FA5
:1006A000D11D0FB6F894DEBF0FBECDBFED0108958A
:1006B000EE0FFF1F0590F491E02D09940F931F9307
:1006C000CF93DF938230910510F482E090E0E091C7
:1006D0001101F091120130E020E0B0E0A0E030978D
:1006E00099F42115310509F44AC0281B390B24302F
:1006F0003105D8F58A819B816115710589F1FB016E
:1007000093838283FE0111C0408151810281138154
:1007100048175907E0F04817590799F4109761F006
:1007200012960C93129713961C933296CF01DF9179
:10073000CF911F910F910895009311011093120111
:10074000F4CF2115310551F04217530738F0A901B4
:10075000DB019A01BD01DF01F801C1CFEF01F9CF43
:100760009093120180931101CDCFFE01E20FF31F90
:10077000819391932250310939832883D7CF2091D7
:100780000F0130911001232B41F42091020130918F
:1007900003013093100120930F012091000130914B
:1007A00001012115310541F42DB73EB740910401F7
:1007B00050910501241B350BE0910F01F0911001C0
:1007C000E217F307A0F42E1B3F0B2817390778F028
:1007D000AC014E5F5F4F2417350748F04E0F5F1F87
:1007E0005093100140930F01819391939FCFF0E0BC
:1007F000E0E09CCFCF93DF930097E9F0FC013297C4
:1008000013821282A0911101B0911201ED0130E02A
:1008100020E01097A1F420813181820F931F209155
:100820000F01309110012817390709F061C0F093CA
:100830001001E0930F01DF91CF910895EA01CE17E7
:10084000DF07E8F54A815B819E0141155105B1F74B
:10085000E901FB83EA8349915991C40FD51FEC1735
:10086000FD0761F4808191810296840F951FE90153
:1008700099838883828193819B838A83F0E0E0E07F
:1008800012968D919C9113970097B9F52D913C91FB
:100890001197CD010296820F931F20910F01309185
:1008A00010012817390739F6309751F510921201C7
:1008B00010921101B0931001A0930F01BCCFD3830C
:1008C000C28340815181840F951FC817D90761F4F5
:1008D0004E5F5F4F88819981480F591F5183408334
:1008E0008A819B81938382832115310509F0B0CFE2
:1008F000F0931201E09311019ECFFD01DC01C0CF06
:1009000013821282D7CFB0E0A0E0E9E8F4E00C94C3
:1009100023038C01009751F4CB010E945E038C01EC
:10092000C801CDB7DEB7E0E10C943F03FC01E60F50
:10093000F71F9C0122503109E217F30708F49DC00C
:10094000D901CD91DC911197C617D70798F0C53022
:10095000D10530F3CE0104978617970708F3C61B1D
:10096000D70B2297C193D1936D937C93CF010E94B3
:10097000FA03D6CF5B01AC1ABD0A4C018C0E9D1E4A
:10098000A0911101B0911201512C412CF12CE12CBC
:10099000109731F580910F019091100188159905FC
:1009A00009F05CC04616570608F058C08091000157
:1009B00090910101009741F48DB79EB740910401D9
:1009C00050910501841B950BE817F90708F055C0F5
:1009D000F0931001E0930F01F90171836083A0CFC0
:1009E0008D919C91119712966C90129713967C9012
:1009F0001397A815B90559F56C0142E0C40ED11C36
:100A0000CA14DB0420F1AC014A195B09DA01129621
:100A1000159780F06282738251834083D9016D9370
:100A20007C93E114F10471F0D7011396FC93EE93DB
:100A3000129776CF22968C0F9D1FF90191838083A8
:100A4000F301EFCFF0931201E093110169CF481643
:100A5000590608F42C017D01D3019ACFCB010E94E5
:100A60005E037C01009749F0AE01B8010E94400589
:100A7000C8010E94FA03870153CF10E000E050CF75
:100A8000FB01DC0102C001900D9241505040D8F7AB
:100A90000895FB01DC0101900D920020E1F708951B
:100AA000FB01DC014150504048F001900D920020C4
:100AB000C9F701C01D9241505040E0F70895F894E5
:080AC000FFCF000013018000CC
:107E0000112484B714BE81FFF0D085E080938100F7
:107E100082E08093C00088E18093C10086E0809377
:107E2000C20080E18093C4008EE0C9D0259A86E02C
:107E300020E33CEF91E0309385002093840096BBD3
:107E4000B09BFECF1D9AA8958150A9F7CC24DD24C4
:107E500088248394B5E0AB2EA1E19A2EF3E0BF2EE7
:107E6000A2D0813461F49FD0082FAFD0023811F036
:107E7000013811F484E001C083E08DD089C08234E0
:107E800011F484E103C0853419F485E0A6D080C0E4
:107E9000853579F488D0E82EFF2485D0082F10E0AE
:107EA000102F00270E291F29000F111F8ED06801E7
:107EB0006FC0863521F484E090D080E0DECF843638
:107EC00009F040C070D06FD0082F6DD080E0C81688
:107ED00080E7D80618F4F601B7BEE895C0E0D1E017
:107EE00062D089930C17E1F7F0E0CF16F0E7DF06D8
:107EF00018F0F601B7BEE89568D007B600FCFDCFD4
:107F0000A601A0E0B1E02C9130E011968C91119780
:107F100090E0982F8827822B932B1296FA010C0160
:107F200087BEE89511244E5F5F4FF1E0A038BF0790
:107F300051F7F601A7BEE89507B600FCFDCF97BE46
:107F4000E89526C08437B1F42ED02DD0F82E2BD052
:107F50003CD0F601EF2C8F010F5F1F4F84911BD097
:107F6000EA94F801C1F70894C11CD11CFA94CF0C13
:107F7000D11C0EC0853739F428D08EE10CD085E9AC
:107F80000AD08FE07ACF813511F488E018D01DD067
:107F900080E101D065CF982F8091C00085FFFCCF94
:107FA0009093C60008958091C00087FFFCCF809118
:107FB000C00084FD01C0A8958091C6000895E0E648
:107FC000F0E098E1908380830895EDDF803219F02E
:107FD00088E0F5DFFFCF84E1DECF1F93182FE3DFCA
:107FE0001150E9F7F2DF1F91089580E0E8DFEE27F6
:047FF000FF270994CA
:027FFE00040479
:00000001FF
