:020000040000FA
:100000000C949F000C94C7000C94C7000C94C7007C
:100010000C94C7000C94C7000C94C7000C94C70044
:100020000C94C7000C94C7000C94C7000C94C70034
:100030000C94C7000C94C7000C94C7000C94C70024
:100040000C94780B0C94C7000C94460B0C94200B6A
:100050000C94C7000C94C7000C94C7000C94C70004
:100060000C94C7000C94C70008000000BE922449FD
:10007000123EABAAAA2ABECDCCCC4C3E00000080DA
:10008000BEABAAAAAA3E00000000BF000000803F4D
:100090000000000000084178D3BB4387D1133D190D
:1000A0000E3CC3BD4282AD2B3E68EC8276BED98F3A
:1000B000E1A93E4C80EFFFBE01C4FF7F3F0000007E
:1000C000000007634236B79BD8A71A39685618AEA6
:1000D000BAAB558C1D3CB7CC5763BD6DEDFD753E7D
:1000E000F6177231BF000000803F000000080002D8
:1000F00001000003040700000000000000000000F1
:100100000000250028002B0000000000240027002C
:100110002A00040404040404040402020202020289
:1001200003030303030301020408102040800102BB
:10013000040810200102040810203D0C0B101124AB
:100140001FBECFEFD8E0DEBFCDBF12E0A0E0B1E030
:10015000ECE9FDE202C005900D92A831B107D9F794
:1001600023E0A8E1B2E001C01D92A83BB207E1F78D
:1001700010E0CEE9D0E004C02197FE010E94C01437
:10018000CD39D107C9F70E94E40C0C94C1160C9428
:10019000000090E0FC01EA5DFE4F24918E5E9E4FD0
:1001A000FC018491882399F090E0880F991FFC014D
:1001B000E85FFE4FA591B491FC01E250FF4F85919D
:1001C00094918FB7F894EC91E22BEC938FBF089544
:1001D0000895AF92BF92CF92DF92EF92FF920F936A
:1001E0001F93CF93DF936C017B018B01040F151FCD
:1001F000EB015E01AE18BF08C017D10759F0699135
:10020000D601ED91FC910190F081E02DC601099598
:10021000892B79F7C501DF91CF911F910F91FF9045
:10022000EF90DF90CF90BF90AF900895FC01538D79
:10023000448D252F30E0842F90E0821B930B5417C0
:1002400010F0CF96089501970895FC01918D828D4D
:10025000981761F0A28DAE0FBF2FB11D5D968C91E6
:10026000928D9F5F9F73928F90E008958FEF9FEF25
:100270000895FC01918D828D981731F0828DE80FE1
:10028000F11D858D90E008958FEF9FEF0895FC019B
:10029000918D228D892F90E0805C9F4F821B910968
:1002A0008F739927089583E292E00E94470121E02D
:1002B000892B09F420E0822F089580E090E0892BBB
:1002C00029F00E94530181110C9400000895FC0153
:1002D000A48DA80FB92FB11DA35ABF4F2C91848DA7
:1002E00090E001968F739927848FA689B7892C9304
:1002F000A089B1898C91837080648C93938D848D57
:10030000981306C00288F389E02D80818F7D808359
:100310000895EF92FF920F931F93CF93DF93EC0119
:1003200081E0888F9B8D8C8D98131AC0E889F9899C
:10033000808185FF15C09FB7F894EE89FF8960839F
:10034000E889F98980818370806480839FBF81E020
:1003500090E0DF91CF911F910F91FF90EF90089562
:10036000F62E0B8D10E00F5F1F4F0F731127E02E3D
:100370008C8D8E110CC00FB607FCFACFE889F98975
:10038000808185FFF5CFCE010E946701F1CFEB8D13
:10039000EC0FFD2FF11DE35AFF4FF0829FB7F89449
:1003A0000B8FEA89FB8980818062CFCFCF93DF9367
:1003B000EC01888D8823B9F0AA89BB89E889F9897D
:1003C0008C9185FD03C0808186FD0DC00FB607FCB2
:1003D000F7CF8C9185FFF2CF808185FFEDCFCE01E5
:1003E0000E946701E9CFDF91CF91089590E0FC0171
:1003F000E651FF4F2491FC01EA5DFE4F3491FC0170
:10040000EE5EFE4FE491EE23C9F0222339F0233053
:1004100001F1A8F4213019F1223029F1F0E0EE0FBA
:10042000FF1FE250FF4FA591B4918FB7F894EC9164
:10043000611126C030953E233C938FBF089527302D
:10044000A9F02830C9F0243049F7809180008F7DD1
:1004500003C0809180008F7780938000DFCF84B5C8
:100460008F7784BDDBCF84B58F7DFBCF8091B000CB
:100470008F778093B000D2CF8091B0008F7DF9CF7D
:100480003E2BDACF3FB7F89480911D0290911E0267
:10049000A0911F02B091200226B5A89B05C02F3F56
:1004A00019F00196A11DB11D3FBFBA2FA92F982F9A
:1004B0008827BC01CD01620F711D811D911D42E095
:1004C000660F771F881F991F4A95D1F708958F925D
:1004D0009F92AF92BF92CF92DF92EF92FF924B0129
:1004E0005C010E9442026B017C010E9442026C1975
:1004F0007D098E099F09683E734081059105A8F327
:1005000021E0821A9108A108B10888EEC80E83E0A4
:10051000D81EE11CF11C81149104A104B10429F737
:10052000FF90EF90DF90CF90BF90AF909F908F9013
:10053000089590E080E00895CF93DF93EC0160E0B0
:100540008E810E94F60161E08E810E94F60160E0DA
:100550008E810E94F6018BE891E00197F1F7DF911F
:10056000CF910895CF92DF92EF92FF920F931F9356
:10057000CF93DF936C017C0187E0E80EF11CD0E0A3
:10058000C0E0062F10E0B8010C2E02C075956795EB
:100590000A94E2F76170F70181917F010E94F601F0
:1005A0002196C430D10579F7C601DF91CF911F9113
:1005B0000F91FF90EF90DF90CF900C949C02CF9220
:1005C000DF92EF92FF920F931F93CF93DF93EC0193
:1005D000F62E642F8C810E94F6018D818F3F19F0D9
:1005E00060E00E94F6010F2D10E08F8584FF25C08A
:1005F0006E0187E0C80ED11CF12CE12CB8010E2C45
:1006000002C0759567950A94E2F76170F6018191D1
:100610006F010E94F601FFEFEF1AFF0A88E0E8166B
:10062000F10461F7CE01DF91CF911F910F91FF90FF
:10063000EF90DF90CF900C949C02B80184E0759508
:1006400067958A95E1F7CE010E94B2026F2DCE0127
:10065000DF91CF911F910F91FF90EF90DF90CF909E
:100660000C94B20241E00E94DF0281E090E0089524
:1006700040E00C94DF02E0ECF2E06089862F8160BC
:10068000808B6960CF010C943803FC0123894217E9
:1006900010F04FEF420FFC01E40FF11D2489620FAF
:1006A00060680C9438030F931F93CF93DF93EC0192
:1006B0008B01413089F0422F60E0CE010E9445035A
:1006C000F8014481558160817181CE01DF91CF9124
:1006D0001F910F910C94E900FB018481958160E1E9
:1006E00070E0681B790B76956795422FE6CF61E045
:1006F0000E9438038BE39FE10197F1F70895CF93B0
:10070000DF93823029F49091CF0298609093CF02CA
:100710008093D3021092D40280E48093D50280E1CA
:100720008093D60280E58093D7028091C4020E9414
:10073000C9008091C5028F3F11F00E94C9008091CD
:10074000C6020E94C900C0ECD2E09E01205C32408B
:100750008091CF0284FD0AC084E090E021962817A2
:1007600039073CF48E810E94C900EFCF88E090E009
:10077000F5CF8BE39DE00197F1F760E08091C40233
:100780000E94F60160E08091C6020E94F60180910D
:10079000C5028F3F19F060E00E94F6016091CF0220
:1007A00064FD3CC063E080EC92E00E94B202CBE4C6
:1007B000D6E4CE010197F1F763E080EC92E00E946D
:1007C000B2022197F1F763E080EC92E00E94B2025E
:1007D00083E592E00197F1F762E080EC92E00E94FD
:1007E000B2026091CF02606280EC92E00E94380316
:1007F00084E08093D0026CE080EC92E00E943803A9
:1008000080EC92E00E94770382E08093D10266E060
:1008100080EC92E0DF91CF910C943803606280EC21
:1008200092E00E9438038BE496E40197F1F760911F
:10083000CF02606280EC92E00E94380383E592E090
:100840000197F1F76091CF02606280EC92E00E9424
:100850003803C7CF2F923F924F925F926F927F9251
:100860008F929F92AF92BF92CF92DF92EF92FF92C0
:100870000F931F93CF93DF93CDB7DEB72C970FB6AF
:10088000F894DEBF0FBECDBF982E439A8CE0E9E00E
:10089000F1E0DE01119601900D928A95E1F70BE7E8
:1008A00013E0CE0101967C014EE7A42E43E0B42E66
:1008B0006801F60181916F018E3008F08E508770CB
:1008C000806480937C0080917A00806480937A00B9
:1008D00080917A0086FDFCCF80917800609179004C
:1008E000F70141905190619071907F01762F682FB0
:1008F000072E000C880B990B0E949B10A3019201FC
:100900000E94D6100E940513F501619371935F0157
:10091000FEE7CF16F3E0DF0661F691107AC028EA11
:10092000222E23E0322E3BE7E32E33E0F32E670145
:10093000F10141905190619071901F01F601218960
:1009400032894389548960E070E080E89FE30E9427
:1009500093124B015C01F70163817481072E000C37
:10096000880B990B0E949B10A30192010E942612F2
:10097000F60121853285438554850E949312A50195
:1009800094010E948B13F601258536854785508991
:100990000E9426120E940513F70174836383FCE012
:1009A000CF0ED11C82E0E80EF11CE1E8F3E0EE1579
:1009B000FF0509F0BDCF8EE4882E82E0982EA12C91
:1009C000B12CCC24CA94D12CF80123813481032E7C
:1009D000000C440B550B2C52314041095109A5EF35
:1009E000B0E00E94B311A50194010E949411BA01D4
:1009F000A9014B5F5F4F6F4F7F4FCA01F8014F3F17
:100A0000510514F1D482C3820E5F1F4FE016F10628
:100A1000D9F68EE793E02C960FB6F894DEBF0FBEA2
:100A2000CDBFDF91CF911F910F91FF90EF90DF909D
:100A3000CF90BF90AF909F908F907F906F905F907E
:100A40004F903F902F900895181619061CF4548368
:100A50004383DACF14821382D7CFFB0101900020A9
:100A6000E9F73197AF01461B570BDC01ED91FC9183
:100A70000280F381E02D09944F925F926F927F92F2
:100A80008F929F92AF92BF92CF92DF92EF92FF929E
:100A90000F931F93CF93DF93CDB7DEB7A1970FB618
:100AA000F894DEBF0FBECDBF8C016B01770FEE084F
:100AB000FF08F7FE49C0DC01ED91FC910190F08147
:100AC000E02D6DE209955C0122273327A9012C193D
:100AD0003D094E095F0919A2FE01B1967F019AE016
:100AE000492E512C612C712CCA01B901A30192012C
:100AF0000E94F511605DD7016E937D0121153105CE
:100B00004105510589F790E080E0109721F0BD0183
:100B1000C8010E942D058A0D9B1DA1960FB6F89461
:100B2000DEBF0FBECDBFDF91CF911F910F91FF9020
:100B3000EF90DF90CF90BF90AF909F908F907F907D
:100B40006F905F904F900895A701960119A2FE0142
:100B5000B1967F018AE0882E912CA12CB12CCA017C
:100B6000B901A50194010E94F511605DD7016E9352
:100B70007D01211531054105510589F790E080E09F
:100B8000109759F2BD01C8010E942D05C6CF0C94E3
:100B90002D05CF93DF93EC0180EC92E00E94770368
:100BA00066E671E080EC92E00E94C7056881798179
:100BB00080EC92E00E943C0540E068E080EC92E02E
:100BC0000E9445036AE671E080EC92E00E94C7054E
:100BD0006A817B8180EC92E00E943C0541E060E00C
:100BE00080EC92E00E9445036EE671E080EC92E0BA
:100BF0000E94C7056C817D8180EC92E0DF91CF91EE
:100C00000C943C050F931F93CF938C01C0E0F80127
:100C1000619171918F0183E292E00E943C0564E74B
:100C200071E0C23011F462E771E083E292E00E9469
:100C3000C705CF5FC33059F7CF911F910F9108952A
:100C4000FC0180819181009711F00C94281060E0E4
:100C500070E0CB010895FC0124813581232B39F408
:100C600021E0FB018081882349F020E007C08081DA
:100C700091810E94B11621E0892BB9F7822F089546
:100C80000F931F93CF93DF938C01EB01FC018081C5
:100C900091810097E1F06881798161157105A9F072
:100CA000428153812C813D814217530770F00E948D
:100CB000BA168C819D81F801958384831D821C82E4
:100CC000DF91CF911F910F9108950E946215888145
:100CD0009981F801918380838A819B8193838283A8
:100CE0008C819D8195838483198218821B821A824C
:100CF000E5CFCF93DF93EC0188819981009711F0C4
:100D00000E946215198218821D821C821B821A821F
:100D1000DF91CF910895FC0180819181009711F0BE
:100D20000C94621508950F931F93CF93DF93EC01FA
:100D300088819981009759F02A813B8126173707CE
:100D400030F081E0DF91CF911F910F9108958B01D9
:100D50006F5F7F4F0E94EB15009759F0998388834E
:100D60001B830A832C813D81232B59F7FC011082C0
:100D7000E8CF80E0E7CFEF92FF920F931F93CF93DE
:100D8000DF93EC017B018A01BA010E949306811175
:100D90000BC0CE010E947906CE01DF91CF911F9149
:100DA0000F91FF90EF9008951D830C83B701888108
:100DB00099810E94BA16F0CFFB0101900020E9F75B
:100DC0003197AF01461B570B0C94BB06FB01DC01AE
:100DD00011961C921E9213961C921E9212971596B3
:100DE0001C921E9214978617970749F060817181B3
:100DF0006115710521F0448155810C94BB0608955D
:100E0000FC01118210821382128215821482FB016E
:100E100001900020E9F73197AF01461B570B0C9466
:100E2000BB062F923F924F925F926F927F928F926A
:100E30009F92AF92BF92CF92DF92EF92FF920F9369
:100E40001F93CF93DF93CDB7DEB7C75BD1400FB60B
:100E5000F894DEBF0FBECDBF4C01439A8E010F5FE9
:100E60001F4F80E991E0D801FC011D923197E9F70D
:100E70006E01F1E0CF1AD108F12CE12CE110E7C1AD
:100E800081E00E942A0486E0EEE7F3E0D8010190B9
:100E90000D928A95E1F760917E0370917F038091B6
:100EA000800390918103680F791F80918203909154
:100EB0008303680F791F072E000C880B990B0E9483
:100EC0009B1020E030E040E450E40E9493120E9426
:100ED000051378876F83C4010E94770366E771E08A
:100EE000CE018F569E4F0E94000720E040E0BE01D9
:100EF0006F567E4FC4010E945303CE018F569E4F02
:100F00000E948B06C755DE4F19821882C95AD140FC
:100F1000C555DE4F19821882CB5AD140C355DE4FDA
:100F200019821882CD5AD1404AE0BE016F567E4FD9
:100F3000C701880F991F0E944F10BE016F567E4F48
:100F4000CE0187559E4F0E94DC06BE0167557E4F3D
:100F5000CE018D559E4F0E94E606C955DE4F688032
:100F60007980C75AD140B2E06B0E711CB301CE013B
:100F70008D559E4F0E949306882309F4ABC1CD5531
:100F8000DE4F28813981C35AD140C955DE4F88814F
:100F90009981C75AD14063E871E0820F931F0E9484
:100FA000BA16C955DE4F79826882C75AD140BE0150
:100FB0006D557E4FCE018F569E4F0E94E60621E072
:100FC00040E0BE016F567E4FC4010E945303CE0124
:100FD0008F569E4F0E948B06CE018D559E4F0E94CC
:100FE0008B06CE0187559E4F0E948B06EFEFEE1ABF
:100FF000FE0AF8E0CF0ED11C22E3E216F10409F05C
:101000003DCF58017801912C812CC155DE4F1882BB
:10101000CF5AD140D70116964D905C908BE7C82EE1
:1010200083E0D82E98EA292E93E0392EEEE7F3E0FC
:10103000C055DE4FF983E883C05BD140CA54DE4F10
:1010400039822882C65BD140052C000C66087708DF
:10105000D60151968D919D910D90BC91A02DCE54AD
:10106000DE4F88839983AA83BB83C25BD140C301CF
:10107000B2010E949B10F60125853685478550896F
:101080000E942712CE54DE4F288139814A815B812C
:10109000C25BD1400E948B13CA54DE4FA881B98134
:1010A000C65BD1402D913D914D915D91CA54DE4F6B
:1010B000B983A883C65BD140CE54DE4F28833983E1
:1010C0004A835B83C25BD140F6012185328543852B
:1010D00054850E94D610CE54DE4F288139814A8132
:1010E0005B81C25BD1400E9427120E940513C0554C
:1010F000DE4FA881B981C05BD1406D937D93C0550F
:10110000DE4FB983A883C05BD140BCE0CB0ED11CBD
:10111000EFE9CE16E3E0DE0609F09ACFD7018D9114
:101120009C91119720917E0330917F03821B930B3A
:1011300011969C938E9312968D919C91139720916A
:10114000800330918103821B930B13969C938E93A3
:10115000129714968D919C9115972091820330914E
:101160008303821B930B15969C938E931497F8011F
:1011700083E0C155DE4FB881CF5AD140BB2359F02F
:1011800020813181DF01A80DB91D4D915C91240FA3
:10119000351F31832083815032968111EACFC155AA
:1011A000DE4FE881CF5AD140EF5FC155DE4FE88373
:1011B000CF5AD140F8E0EF0EF11C28E0820E911CCE
:1011C000E23309F027CF0A5F1F4FD1014D905D90A8
:1011D0006D907D901D01F501619171915F017D011F
:1011E000F4E0EF1AF108072E000C880B990B0E940F
:1011F0009B1020E030E040E450E40E949312A301F1
:1012000092010E942712D7016D937D938D939C9339
:1012100013970A151B05C9F64398C954DE4F0FB63C
:10122000F894DEBF0FBECDBFDF91CF911F910F911C
:10123000FF90EF90DF90CF90BF90AF909F908F90F6
:101240007F906F905F904F903F902F90089581E036
:101250000E942A0460917E0370917F038091800335
:1012600090918103680F791F80918203909183038D
:10127000680F791F072E000C880B990B0E949B109A
:1012800020E030E040E450E40E9493120E940513F5
:101290009B01D6014D915C91CA01861B970B97FF6C
:1012A00003C09195819591090A978CF286E0EEE74B
:1012B000F3E0D601129601900D928A95E1F7F701BD
:1012C00043E0EE0FFF1F4A95E1F7E00FF11F378370
:1012D000268301CECE018D559E4F0E94790667CEA2
:1012E0009F92AF92BF92CF92DF92EF92FF920F93B5
:1012F0001F93CF93DF938C016B01942EAA24A394A8
:10130000B12C7B0148E4E40EF11CD0E0C0E08BB1CD
:101310009E012C5F3F4FF50102C0EE0FFF1F2A9583
:10132000E2F78F708E2B8BB961E070E080E090E087
:101330000E94670263B170E033E0759567953A9556
:10134000E1F76770F70160836623F1F170E090E0E8
:1013500080E00E9499100E94431328E132E741E3A4
:101360005FE30E9493120E940C13F701608383B124
:1013700090E023E0959587952A95E1F78770992766
:10138000892BA9F78BB18F708BB9F701808192E11E
:101390009C9FB0019D9F700D1124F6E08F9F600D02
:1013A000711D11246C0D7D1DC8010E94E606C80147
:1013B000DF91CF911F910F91FF90EF90DF90CF9031
:1013C000BF90AF909F9008952196C430D10509F049
:1013D0009ECF91109ACF63E771E0C8010E94000789
:1013E000E6CF8F929F92AF92BF92EF92FF920F93B0
:1013F0001F93CF93DF93CDB7DEB72C970FB6F8943A
:10140000DEBF0FBECDBFF82EE62E63E771E08FED95
:1014100092E00E94DC0663E771E0CE0107960E942D
:10142000000741E068EE72E0CE0101960E9470096B
:10143000BE016F5F7F4FCE0107960E944006CE012E
:1014400001960E948B0668E971E0CE0107960E9422
:101450002B06882309F44FC08FED92E00E942006EE
:101460004B015C018FEF88169104A104B10409F0CF
:101470000CF4D0C04E2D6F2D80EC92E00E944503FD
:1014800010E08091E3029091E4021817190640F4ED
:1014900064EA71E080EC92E00E94C7051F5FF1CF23
:1014A0004E2D6F2D80EC92E00E9445036EE971E0B5
:1014B00080EC92E00E94C70564EF71E080E090E06C
:1014C0000E9467024E2D6F2D80EC92E00E94450332
:1014D00062EA71E080EC92E00E94C7054E2D6F2D0C
:1014E00080EC92E00E94450363E771E08FED92E0AB
:1014F0000E94DC0696CF6CE971E0CE0107960E944F
:101500002B060091E3021091E402882309F456C0EF
:101510000115110509F452C063E771E0CE0101968F
:101520000E9400078091E3029091E402009709F184
:10153000015011098017910708F48C01E091DF0236
:10154000F091E002E00FF11FB08010826091DF02A5
:101550007091E002CE0101966115710561F10E9462
:10156000DC068091DF029091E002080F191FF8015C
:10157000B082BE016F5F7F4F8FED92E00E94400608
:10158000CE0101960E948B066091E3026F0D4E2DF5
:1015900080EC92E00E94450364EA71E080EC92E006
:1015A0000E94C7056091E3026F0D4E2D80EC92E022
:1015B0000E94450336CF0E947906D3CFAF80B8840E
:1015C000A114B104F1F08B859C850097D1F0080F30
:1015D000191FB8018FED92E00E949306882389F0CD
:1015E0002091DF023091E0028091E3029091E402C9
:1015F000B501820F931F0E94BA161093E402009364
:10160000E3024B855C856F81788580EC92E00E94D7
:10161000E90007CFCE0107960E948B06C4012C96E5
:101620000FB6F894DEBF0FBECDBFDF91CF911F91F3
:101630000F91FF90EF90BF90AF909F908F90089583
:101640001F920F920FB60F9211242F933F934F9337
:101650005F936F937F938F939F93AF93BF93EF931A
:10166000FF9383E292E00E946701FF91EF91BF91A7
:10167000AF919F918F917F916F915F914F913F912A
:101680002F910F900FBE0F901F9018951F920F92E1
:101690000FB60F9211242F938F939F93EF93FF9385
:1016A000E0913302F09134028081E0913902F091AF
:1016B0003A0282FD1BC0908180913C028F5F8F7344
:1016C00020913D02821741F0E0913C02F0E0ED5D97
:1016D000FD4F958F80933C02FF91EF919F918F91E9
:1016E0002F910F900FBE0F901F9018958081F4CF0F
:1016F0001F920F920FB60F9211242F933F938F9347
:101700009F93AF93BF938091190290911A02A09179
:101710001B02B0911C023091180223E0230F2D37D9
:1017200058F50196A11DB11D20931802809319024E
:1017300090931A02A0931B02B0931C0280911D0289
:1017400090911E02A0911F02B09120020196A11D4E
:10175000B11D80931D0290931E02A0931F02B093AF
:101760002002BF91AF919F918F913F912F910F9048
:101770000FBE0F901F90189526E8230F0296A11D0B
:10178000B11DD2CFE1E8F0E0808188608083808164
:101790008F7E8083A0E8B0E08C9181608C938C91E7
:1017A0008D7F8C938C9180628C938C918F7E8C93A7
:1017B00080818160808380818D7F808380818B7F29
:1017C000808308950F931F93CF93DF93EC0166E816
:1017D00071E00E94000768E871E0CE0106960E9461
:1017E00000076AE871E0CE010C960E9400076CE8E1
:1017F00071E0CE0142960E9400076EE871E0CE01D2
:1018000048960E94000760E971E0CE014E960E9462
:10181000000762E971E0CE0184960E94000764E946
:1018200071E0CE018A960E94000766E971E0CE0160
:10183000C0960E9400078E010A5C1F4F68E971E0A4
:10184000C8010E9400076AE971E0CE01CC960E94AF
:1018500000076CE971E0C8010C960E940007C85BA4
:10186000DF4F18828AB1806F8AB984B1877C84B9CE
:10187000DF91CF911F910F9108951F93CF93DF9325
:10188000E3E2F2E01382128288EE93E0A0E0B0E09F
:1018900084839583A683B7838CE491E091838083CE
:1018A00085EC90E09587848784EC90E09787868725
:1018B00080EC90E0918B808B81EC90E0938B828B1D
:1018C00082EC90E0958B848B86EC90E0978B868BF6
:1018D000118E128E138E148ECBE7D3E018821982EC
:1018E0001A8216E0EEE7F3E0DF01812F1D928A9560
:1018F000E9F784E2E5E1F1E0A4E8B3E001900D92BC
:101900008A95E1F78CE0E9E3F1E0A8EAB3E0019021
:101910000D928A95E1F73B9AE0E0F1E080818883BF
:101920008181898382818A8382E393E00E94E20B32
:1019300084B1876084B90E94C20BC0ECD2E01B82E4
:101940001A828EE591E09983888382E08C838FEF01
:101950008D8383E08E8384E08F8385E08887198779
:1019600087E08A871B861C861D861E861F8681E06F
:101970000E947F03E8EDF2E0DF011D921A95E9F77E
:1019800063E771E08FED92E00E94000780914501CE
:1019900090914601A09147018DA39EA3AFA388EE2D
:1019A00092E00E94E20B84B1876084B90E94C20B6E
:1019B00082E00E947F03CE010E94770381E18E8F37
:1019C000DF91CF911F910895CF93DF93CDB7DEB70D
:1019D000C257D1090FB6F894DEBF0FBECDBF7894C1
:1019E00084B5826084BD84B5816084BD85B5826024
:1019F00085BD85B5816085BD80916E0081608093D5
:101A00006E0010928100809181008260809381003D
:101A1000809181008160809381008091800081604D
:101A2000809380008091B10084608093B1008091A8
:101A3000B00081608093B00080917A0084608093D0
:101A40007A0080917A00826080937A0080917A0097
:101A5000816080937A0080917A00806880937A0018
:101A60001092C100E0913302F091340282E0808351
:101A7000E0912F02F09130021082E0913102F0915A
:101A800032028FEC808310923B02E0913702F0919A
:101A9000380286E08083E0913502F0913602808141
:101AA00080618083E0913502F09136028081886008
:101AB0008083E0913502F0913602808180688083D6
:101AC000E0913502F091360280818F7D808366EA55
:101AD00071E0CE0101960E94000720E041E0BE01C6
:101AE0006F5F7F4F80EC92E00E945303CE0101961E
:101AF0000E948B0661EB71E0CE0101960E94000707
:101B000021E041E0BE016F5F7F4F80EC92E00E94D8
:101B10005303CE0101960E948B0664EF71E080E0D2
:101B200090E00E94670220E0622E20E0722E3EE5E7
:101B3000A32E31E0B32E80EC92E00E94770362EC9A
:101B400071E0CE0101960E94000720E041E0BE0155
:101B50006F5F7F4F80EC92E00E945303CE010196AD
:101B60000E948B066CEC71E0CE0101960E9400078A
:101B700021E040E0BE016F5F7F4F80EC92E00E9469
:101B80005303CE0101960E948B0641E062E373E0AD
:101B9000CE0101960E947009CE0101960E94200696
:101BA0006B017C01CE0101960E948B0681E0C81674
:101BB000D104E104F10499F0E2E0CE16D104E1048D
:101BC000F10409F40BC16114710409F4B4CF0E944B
:101BD0005301882309F4AFCF0E940000ACCF80EC02
:101BE00092E00E9477036CED71E0CE0101960E94B5
:101BF000000720E040E0BE016F5F7F4F80EC92E085
:101C00000E945303CE0101960E948B0668EE71E09C
:101C1000CE0101960E94000721E040E0BE016F5F07
:101C20007F4F80EC92E00E945303CE0101960E9408
:101C30008B0641E062E373E0CE0101960E947009D9
:101C4000CE0101960E9420066B017C01CE01019617
:101C50000E948B06F1E0CF16D104E104F10491F16A
:101C600082E0C816D104E104F10409F0ACCF40E0F1
:101C700062E373E0CE0101960E94700963E771E0B0
:101C8000CE0101960E942B06182FCE0101960E94CC
:101C90008B06112309F497CF80E00E942A049093C9
:101CA0002202809321020E94C90580912102909115
:101CB00022020E94020668EC70E080E090E00E9440
:101CC0006702D5CF8091C2029091C3029C838B831F
:101CD000BA82A9828091C4028D838091C5028E83CD
:101CE0008091C6028F8388E0E7ECF2E0DE0118966F
:101CF00001900D928A95E1F78091CF02888B8091B7
:101D0000D002898B8091D1028A8B8091D2028B8BF9
:101D10008091D3028C8B8091D4029091D502A091B6
:101D2000D602B091D7028D8B9E8BAF8BB88F86E099
:101D3000E8EDF2E0DE01599601900D928A95E1F707
:101D40008091DE028F8F6FED72E0CE0180960E944F
:101D5000E6068091E5029091E602A091E7028EA34B
:101D60009FA3A8A76E01E9E2CE0ED11C98EEE92E42
:101D700092E0F92E460110E000E0B701600F711FFC
:101D8000C601800F911F0E94E6060A5F1F4F0231B5
:101D9000110599F7F2E1EF0EF11C82E1C80ED11C9A
:101DA000E0E3EE16E3E0FE0631F780913003E296C1
:101DB0008FAFE297CE0101960E9411078E010F5856
:101DC0001F4F06501109C8010E948B0608151905FE
:101DD000C1F7CE0180960E948B06F5CE80EC92E092
:101DE0000E94770366EF71E0CE0101960E94000722
:101DF00020E040E0BE016F5F7F4F80EC92E00E94E8
:101E00005303CE0101960E948B0665E072E0CE017D
:101E100001960E94000721E040E0BE016F5F7F4F06
:101E200080EC92E00E945303CE0101960E948B0643
:101E300041E062E373E0CE0101960E947009CE0199
:101E400001960E9420066B017C01CE0101960E9442
:101E50008B06F1E0CF16D104E104F10491F182E0A8
:101E6000C816D104E104F10409F0ADCE40E062E30C
:101E700073E0CE0101960E94700963E771E0CE0124
:101E800001960E942B06182FCE0101960E948B0608
:101E9000112309F498CE80E00E942A049093220234
:101EA000809321020E94C905809121029091220213
:101EB0000E94020668EC70E080E090E00E946702F9
:101EC000D5CF80EC92E00E94770366E671E080EC6B
:101ED00092E00E94C7050E943B0360E083E00E94FD
:101EE000F1099093D9028093D80240E068E080EC39
:101EF00092E00E9445036AE671E080EC92E00E9465
:101F0000C7050E943B0360E08BE00E94F1099093BB
:101F1000DB028093DA0241E060E080EC92E00E9414
:101F200045036EE671E080EC92E00E94C7050E94D6
:101F30003B0361E083E00E94F1099093DD0280930E
:101F4000DC026091D0026E7F6093D002686080EC0A
:101F500092E00E94380341E068E080EC92E00E9449
:101F6000450362E172E080EC92E00E94C70588EDD3
:101F7000E82E82E0F82E10E0F701619171917F0167
:101F800083E292E00E943C0564E771E0123011F4B4
:101F900062E771E083E292E00E94C7051F5F1330A1
:101FA00059F740E068EE72E0CE0101960E94700998
:101FB00063E771E0CE0101960E942B06182FCE0137
:101FC00001960E948B061123D9F008ED12E0F12C46
:101FD00085B18C7F8F2985B9F801819191918F010D
:101FE000992790938B0080938A0064E670E080E0EC
:101FF00090E00E946702F394F3E0FF12E9CFD1CFA3
:1020000080EC92E00E94770388ED92E090932202A8
:1020100080932102D8CDCF93DF93C0E3D3E02697FE
:10202000CE010E948B0682E0C83ED807C1F78FED33
:1020300092E00E948B06CAE7D3E02697CE010E9469
:102040008B0683E0C233D807C1F7DF91CF910895A3
:102050001F93FC0199278827BC01E8941191103245
:10206000E9F3193010F01E30C8F31B3251F01D3265
:1020700049F4689406C00E945A10610F711D811DB9
:10208000911D119110531A30B0F33EF49095809544
:10209000709561957F4F8F4F9F4F1F910895BB277C
:1020A0004A3031F4992322F4BDE2909581959F4FF7
:1020B0000C947010592F482F372F262F660F771F3B
:1020C000881F991F660F771F881F991F620F731F44
:1020D000841F951F660F771F881F991F0895BB27C0
:1020E000FB015527AA27880F991FAA1FA41710F0D4
:1020F000A41B83955051B9F7A05DAA3308F0A95DE0
:10210000A193009779F7B111B1931192CB010C947F
:102110008910DC01FC01672F71917723E1F7329779
:1021200004C07C916D9370836291AE17BF07C8F3B2
:102130000895E89409C097FB3EF4909580957095BA
:1021400061957F4F8F4F9F4F9923A9F0F92F96E903
:10215000BB279395F695879577956795B795F11178
:10216000F8CFFAF4BB0F11F460FF1BC06F5F7F4F15
:102170008F4F9F4F16C0882311F096E911C0772327
:1021800021F09EE8872F762F05C0662371F096E830
:10219000862F70E060E02AF09A95660F771F881FFF
:1021A000DAF7880F9695879597F908950E94E910B8
:1021B0000C945A110E944C1138F00E94531120F0D7
:1021C000952311F00C9443110C94491111240C9493
:1021D0008E110E946B1170F3959FC1F3950F50E023
:1021E000551F629FF001729FBB27F00DB11D639FC9
:1021F000AA27F00DB11DAA1F649F6627B00DA11D6F
:10220000661F829F2227B00DA11D621F739FB00D14
:10221000A11D621F839FA00D611D221F749F332784
:10222000A00D611D231F849F600D211D822F762F1D
:102230006A2F11249F5750409AF0F1F088234AF0FA
:10224000EE0FFF1FBB1F661F771F881F9150504066
:10225000A9F79E3F510580F00C9443110C948E1108
:102260005F3FE4F3983ED4F3869577956795B795ED
:10227000F795E7959F5FC1F7FE2B880F911D969507
:10228000879597F9089597F99F6780E870E060E077
:1022900008959FEF80EC089500240A9416161706FF
:1022A00018060906089500240A9412161306140647
:1022B00005060895092E0394000C11F4882352F0AA
:1022C000BB0F40F4BF2B11F460FF04C06F5F7F4F62
:1022D0008F4F9F4F089557FD9058440F551F59F049
:1022E0005F3F71F04795880F97FB991F61F09F3F03
:1022F00079F087950895121613061406551FF2CF2C
:102300004695F1DF08C0161617061806991FF1CF7B
:1023100086957105610508940895E894BB276627A2
:102320007727CB0197F90895052E97FB1EF40094AB
:102330000E94AB1157FD07D00E94F51107FC03D096
:102340004EF40C94AB1150954095309521953F4F2C
:102350004F4F5F4F089590958095709561957F4F91
:102360008F4F9F4F08950E941712A59F900DB49F05
:10237000900DA49F800D911D112408952F923F92DE
:102380004F925F926F927F928F929F92AF92BF9285
:10239000CF92DF92EF92FF920F931F93CF93DF9331
:1023A000CDB7DEB7CA1BDB0B0FB6F894DEBF0FBE8E
:1023B000CDBF09942A88398848885F846E847D84DB
:1023C0008C849B84AA84B984C884DF80EE80FD80DD
:1023D0000C811B81AA81B981CE0FD11D0FB6F89453
:1023E000DEBF0FBECDBFED010895A1E21A2EAA1BDC
:1023F000BB1BFD010DC0AA1FBB1FEE1FFF1FA217B5
:10240000B307E407F50720F0A21BB30BE40BF50BB1
:10241000661F771F881F991F1A9469F7609570953A
:10242000809590959B01AC01BD01CF010895A29FBD
:10243000B001B39FC001A39F700D811D1124911D98
:10244000B29F700D811D1124911D08955058BB2716
:10245000AA270E943E120C945A110E944C1138F087
:102460000E94531120F039F49F3F19F426F40C9484
:1024700049110EF4E095E7FB0C944311E92F0E94FB
:102480006B1158F3BA17620773078407950720F09A
:1024900079F4A6F50C948D110EF4E0950B2EBA2F5D
:1024A000A02D0B01B90190010C01CA01A00111245A
:1024B000FF27591B99F0593F50F4503E68F11A1606
:1024C000F040A22F232F342F4427585FF3CF469597
:1024D00037952795A795F0405395C9F77EF41F16B9
:1024E000BA0B620B730B840BBAF09150A1F0FF0F83
:1024F000BB1F661F771F881FC2F70EC0BA0F621F6F
:10250000731F841F48F4879577956795B795F7955E
:102510009E3F08F0B0CF9395880F08F09927EE0FF3
:102520009795879508950E94A7120C945A110E94BE
:10253000531158F00E944C1140F029F45F3F29F0EC
:102540000C94431151110C948E110C9449110E945A
:102550006B1168F39923B1F3552391F3951B550B38
:10256000BB27AA2762177307840738F09F5F5F4F66
:10257000220F331F441FAA1FA9F335D00E2E3AF0A5
:10258000E0E832D091505040E695001CCAF72BD0BD
:10259000FE2F29D0660F771F881FBB1F261737070E
:1025A0004807AB07B0E809F0BB0B802DBF01FF2740
:1025B00093585F4F3AF09E3F510578F00C944311C9
:1025C0000C948E115F3FE4F3983ED4F38695779593
:1025D0006795B795F7959F5FC9F7880F911D9695F9
:1025E000879597F90895E1E0660F771F881FBB1F55
:1025F000621773078407BA0720F0621B730B840B02
:10260000BA0BEE1F88F7E09508950E940C136894AA
:10261000B1110C948E1108950E94731188F09F5788
:1026200098F0B92F9927B751B0F0E1F0660F771FF6
:10263000881F991F1AF0BA95C9F714C0B13091F0EC
:102640000E948D11B1E008950C948D11672F782FA1
:102650008827B85F39F0B93FCCF3869577956795B1
:10266000B395D9F73EF490958095709561957F4F1D
:102670008F4F9F4F089516F00C9415140C94491128
:1026800068940C9443110E947311A8F39923C1F329
:10269000AEF3DF93CF931F930F93FF92C92FDD27E4
:1026A00088232AF02197660F771F881FDAF720E02A
:1026B00030E040E85FEB9FE3883920F0803E38F05F
:1026C00021968F770E942712E8E6F0E004C00E946E
:1026D0002712E5E9F0E00E9423148B01BE01EC0112
:1026E000FB2E6F5771097595771F880B990B0E9408
:1026F0009B1028E132E741E35FE30E94E910AF2D30
:102700009801AE01FF900F911F91CF91DF910E9430
:102710003E120C945A11FA01EE0FFF1F309621055C
:102720003105A1F16115710561F48038BFE39B07A4
:1027300049F168949038810561F08038BFEF9B07BC
:1027400041F099234AF5FF3FE1053105210519F1D3
:10275000E8940894E795D901AA2329F4AB2FBE2F5A
:10276000F85FD0F310C0FF5F70F4A695E0F7F7397B
:1027700050F019F0FF3A38F49F779F930DD00F90E7
:1027800007FC9058089546F00C94491160E070E001
:1027900080E89FE308954FE79F775F934F933F93C0
:1027A0002F930E9443132F913F914F915F910E946D
:1027B000D6100C94E31329F416F00C9443110C94E6
:1027C0008D110C9449110E947311A8F39638A0F74B
:1027D00007F80F92E8942BE33AEA48EB5FE70E9490
:1027E000EC100F920F920F924DB75EB70F920E94AE
:1027F0008C14E2ECF0E00E9423144F915F91EF9172
:10280000FF91E595EE1FFF1F49F0FE57E068442752
:10281000EE0F441FFA95E1F74195550B0E945614AF
:102820000F9007FE0C944A1408959F3F31F0915089
:1028300020F4879577956795B795880F911D9695A4
:10284000879597F90895DF93CF931F930F93FF9286
:10285000EF92DF927B018C01689406C0DA2EEF01C3
:102860000E94E910FE01E894A591259135914591CA
:102870005591A6F3EF010E943E12FE019701A801B7
:10288000DA9469F7DF90EF90FF900F911F91CF914D
:10289000DF9108959B01AC0160E070E080E89FE368
:1028A0000C9493120C9443110C9415140E94731100
:1028B000D8F39923C9F3940F511DA3F391505040BD
:1028C00094F059F0882332F0660F771F881F9150DB
:1028D0005040C1F79E3F51052CF7880F911D9695EA
:1028E000879597F908955F3FACF0983E9CF0BB2721
:1028F000869577956795B79508F4B1609395C1F77C
:10290000BB0F58F711F460FFE8CF6F5F7F4F8F4F19
:102910009F4FE3CF0C948E11FA01DC01AA0FBB1F6D
:102920009B01AC01BF5728F4222733274427507856
:1029300020C0B75190F4AB2F0024469537952795CA
:10294000011CA395D2F3002071F0220F331F441F06
:10295000B395DAF30ED00C94261261307105A0E81D
:102960008A07B94630F49B01AC0166277727882790
:102970009078309621F020833183428353830895E9
:10298000EE0FFF1F0590F491E02D09940F931F9314
:10299000CF93DF938230910510F482E090E0E091D4
:1029A000B603F091B70330E020E0B0E0A0E030974C
:1029B00099F42115310509F44AC0281B390B24303C
:1029C0003105D8F58A819B816115710589F1FB017B
:1029D00093838283FE0111C0408151810281138162
:1029E00048175907E0F04817590799F4109761F014
:1029F00012960C93129713961C933296CF01DF9187
:102A0000CF911F910F9108950093B6031093B703D0
:102A1000F4CF2115310551F04217530738F0A901C1
:102A2000DB019A01BD01DF01F801C1CFEF01F9CF50
:102A30009093B7038093B603CDCFFE01E20FF31F4F
:102A4000819391932250310939832883D7CF2091E4
:102A5000B4033091B503232B41F42091050130914B
:102A600006013093B5032093B40320910301309104
:102A700004012115310541F42DB73EB740910701FE
:102A800050910801241B350BE091B403F091B5037C
:102A9000E217F307A0F42E1B3F0B2817390778F035
:102AA000AC014E5F5F4F2417350748F04E0F5F1F94
:102AB0005093B5034093B403819391939FCFF0E07B
:102AC000E0E09CCFCF93DF930097E9F0FC013297D1
:102AD00013821282A091B603B091B703ED0130E0EA
:102AE00020E01097A1F420813181820F931F209163
:102AF000B4033091B5032817390709F061C0F0938A
:102B0000B503E093B403DF91CF910895EA01CE17A6
:102B1000DF07E8F54A815B819E0141155105B1F758
:102B2000E901FB83EA8349915991C40FD51FEC1742
:102B3000FD0761F4808191810296840F951FE90160
:102B400099838883828193819B838A83F0E0E0E08C
:102B500012968D919C9113970097B9F52D913C9108
:102B60001197CD010296820F931F2091B4033091EB
:102B7000B5032817390739F6309751F51092B70386
:102B80001092B603B093B503A093B403BCCFD38324
:102B9000C28340815181840F951FC817D90761F402
:102BA0004E5F5F4F88819981480F591F5183408341
:102BB0008A819B81938382832115310509F0B0CFEF
:102BC000F093B703E093B6039ECFFD01DC01C0CFC5
:102BD00013821282D7CFB0E0A0E0E1EFF5E10C94D0
:102BE000C0118C01009751F4CB010E94C6148C01D6
:102BF000C801CDB7DEB7E0E10C94DC11FC01E60FB3
:102C0000F71F9C0122503109E217F30708F49DC019
:102C1000D901CD91DC911197C617D70798F0C5302F
:102C2000D10530F3CE0104978617970708F3C61B2A
:102C3000D70B2297C193D1936D937C93CF010E94C0
:102C40006215D6CF5B01AC1ABD0A4C018C0E9D1EDD
:102C5000A091B603B091B703512C412CF12CE12C7B
:102C6000109731F58091B4039091B50388159905BB
:102C700009F05CC04616570608F058C08091030161
:102C800090910401009741F48DB79EB740910701E0
:102C900050910801841B950BE817F90708F055C0FF
:102CA000F093B503E093B403F90171836083A0CF7F
:102CB0008D919C91119712966C90129713967C901F
:102CC0001397A815B90559F56C0142E0C40ED11C43
:102CD000CA14DB0420F1AC014A195B09DA0112962F
:102CE000159780F06282738251834083D9016D937E
:102CF0007C93E114F10471F0D7011396FC93EE93E9
:102D0000129776CF22968C0F9D1FF90191838083B5
:102D1000F301EFCFF093B703E093B60369CF481602
:102D2000590608F42C017D01D3019ACFCB010E94F2
:102D3000C6147C01009749F0AE01B8010E94A816A4
:102D4000C8010E946215870153CF10E000E050CF08
:102D5000FB01DC0102C001900D9241505040D8F7B8
:102D60000895FB01DC018D91019080190110D9F3C8
:102D7000990B0895FB01DC0101900D920020E1F711
:102D8000089510E0CEE9D0E004C0FE010E94C01416
:102D90002196CF39D107C9F7F894FFCF100F0E0055
:102DA00000B80380000000803F404D913FA323996D
:102DB0003F67246845CFFE8C43CDCCCC3D65105693
:102DC0003C17FDA6440000C03FA8F3A63E14F83C03
:102DD000C39A99993F5A12CFC5B14FF3C3072C62DA
:102DE00042100F0E000000008901E9001601D60113
:102DF000470125013901000000003203E900990272
:102E0000E800523A2000473A2000423A20000A00E7
:102E10002C0050657263656E74616765203E00200A
:102E20002500310032003300340035003600370011
:102E3000380039002A00300023004552520020207B
:102E4000200057656C636F6D65202121005465611A
:102E50006D205361676974746172697573004D61A7
:102E6000696E204D656E7500313A53656E73203280
:102E70003A5267624C65640043616C6962726174C6
:102E800065203F00313A59657320202020323A4EA8
:102E90006F00313A20436F6C6F7220696E707574E9
:102EA00000323A205265616C2054696D6500446FB0
:042EB0006E6521002A
:107E0000112484B714BE81FFF0D085E080938100F7
:107E100082E08093C00088E18093C10086E0809377
:107E2000C20080E18093C4008EE0C9D0259A86E02C
:107E300020E33CEF91E0309385002093840096BBD3
:107E4000B09BFECF1D9AA8958150A9F7CC24DD24C4
:107E500088248394B5E0AB2EA1E19A2EF3E0BF2EE7
:107E6000A2D0813461F49FD0082FAFD0023811F036
:107E7000013811F484E001C083E08DD089C08234E0
:107E800011F484E103C0853419F485E0A6D080C0E4
:107E9000853579F488D0E82EFF2485D0082F10E0AE
:107EA000102F00270E291F29000F111F8ED06801E7
:107EB0006FC0863521F484E090D080E0DECF843638
:107EC00009F040C070D06FD0082F6DD080E0C81688
:107ED00080E7D80618F4F601B7BEE895C0E0D1E017
:107EE00062D089930C17E1F7F0E0CF16F0E7DF06D8
:107EF00018F0F601B7BEE89568D007B600FCFDCFD4
:107F0000A601A0E0B1E02C9130E011968C91119780
:107F100090E0982F8827822B932B1296FA010C0160
:107F200087BEE89511244E5F5F4FF1E0A038BF0790
:107F300051F7F601A7BEE89507B600FCFDCF97BE46
:107F4000E89526C08437B1F42ED02DD0F82E2BD052
:107F50003CD0F601EF2C8F010F5F1F4F84911BD097
:107F6000EA94F801C1F70894C11CD11CFA94CF0C13
:107F7000D11C0EC0853739F428D08EE10CD085E9AC
:107F80000AD08FE07ACF813511F488E018D01DD067
:107F900080E101D065CF982F8091C00085FFFCCF94
:107FA0009093C60008958091C00087FFFCCF809118
:107FB000C00084FD01C0A8958091C6000895E0E648
:107FC000F0E098E1908380830895EDDF803219F02E
:107FD00088E0F5DFFFCF84E1DECF1F93182FE3DFCA
:107FE0001150E9F7F2DF1F91089580E0E8DFEE27F6
:047FF000FF270994CA
:027FFE00040479
:00000001FF
