:020000040000FA
:100000000C945E000C9486000C9486000C94860080
:100010000C9486000C9486000C9486000C94860048
:100020000C9486000C9486000C9486000C94860038
:100030000C9486000C9486000C9486000C94860028
:100040000C94E4060C9486000C94B2060C948C0676
:100050000C9486000C9486000C9486000C94860008
:100060000C9486000C948600000000080002010039
:100070000003040700000000000000000000000072
:10008000250028002B0000000000240027002A0083
:10009000040404040404040402020202020203032E
:1000A0000303030301020408102040800102040836
:1000B00010200102040810202E07330A11241FBE4D
:1000C000CFEFD8E0DEBFCDBF12E0A0E0B1E0E0E8C6
:1000D000F9E102C005900D92AC33B107D9F723E0E6
:1000E000ACE3B2E001C01D92A635B207E1F710E023
:1000F000CDE5D0E004C02197FE010E94B20ACC35C4
:10010000D107C9F70E94F2070C94B30C0C940000BD
:1001100090E0FC01EC55FF4F249180579F4FFC016C
:100120008491882399F090E0880F991FFC01EA5789
:10013000FF4FA591B491FC01E458FF4F8591949134
:100140008FB7F894EC91E22BEC938FBF089508954C
:10015000AF92BF92CF92DF92EF92FF920F931F93D5
:10016000CF93DF936C017B018B01040F151FEB0113
:100170005E01AE18BF08C017D10759F06991D601CA
:10018000ED91FC910190F081E02DC6010995892B3C
:1001900079F7C501DF91CF911F910F91FF90EF90FB
:1001A000DF90CF90BF90AF900895FC01538D448DA8
:1001B000252F30E0842F90E0821B930B541710F012
:1001C000CF96089501970895FC01918D828D98171F
:1001D00061F0A28DAE0FBF2FB11D5D968C91928DF7
:1001E0009F5F9F73928F90E008958FEF9FEF089528
:1001F000FC01918D828D981731F0828DE80FF11DF1
:10020000858D90E008958FEF9FEF0895FC01918D0B
:10021000228D892F90E0805C9F4F821B91098F7304
:100220009927089585E492E00E94060121E0892B38
:1002300009F420E0822F089580E090E0892B29F0D6
:100240000E94120181110C9400000895FC01A48DFC
:10025000A80FB92FB11DA35ABF4F2C91848D90E0E8
:1002600001968F739927848FA689B7892C93A089CB
:10027000B1898C91837080648C93938D848D981355
:1002800006C00288F389E02D80818F7D80830895E8
:10029000EF92FF920F931F93CF93DF93EC0181E0D6
:1002A000888F9B8D8C8D98131AC0E889F98980817D
:1002B00085FF15C09FB7F894EE89FF896083E889B0
:1002C000F98980818370806480839FBF81E090E0A2
:1002D000DF91CF911F910F91FF90EF900895F62E2F
:1002E0000B8D10E00F5F1F4F0F731127E02E8C8DC9
:1002F0008E110CC00FB607FCFACFE889F98980810E
:1003000085FFF5CFCE010E942601F1CFEB8DEC0FDA
:10031000FD2FF11DE35AFF4FF0829FB7F8940B8F2A
:10032000EA89FB8980818062CFCFCF93DF93EC0194
:10033000888D8823B9F0AA89BB89E889F9898C91CD
:1003400085FD03C0808186FD0DC00FB607FCF7CF89
:100350008C9185FFF2CF808185FFEDCFCE010E9489
:100360002601E9CFDF91CF91089590E0FC01E85993
:10037000FF4F2491FC01EC55FF4F3491FC01E057F5
:10038000FF4FE491EE23C9F0222339F0233001F12D
:10039000A8F4213019F1223029F1F0E0EE0FFF1F0F
:1003A000E458FF4FA591B4918FB7F894EC91611187
:1003B00026C030953E233C938FBF08952730A9F087
:1003C0002830C9F0243049F7809180008F7D03C028
:1003D000809180008F7780938000DFCF84B58F7706
:1003E00084BDDBCF84B58F7DFBCF8091B0008F774C
:1003F0008093B000D2CF8091B0008F7DF9CF3E2B9B
:10040000DACF8E3008F08E508770806480937C0045
:1004100080917A00806480937A0080917A0086FDD2
:10042000FCCF809178009091790008953FB7F894BF
:100430008091410290914202A0914302B091440206
:1004400026B5A89B05C02F3F19F00196A11DB11D2F
:100450003FBFBA2FA92F982F8827BC01CD01620F6B
:10046000711D811D911D42E0660F771F881F991F26
:100470004A95D1F708958F929F92AF92BF92CF92F3
:10048000DF92EF92FF924B015C010E9416026B011A
:100490007C010E9416026C197D098E099F09683E35
:1004A000734081059105A8F321E0821A9108A10803
:1004B000B10888EEC80E83E0D81EE11CF11C81143F
:1004C0009104A104B10429F7FF90EF90DF90CF9041
:1004D000BF90AF909F908F90089590E080E0089536
:1004E000CF93DF93EC0160E08E810E94B50161E063
:1004F0008E810E94B50160E08E810E94B5018BE87B
:1005000091E00197F1F7DF91CF910895CF92DF92BB
:10051000EF92FF920F931F93CF93DF936C017C01B7
:1005200087E0E80EF11CD0E0C0E0062F10E0B80133
:100530000C2E02C0759567950A94E2F76170F70179
:1005400081917F010E94B5012196C430D10579F7D0
:10055000C601DF91CF911F910F91FF90EF90DF9037
:10056000CF900C947002CF92DF92EF92FF920F9394
:100570001F93CF93DF93EC01F62E642F8C810E94A2
:10058000B5018D818F3F19F060E00E94B5010F2DFC
:1005900010E08F8584FF25C06E0187E0C80ED11C56
:1005A000F12CE12CB8010E2C02C0759567950A94C8
:1005B000E2F76170F60181916F010E94B501FFEFD2
:1005C000EF1AFF0A88E0E816F10461F7CE01DF9127
:1005D000CF911F910F91FF90EF90DF90CF900C94EF
:1005E0007002B80184E0759567958A95E1F7CE01B0
:1005F0000E9486026F2DCE01DF91CF911F910F9146
:10060000FF90EF90DF90CF900C94860240E0682F2F
:1006100082EE92E00C94B30281E00E9406038BE329
:100620009FE10197F1F70895CF93DF93823029F48A
:100630009091F10298609093F1028093F5021092EC
:10064000F60280E48093F70280E18093F80280E56F
:100650008093F9028091E6020E9488008091E7026F
:100660008F3F11F00E9488008091E8020E9488006C
:10067000C2EED2E09E01225E32408091F10284FD02
:100680000AC084E090E02196281739073CF48E8157
:100690000E948800EFCF88E090E0F5CF8BE39DE0EB
:1006A0000197F1F760E08091E6020E94B50160E0F9
:1006B0008091E8020E94B5018091E7028F3F19F016
:1006C00060E00E94B5018091F10284FD34C063E0D6
:1006D00082EE92E00E948602CBE4D6E4CE0101973E
:1006E000F1F763E082EE92E00E9486022197F1F733
:1006F00063E082EE92E00E94860283E592E0019739
:10070000F1F762E082EE92E00E9486028091F102AF
:1007100080620E94060384E08093F2028CE00E94D3
:1007200006030E940C0382E08093F30286E0DF91CF
:10073000CF910C94060380620E9406038BE496E43A
:100740000197F1F78091F10280620E94060383E530
:1007500092E00197F1F78091F10280620E94060316
:10076000D5CF9091F502691710F06FEF690FE62F62
:10077000F0E0EE51FD4F9489890F80680C940603D8
:10078000CF93DF93EC01613071F0642F80E00E9421
:10079000B1034C815D816881798182EE92E0DF91C5
:1007A000CF910C94A8002C813D8180E190E0821BC8
:1007B000930B96958795642FEACFE2EEF2E080895D
:1007C000982F9160908B89600C94060341E00E9401
:1007D000B30281E090E00895FC0101900020E9F768
:1007E0003197AF01481B590BBC0182EE92E00C948B
:1007F000A800FC0180819181009711F00C94540BAA
:100800000895FC0180819181009711F00C943F0ABA
:1008100060E070E0CB0108950F931F93CF93DF93B7
:100820008C01EB01FC01808191810097E1F06881EE
:10083000798161157105A9F0428153812C813D8137
:100840004217530770F00E94AC0C8C819D81F80117
:10085000958384831D821C82DF91CF911F910F911C
:1008600008950E94540B88819981F80191838083B7
:100870008A819B81938382838C819D8195838483EC
:10088000198218821B821A82E5CF0F931F93CF9390
:10089000DF93EC0188819981009759F02A813B818F
:1008A0002617370730F081E0DF91CF911F910F912C
:1008B00008958B016F5F7F4F0E94DD0B009759F009
:1008C000998388831B830A832C813D81232B59F7CD
:1008D000FC011082E8CF80E0E7CFEF92FF920F9308
:1008E0001F93CF93DF936115710541F480E0DF9191
:1008F000CF911F910F91FF90EF90089541155105F1
:10090000B1F07B01EC010C811D81040F151FB801B2
:100910000E944504882351F3288139818C819D816F
:10092000B701820F931F0E94AC0C1D830C8381E0E2
:10093000DECFFB0101900020E9F73197AF01461BA4
:10094000570B0C946D04EF92FF920F931F93CF936C
:10095000DF93EC017B018A01BA010E9445042881E2
:100960003981811114C02115310519F0C9010E9486
:10097000540B198218821D821C821B821A82CE019E
:10098000DF91CF911F910F91FF90EF9008951D83FC
:100990000C83B701C9010E94AC0CF1CFFB0101909F
:1009A0000020E9F73197AF01461B570B0C94A304C5
:1009B000EF92FF920F931F93CF93DF937C018B01F4
:1009C000EB01239666E771E0CE010E94CE04F801A8
:1009D00087819085892B09F060C081E10E94010226
:1009E000F8019283818361E070E080E090E00E94F2
:1009F0003B02F801818192811816190644F767E5D8
:100A000071E08A39F1E09F07ECF169E571E0833B21
:100A100021E09207BCF16BE571E0873CE1E09E07C5
:100A20008CF16DE571E0803EF1E09F075CF16FE5D0
:100A300071E0843422E092072CF161E671E08C369B
:100A4000E2E09E07FCF063E671E08439F2E09F0784
:100A5000CCF065E671E0803D22E092079CF067E60D
:100A600071E08032E3E09E076CF069E671E0803768
:100A7000F3E09F073CF06BE671E0803C934014F09C
:100A80006DE671E0CE010E949904F80180810E9418
:100A9000010218161906CCF39ACFF70111821082C1
:100AA0001382128215821482EC16FD0659F0F801A9
:100AB000638174816115710529F047815085C701F3
:100AC0000E94A304C701DF91CF911F910F91FF9066
:100AD000EF900895FC011182108213821282158218
:100AE0001482FB0101900020E9F73197AF01461B0A
:100AF000570B0C94A3048F929F92AF92BF92CF9208
:100B0000DF92EF92FF920F931F93CF93DF93CDB7B6
:100B1000DEB72C970FB6F894DEBF0FBECDBFF82E10
:100B2000E62E66E771E081E093E00E94CE0466E77E
:100B300071E0CE0107960E946A0567E073E0CE017E
:100B400001960E94D804BE016F5F7F4FCE010796C9
:100B50000E940C04CE0101960E94F903AB84BC8470
:100B6000CF80D884A114B10409F4AFC06DE671E060
:100B7000C6010E94A30C892B09F041C081E093E0DB
:100B80000E9401044B015C018FEF88169104A104BF
:100B9000B10409F00CF4A8C06E2D8F2D0E94B10392
:100BA00010E080910503909106031817190630F4A0
:100BB00085E791E00E94EC031F5FF3CF6E2D8F2D30
:100BC0000E94B1038FE691E00E94EC0364EF71E0B4
:100BD00080E090E00E943B026E2D8F2D0E94B103B9
:100BE00083E791E00E94EC036E2D8F2D0E94B103EC
:100BF00066E771E081E093E00E94CE049ECF6DE550
:100C000071E0C6010E94A30C892B09F05EC000911F
:100C10000503109106030115110509F456C066E796
:100C200071E0CE0101960E946A05809105039091C2
:100C30000603009709F1015011098017910708F484
:100C40008C01E0910103F0910203E00FF11FD080CD
:100C5000108260910103709102036115710541F1E9
:100C6000CE0101960E94CE0480910103909102036F
:100C7000080F191FF801D082BE016F5F7F4F81E01E
:100C800093E00E940C04CE0101960E94F90380912A
:100C900005036E2D8F0D0E94B10385E791E00E9440
:100CA000EC03809105036E2D8F0D0E94B10345CF9B
:100CB00089819A81009711F00E94540B1A8219823F
:100CC0001E821D821C821B82CFCFA501B60181E04E
:100CD00093E00E946D044B855C856F81788582EE80
:100CE00092E00E94A80029CFCE0107960E94F90346
:100CF000C4012C960FB6F894DEBF0FBECDBFDF91B6
:100D0000CF911F910F91FF90EF90DF90CF90BF9008
:100D1000AF909F908F9008951F920F920FB60F92F1
:100D200011242F933F934F935F936F937F938F93F0
:100D30009F93AF93BF93EF93FF9385E492E00E945C
:100D40002601FF91EF91BF91AF919F918F917F917C
:100D50006F915F914F913F912F910F900FBE0F9028
:100D60001F9018951F920F920FB60F9211242F9378
:100D70008F939F93EF93FF93E0915502F09156026A
:100D80008081E0915B02F0915C0282FD1BC090814A
:100D900080915E028F5F8F7320915F02821741F016
:100DA000E0915E02F0E0EB5BFD4F958F80935E0279
:100DB000FF91EF919F918F912F910F900FBE0F9008
:100DC0001F9018958081F4CF1F920F920FB60F924B
:100DD00011242F933F938F939F93AF93BF93809151
:100DE0003D0290913E02A0913F02B09140023091AD
:100DF0003C0223E0230F2D3758F50196A11DB11DAC
:100E000020933C0280933D0290933E02A0933F02C8
:100E1000B09340028091410290914202A09143021E
:100E2000B09144020196A11DB11D8093410290939F
:100E30004202A0934302B0934402BF91AF919F91AD
:100E40008F913F912F910F900FBE0F901F9018958B
:100E500026E8230F0296A11DB11DD2CF0F931F9339
:100E6000CF93DF93E5E4F2E01382128288EE93E001
:100E7000A0E0B0E084839583A683B7838DE391E0FF
:100E80009183808385EC90E09587848784EC90E063
:100E90009787868780EC90E0918B808B81EC90E047
:100EA000938B828B82EC90E0958B848B86EC90E028
:100EB000978B868B118E128E138E148E06E0ECE1CA
:100EC000F3E0DF01802F1D928A95E9F784E2E9E0E3
:100ED000F1E0A2E2B3E001900D928A95E1F78CE097
:100EE000EDE2F1E0A6E4B3E001900D928A95E1F71E
:100EF000E9E1F3E0A0E0B1E08C91808311968C9160
:100F00001197818312968C918283C0E1D3E018827D
:100F10001A82198267E771E083E193E00E946A0513
:100F200011E1188384B1876084B9E1E8F0E0808141
:100F30008860808380818F7E8083A0E8B0E08C9180
:100F400081608C938C918D7F8C938C9180628C933B
:100F50008C918F7E8C9380818160808380818D7F56
:100F6000808380818B7F8083C2EED2E01B821A82D5
:100F70008FE491E09983888382E08C838FEF8D8367
:100F800083E08E8384E08F8385E08887098787E00C
:100F90008A871B861C861D861E861F8681E00E940E
:100FA0001403EAEFF2E0DF011D920A95E9F766E724
:100FB00071E081E093E00E946A051DA21FA21EA2BB
:100FC00067E771E08AE093E00E946A051DA382E072
:100FD0000E9414030E940C031E8FDF91CF911F917A
:100FE0000F910895CF93DF93CDB7DEB7A1970FB6DA
:100FF000F894DEBF0FBECDBF789484B5826084BD07
:1010000084B5816084BD85B5826085BD85B581600C
:1010100085BD80916E00816080936E00109281008A
:101020008091810082608093810080918100816045
:101030008093810080918000816080938000809106
:10104000B10084608093B1008091B0008160809392
:10105000B00080917A00846080937A0080917A0059
:10106000826080937A0080917A00816080937A0018
:1010700080917A00806880937A001092C100E0919C
:101080005502F091560282E08083E0915102F09186
:1010900052021082E0915302F09154028FEC80834F
:1010A00010925D02E0915902F0915A0286E080832D
:1010B000E0915702F0915802808180618083E09135
:1010C0005702F0915802808188608083E091570236
:1010D000F0915802808180688083E0915702F091FE
:1010E000580280818F7D80836DE771E0CE0101968B
:1010F0000E946A0540E061E0CE0101960E94C003B3
:10110000CE0101960E94F90368E871E0CE010196D4
:101110000E946A0541E061E0CE0101960E94C00391
:10112000CE0101960E94F90364EF71E080E090E047
:101130000E943B0230E0E32E33E0F32E40E0C42E69
:1011400040E0D42E0E940C0369E971E0CE010196C3
:101150000E946A0540E061E0CE0101960E94C00352
:10116000CE0101960E94F90363EA71E0CE01019677
:101170000E946A0541E060E0CE0101960E94C00332
:10118000CE0101960E94F90360E173E0CE01019661
:101190000E94D804CE0101960E9401044B015C011B
:1011A000CE0101960E94F90381E088169104A10402
:1011B000B10499F0E2E08E169104A104B10409F49F
:1011C0006DC0C114D10409F4BDCF0E94120188235F
:1011D00009F4B8CF0E940000B5CF0E940C0363EB66
:1011E00071E0CE0101960E946A0540E060E0CE0108
:1011F00001960E94C003CE0101960E94F9036FEB95
:1012000071E0CE0101960E946A0541E060E0CE01E6
:1012100001960E94C003CE0101960E94F90360E18D
:1012200073E0CE0101960E94D804CE0101960E947F
:1012300001044B015C01CE0101960E94F903F1E02B
:101240008F169104A104B104C1F082E088169104C4
:10125000A104B10409F0B5CF6EED71E0CE010196A5
:101260000E946A0540E060E0CE0101960E94C00342
:10127000CE0101960E94F903FFCF6DEC71E0CE0123
:1012800001960E946A0540E060E0CE0101960E944E
:10129000C003CE0101960E94F903FFCF0E940C0308
:1012A00061EF71E0CE0101960E946A0540E060E0C6
:1012B000CE0101960E94C003CE0101960E94F9035F
:1012C00060E072E0CE0101960E946A0541E060E0B4
:1012D000CE0101960E94C003CE0101960E94F9033F
:1012E00060E173E0CE0101960E94D804CE01019620
:1012F0000E9401044B015C01CE0101960E94F9039A
:10130000E1E08E169104A104B104C1F0F2E08F1661
:101310009104A104B10409F054CF6FE272E0CE0150
:1013200001960E946A0540E060E0CE0101960E94AD
:10133000C003CE0101960E94F903FFCF0E940C0367
:101340008DE092E00E94EC030E94DD0360E083E008
:101350000E947B059093FB028093FA0260E088E094
:101360000E94B10381E192E00E94EC030E94DD0340
:1013700060E08BE00E947B059093FD028093FC026D
:1013800061E080E00E94B10385E192E00E94EC03FD
:101390000E94DD0361E083E00E947B059093FF02E1
:1013A0008093FE028091F2028E7F8093F202886029
:1013B0000E94060361E088E00E94B10389E192E0A7
:1013C0000E94EC0368EE73E080E090E00E943B0234
:1013D0000E940C038FE192E00E94EC0361E080E048
:1013E0000E94B1038DE591E00E94EC030AEF12E048
:1013F000F801819191918F01092E000CAA0BBB0B72
:1014000019A2FE01B196AC01BD014F7055276627A8
:10141000772724E0B695A795979587952A95D1F7D4
:101420004A30FCF4405D42930097A105B10559F79D
:10143000309769F0DF010D900020E9F71197AD01B9
:101440004E1B5F0BBF0182EE92E00E94A800E016E7
:10145000F10671F660ED77E080E090E00E943B02DB
:10146000B0CE495CE0CF8AE093E00E94F90381E0CE
:1014700093E00E94F90383E193E00C94F9031F9336
:10148000FC0199278827BC01E89411911032E9F3F7
:10149000193010F01E30C8F31B3251F01D3249F4E0
:1014A000689406C00E94660A610F711D811D911D1E
:1014B000119110531A30B0F33EF4909580957095C9
:1014C00061957F4F8F4F9F4F1F910895592F482F40
:1014D000372F262F660F771F881F991F660F771FDC
:1014E000881F991F620F731F841F951F660F771F38
:1014F000881F991F08952F923F924F925F926F928B
:101500007F928F929F92AF92BF92CF92DF92EF9293
:10151000FF920F931F93CF93DF93CDB7DEB7CA1B14
:10152000DB0B0FB6F894DEBF0FBECDBF09942A883F
:10153000398848885F846E847D848C849B84AA84E7
:10154000B984C884DF80EE80FD800C811B81AA8174
:10155000B981CE0FD11D0FB6F894DEBF0FBECDBF3F
:10156000ED010895EE0FFF1F0590F491E02D099411
:101570000F931F93CF93DF938230910510F482E095
:1015800090E0E0915403F091550330E020E0B0E0AA
:10159000A0E0309799F42115310509F44AC0281BC1
:1015A000390B24303105D8F58A819B81611571058D
:1015B00089F1FB0193838283FE0111C04081518137
:1015C0000281138148175907E0F04817590799F429
:1015D000109761F012960C93129713961C93329603
:1015E000CF01DF91CF911F910F9108950093540384
:1015F00010935503F4CF2115310551F042175307CD
:1016000038F0A901DB019A01BD01DF01F801C1CF6A
:10161000EF01F9CF9093550380935403CDCFFE0192
:10162000E20FF31F8193919322503109398328836C
:10163000D7CF2091520330915303232B41F42091B3
:1016400005013091060130935303209352032091FA
:101650000301309104012115310541F42DB73EB746
:101660004091070150910801241B350BE091520372
:10167000F0915303E217F307A0F42E1B3F0B28173A
:10168000390778F0AC014E5F5F4F2417350748F0FB
:101690004E0F5F1F509353034093520381939193D6
:1016A0009FCFF0E0E0E09CCFCF93DF930097E9F08D
:1016B000FC01329713821282A0915403B09155031A
:1016C000ED0130E020E01097A1F420813181820FFC
:1016D000931F20915203309153032817390709F0C3
:1016E00061C0F0935303E0935203DF91CF910895CB
:1016F000EA01CE17DF07E8F54A815B819E014115BB
:101700005105B1F7E901FB83EA8349915991C40F6F
:10171000D51FEC17FD0761F4808191810296840F3B
:10172000951FE90199838883828193819B838A83B2
:10173000F0E0E0E012968D919C9113970097B9F537
:101740002D913C911197CD010296820F931F20910C
:101750005203309153032817390739F6309751F562
:101760001092550310925403B0935303A093520365
:10177000BCCFD383C28340815181840F951FC8178A
:10178000D90761F44E5F5F4F88819981480F591FD7
:10179000518340838A819B81938382832115310504
:1017A00009F0B0CFF0935503E09354039ECFFD01B1
:1017B000DC01C0CF13821282D7CFB0E0A0E0E3EE0D
:1017C000FBE00C947D0A8C01009751F4CB010E9440
:1017D000B80A8C01C801CDB7DEB7E0E10C94990AD4
:1017E000FC01E60FF71F9C0122503109E217F307B5
:1017F00008F49DC0D901CD91DC911197C617D70788
:1018000098F0C530D10530F3CE01049786179707BD
:1018100008F3C61BD70B2297C193D1936D937C938A
:10182000CF010E94540BD6CF5B01AC1ABD0A4C010C
:101830008C0E9D1EA0915403B0915503512C412C48
:10184000F12CE12C109731F58091520390915303C4
:101850008815990509F05CC04616570608F058C06F
:101860008091030190910401009741F48DB79EB7D8
:101870004091070150910801841B950BE817F90767
:1018800008F055C0F0935303E0935203F9017183BC
:101890006083A0CF8D919C91119712966C901297B6
:1018A00013967C901397A815B90559F56C0142E081
:1018B000C40ED11CCA14DB0420F1AC014A195B0927
:1018C000DA011296159780F0628273825183408309
:1018D000D9016D937C93E114F10471F0D701139653
:1018E000FC93EE93129776CF22968C0F9D1FF901F1
:1018F00091838083F301EFCFF0935503E09354037A
:1019000069CF4816590608F42C017D01D3019ACFFE
:10191000CB010E94B80A7C01009749F0AE01B801E2
:101920000E949A0CC8010E94540B870153CF10E00B
:1019300000E050CFFB01DC0102C001900D9241504C
:101940005040D8F70895FB01DC018D91019080197A
:101950000110D9F3990B0895FB01DC0101900D9260
:101960000020E1F7089510E0CDE5D0E004C0FE01CD
:101970000E94B20A2196CE35D107C9F7F894FFCF5D
:10198000100F0E00005603800067246845CFFE8CC0
:1019900043CDCCCC3D6510563C17FDA6440000C09D
:1019A0003FA8F3A63E14F83CC39A99993F5A12CF28
:1019B000C5B14FF3C3072C6242000000004801A8E4
:1019C00000D50095010601E400F80000000000E6E3
:1019D00003A8006D02A7003300360039002300324F
:1019E000003500380030003100340037002A00454F
:1019F0005252002020200042656C6C6F0057656CCD
:101A0000636F6D65202121005465616D205361670E
:101A10006974746172697573004D61696E204D65FA
:101A20006E7500313A53656E7320323A5267624CDC
:101A300065640043616C696272617465203F0031C6
:101A40003A59657320202020323A4E6F007C7C4149
:101A5000742063616C6962726174696F6E007C7C72
:101A60004174204E2043616C6962726174696F6ECB
:101A700000313A20436F6C6F7220696E707574008C
:101A8000323A205265616C2054696D6500523A20EB
:101A900000473A2000423A2000446F6E6521004C16
:101AA00069676874696E6720524742202D3E007C4A
:0C1AB0007C5265616C2054696D6500007B
:107800000C94343C0C94513C0C94513C0C94513CE1
:107810000C94513C0C94513C0C94513C0C94513CB4
:107820000C94513C0C94513C0C94513C0C94513CA4
:107830000C94513C0C94513C0C94513C0C94513C94
:107840000C94513C0C94513C0C94513C0C94513C84
:107850000C94513C0C94513C0C94513C0C94513C74
:107860000C94513C0C94513C11241FBECFEFD8E036
:10787000DEBFCDBF11E0A0E0B1E0ECE9FFE702C060
:1078800005900D92A230B107D9F712E0A2E0B1E065
:1078900001C01D92AD30B107E1F70E942D3D0C945F
:1078A000CC3F0C94003C982F959595959595959582
:1078B000905D8F708A307CF0282F295A8091C0000B
:1078C00085FFFCCF9093C6008091C00085FFFCCF60
:1078D0002093C6000895282F205DF0CF982F809127
:1078E000C00085FFFCCF9093C6000895EF92FF92F1
:1078F0000F931F93EE24FF2487018091C00087FD22
:1079000017C00894E11CF11C011D111D81E4E8164B
:1079100082E4F8068FE0080780E0180770F3E09132
:107920000401F091050109958091C00087FFE9CF1E
:107930008091C6001F910F91FF90EF9008950E94D3
:10794000763C982F8091C00085FFFCCF9093C600B5
:1079500091362CF490330CF09053892F089597555D
:10796000892F08951F930E949F3C182F0E949F3CCF
:107970001295107F810F1F9108951F93182F882350
:1079800021F00E94763C1150E1F71F9108951F935A
:10799000182F0E94763C803249F0809103018F5F5E
:1079A000809303018530C1F01F9108958091C0003C
:1079B00085FFFCCF84E18093C6008091C00085FFE5
:1079C000FCCF1093C6008091C00085FFFCCF80E102
:1079D0008093C6001F910895E0910401F091050184
:1079E00009951F9108950E94763C803241F0809164
:1079F00003018F5F80930301853081F008958091AA
:107A0000C00085FFFCCF84E18093C6008091C00058
:107A100085FFFCCF80E18093C6000895E0910401CA
:107A2000F09105010995089540E951E08823A1F0FE
:107A30002D9A28EE33E0FA013197F1F721503040CA
:107A4000D1F72D9828EE33E0FA013197F1F7215064
:107A50003040D1F7815061F708953F924F925F9285
:107A60006F927F928F929F92AF92BF92CF92DF924E
:107A7000EF92FF920F931F93CF93DF93000080E16B
:107A80008093C4001092C50088E18093C10086E015
:107A90008093C2005098589A259A81E00E94143D24
:107AA00024E1F22E9EE1E92E85E9D82E0FE0C02ECA
:107AB00010E1B12EAA24A394B1E49B2EA6E58A2E50
:107AC000F2E57F2EE0E26E2E79E4572E63E5462E36
:107AD00050E5352E0E94763C8033B1F18133B9F107
:107AE000803409F46FC0813409F476C0823409F41B
:107AF00085C0853409F488C0803531F1823521F1A3
:107B0000813511F1853509F485C0863509F48DC0BC
:107B1000843609F496C0843709F403C1853709F423
:107B200072C1863709F466C0809103018F5F80932C
:107B30000301853079F6E0910401F0910501099582
:107B40000E94763C803351F60E94F33CC3CF0E94E2
:107B5000763C803249F78091C00085FFFCCFF092DF
:107B6000C6008091C00085FFFCCF9092C600809136
:107B7000C00085FFFCCF8092C6008091C00085FFC9
:107B8000FCCF7092C6008091C00085FFFCCF609250
:107B9000C6008091C00085FFFCCF5092C600809146
:107BA000C00085FFFCCF4092C6008091C00085FFD9
:107BB000FCCF3092C6008091C00085FFFCCFB09210
:107BC000C60088CF0E94763C863808F4BDCF0E945C
:107BD000763C0E94F33C7ECF0E94763C803809F4CC
:107BE0009CC0813809F40BC1823809F43CC1883942
:107BF00009F48FC080E00E94C73C6CCF84E10E94F2
:107C0000BD3C0E94F33C66CF85E00E94BD3C0E94D3
:107C1000F33C60CF0E94763C809306010E94763C44
:107C2000809307010E94F33C55CF0E94763C80333D
:107C300009F41DC183E00E94BD3C80E00E94C73C66
:107C400049CF0E94763C809309020E94763C809343
:107C5000080280910C028E7F80930C020E94763C79
:107C6000853409F415C18091080290910902892B8D
:107C700089F000E010E00E94763CF801E85FFE4FDA
:107C800080830F5F1F4F80910802909109020817AF
:107C9000190788F30E94763C803209F045CF809125
:107CA0000C0280FF01C16091060170910701660F0F
:107CB000771F7093070160930601A0910802B091AD
:107CC00009021097C9F0E8E0F1E09B01AD014E0F09
:107CD0005F1FF999FECF32BD21BD819180BDFA9A17
:107CE000F99A2F5F3F4FE417F50799F76A0F7B1F4B
:107CF00070930701609306018091C00085FFFCCF5F
:107D0000F092C6008091C00085FFFCCFB092C60003
:107D1000E1CE83E00E94C73CDDCE82E00E94C73CFA
:107D2000D9CE0E94763C809309020E94763C8093D3
:107D300008028091060190910701880F991F909386
:107D40000701809306010E94763C853409F4A6C0A1
:107D500080910C028E7F80930C020E94763C8032D0
:107D600009F0B8CE8091C00085FFFCCFF092C6002C
:107D7000609108027091090261157105B9F140E046
:107D800050E080910C02A82FA170B82FB27011C0E2
:107D9000BB2309F45CC0E0910601F0910701319624
:107DA000F0930701E09306014F5F5F4F46175707B7
:107DB000E8F4AA2369F3F999FECF209106013091E6
:107DC000070132BD21BDF89A90B58091C00085FFB2
:107DD000FCCF9093C6002F5F3F4F30930701209355
:107DE00006014F5F5F4F4617570718F38091C00099
:107DF00085FDE5CE8091C00085FFF8CFE0CE81E023
:107E00000E94C73C67CE0E94763C803209F08CCE3F
:107E10008091C00085FFFCCFF092C6008091C00029
:107E200085FFFCCFE092C6008091C00085FFFCCFAB
:107E3000D092C6008091C00085FFFCCFC092C600E2
:107E40008091C00085FFFCCFB092C60043CEE09188
:107E50000601F091070194918091C00085FFFCCF4D
:107E60009093C6009CCF80E10E94C73C33CE0E9415
:107E7000763C0E94763C182F0E94763C112309F430
:107E800083C0113009F484C08FE00E94C73C22CE29
:107E900080910C02816080930C02E5CE80910C02EF
:107EA000816080930C0259CF809107018823880F4D
:107EB000880B8A2180930B02809106019091070123
:107EC000880F991F90930701809306018091080203
:107ED00080FF09C080910802909109020196909359
:107EE000090280930802F894F999FECF1127E091D6
:107EF0000601F0910701C8E0D1E08091080290915D
:107F00000902103091F40091570001700130D9F34B
:107F100003E000935700E89500915700017001308D
:107F2000D9F301E100935700E89509901990009169
:107F3000570001700130D9F301E000935700E89534
:107F40001395103498F011270091570001700130FB
:107F5000D9F305E000935700E895009157000170B0
:107F60000130D9F301E100935700E895329602976A
:107F700009F0C7CF103011F00296E5CF112480919F
:107F8000C00085FFB9CEBCCE8EE10E94C73CA2CD19
:0E7F900085E90E94C73C9ECDF894FFCF80008B
:00000001FF
