:100000000C945E000C9486000C9486000C94860080
:100010000C9486000C9486000C9486000C94860048
:100020000C9486000C9486000C9486000C94860038
:100030000C9486000C9486000C9486000C94860028
:100040000C9486050C9486000C9454050C942E0593
:100050000C9486000C9486000C9486000C94860008
:100060000C9486000C948600000000080002010039
:100070000003040700000000000000000000000072
:10008000250028002B0000000000240027002A0083
:10009000040404040404040402020202020203032E
:1000A0000303030301020408102040800102040836
:1000B0001020010204081020D005320911241FBEAF
:1000C000CFEFD8E0DEBFCDBF12E0A0E0B1E0EEE7B9
:1000D000F7E102C005900D92A631B107D9F723E0F0
:1000E000A6E1B2E001C01D92A033B207E1F710E033
:1000F000CDE5D0E004C02197FE010E94B109CC35C6
:10010000D107C9F70E9495060C94B20B0C9400001D
:1001100090E0FC01EC55FF4F249180579F4FFC016C
:100120008491882399F090E0880F991FFC01EA5789
:10013000FF4FA591B491FC01E458FF4F8591949134
:100140008FB7F894EC91E22BEC938FBF089508954C
:10015000AF92BF92CF92DF92EF92FF920F931F93D5
:10016000CF93DF936C017B018B01040F151FEB0113
:100170005E01AE18BF08C017D10759F06991D601CA
:10018000ED91FC910190F081E02DC6010995892B3C
:1001900079F7C501DF91CF911F910F91FF90EF90FB
:1001A000DF90CF90BF90AF900895FC0144815581BE
:1001B000608171818CEB92E00C94A800FC01538D5E
:1001C000448D252F30E0842F90E0821B930B541731
:1001D00010F0CF96089501970895FC01918D828DBE
:1001E000981761F0A28DAE0FBF2FB11D5D968C9157
:1001F000928D9F5F9F73928F90E008958FEF9FEF96
:100200000895FC01918D828D981731F0828DE80F51
:10021000F11D858D90E008958FEF9FEF0895FC010B
:10022000918D228D892F90E0805C9F4F821B9109D8
:100230008F73992708958FE192E00E940F0121E0CA
:10024000892B09F420E0822F089580E090E0892B2B
:1002500029F00E941B0181110C9400000895FC01FB
:10026000A48DA80FB92FB11DA35ABF4F2C91848D17
:1002700090E001968F739927848FA689B7892C9374
:10028000A089B1898C91837080648C93938D848DC7
:10029000981306C00288F389E02D80818F7D8083CA
:1002A0000895EF92FF920F931F93CF93DF93EC018A
:1002B00081E0888F9B8D8C8D98131AC0E889F9890D
:1002C000808185FF15C09FB7F894EE89FF89608310
:1002D000E889F98980818370806480839FBF81E091
:1002E00090E0DF91CF911F910F91FF90EF900895D3
:1002F000F62E0B8D10E00F5F1F4F0F731127E02EAE
:100300008C8D8E110CC00FB607FCFACFE889F989E5
:10031000808185FFF5CFCE010E942F01F1CFEB8DBB
:10032000EC0FFD2FF11DE35AFF4FF0829FB7F894B9
:100330000B8FEA89FB8980818062CFCFCF93DF93D7
:10034000EC01888D8823B9F0AA89BB89E889F989ED
:100350008C9185FD03C0808186FD0DC00FB607FC22
:10036000F7CF8C9185FFF2CF808185FFEDCFCE0155
:100370000E942F01E9CFDF91CF91089590E0FC0119
:10038000E859FF4F2491FC01EC55FF4F3491FC01DB
:10039000E057FF4FE491EE23C9F0222339F02330D8
:1003A00001F1A8F4213019F1223029F1F0E0EE0F2B
:1003B000FF1FE458FF4FA591B4918FB7F894EC91CB
:1003C000611126C030953E233C938FBF089527309E
:1003D000A9F02830C9F0243049F7809180008F7D42
:1003E00003C0809180008F7780938000DFCF84B539
:1003F0008F7784BDDBCF84B58F7DFBCF8091B0003C
:100400008F778093B000D2CF8091B0008F7DF9CFED
:100410003E2BDACF8E3008F08E5087708064809348
:100420007C0080917A00806480937A0080917A00C9
:1004300086FDFCCF809178009091790008953FB7B8
:10044000F89480911B0290911C02A0911D02B09122
:100450001E0226B5A89B05C02F3F19F00196A11DCD
:10046000B11D3FBFBA2FA92F982F8827BC01CD01FE
:10047000620F711D811D911D42E0660F771F881F5D
:10048000991F4A95D1F7089590E080E00895CF93A1
:10049000DF93EC0160E08E810E94BE0161E08E81FD
:1004A0000E94BE0160E08E810E94BE018BE891E057
:1004B0000197F1F7DF91CF910895CF92DF92EF92FC
:1004C000FF920F931F93CF93DF936C017C0187E022
:1004D000E80EF11CD0E0C0E0062F10E0B8010C2EB1
:1004E00002C0759567950A94E2F76170F7018191F2
:1004F0007F010E94BE012196C430D10579F7C60163
:10050000DF91CF911F910F91FF90EF90DF90CF90EF
:100510000C944702CF92DF92EF92FF920F931F93BA
:10052000CF93DF93EC01F62E642F8C810E94BE01E5
:100530008D818F3F19F060E00E94BE010F2D10E009
:100540008F8584FF25C06E0187E0C80ED11CF12C79
:10055000E12CB8010E2C02C0759567950A94E2F75C
:100560006170F60181916F010E94BE01FFEFEF1AE9
:10057000FF0A88E0E816F10461F7CE01DF91CF9120
:100580001F910F91FF90EF90DF90CF900C94470256
:10059000B80184E0759567958A95E1F7CE010E94D0
:1005A0005D026F2DCE01DF91CF911F910F91FF90D2
:1005B000EF90DF90CF900C945D0240E0682F8CEBC1
:1005C00092E00C948A0281E00E94DD028BE39FE1BD
:1005D0000197F1F70895CF93DF93823029F490913A
:1005E000CB0298609093CB028093CF021092D002FE
:1005F00080E48093D10280E18093D20280E58093F1
:10060000D3028091C0020E9488008091C1028F3F76
:1006100011F00E9488008091C2020E948800CCEBF9
:10062000D2E09E012C5B32408091CB0284FD0AC057
:1006300084E090E02196281739073CF48E810E94CF
:100640008800EFCF88E090E0F5CF8BE39DE0019745
:10065000F1F760E08091C0020E94BE0160E08091ED
:10066000C2020E94BE018091C1028F3F19F060E07A
:100670000E94BE018091CB0284FD34C063E08CEB0C
:1006800092E00E945D02CBE4D6E4CE010197F1F73F
:1006900063E08CEB92E00E945D022197F1F763E04A
:1006A0008CEB92E00E945D0283E592E00197F1F706
:1006B00062E08CEB92E00E945D028091CB0280624E
:1006C0000E94DD0284E08093CC028CE00E94DD0277
:1006D0000E94E30282E08093CD0286E0DF91CF9119
:1006E0000C94DD0280620E94DD028BE496E40197A7
:1006F000F1F78091CB0280620E94DD0283E592E0F7
:100700000197F1F78091CB0280620E94DD02D5CF84
:100710009091CF02691710F06FEF690FE62FF0E0AC
:10072000E454FD4F9489890F80680C94DD02CF93C7
:10073000DF93EC01613049F0642F80E00E94880370
:10074000CE01DF91CF910C94D5002C813D8180E1C9
:1007500090E0821B930B96958795642FEFCF41E035
:100760000E948A0281E090E00895FC0180819181DD
:10077000009711F00C94530A0895FC018081918137
:10078000009711F00C943E0960E070E0CB010895F1
:100790000F931F93CF93DF938C01EB01FC018081BA
:1007A00091810097E1F06881798161157105A9F067
:1007B000428153812C813D814217530770F00E9482
:1007C000AB0B8C819D81F801958384831D821C82F3
:1007D000DF91CF911F910F9108950E94530A888154
:1007E0009981F801918380838A819B81938382839D
:1007F0008C819D8195838483198218821B821A8241
:10080000E5CF0F931F93CF93DF93EC0188819981FC
:10081000009759F02A813B812617370730F081E095
:10082000DF91CF911F910F9108958B016F5F7F4FE3
:100830000E94DC0A009759F0998388831B830A83FE
:100840002C813D81232B59F7FC011082E8CF80E0F9
:10085000E7CFEF92FF920F931F93CF93DF93611532
:10086000710541F480E0DF91CF911F910F91FF90CE
:10087000EF90089541155105B1F07B01EC010C8119
:100880001D81040F151FB8010E940104882351F334
:10089000288139818C819D81B701820F931F0E942D
:1008A000AB0B1D830C8381E0DECFFB0101900020A8
:1008B000E9F73197AF01461B570B0C942904EF92CF
:1008C000FF920F931F93CF93DF93EC017B018A017B
:1008D000BA010E94010428813981811114C02115B7
:1008E000310519F0C9010E94530A198218821D822C
:1008F0001C821B821A82CE01DF91CF911F910F9132
:10090000FF90EF9008951D830C83B701C9010E94E9
:10091000AB0BF1CFFB0101900020E9F73197AF015C
:10092000461B570B0C945F04EF92FF920F931F939B
:10093000CF93DF937C018B01EB01239668E072E09B
:10094000CE010E948A04F80187819085892B09F0E5
:1009500057C080810E940A02F80192838183181691
:1009600019068CF767E571E08A39F1E09F07ECF131
:1009700069E571E0833B21E09207BCF16BE571E032
:10098000873CE1E09E078CF16DE571E0803EF1E08F
:100990009F075CF16FE571E0843422E092072CF14F
:1009A00061E671E08C36E2E09E07FCF063E671E000
:1009B0008439F2E09F07CCF065E671E0803D22E0EB
:1009C00092079CF067E671E08032E3E09E076CF0EE
:1009D00069E671E08037F3E09F073CF06BE671E079
:1009E000803C934014F06DE671E0CE010E94550406
:1009F000F80180810E940A0218161906CCF3A3CFD1
:100A0000F701118210821382128215821482EC1671
:100A1000FD0659F0F801638174816115710529F0B3
:100A200047815085C7010E945F04C701DF91CF91C4
:100A30001F910F91FF90EF900895FC011182108299
:100A40001382128215821482FB0101900020E9F7C3
:100A50003197AF01461B570B0C945F041F920F9206
:100A60000FB60F9211242F933F934F935F936F9381
:100A70007F938F939F93AF93BF93EF93FF938FE1F8
:100A800092E00E942F01FF91EF91BF91AF919F9152
:100A90008F917F916F915F914F913F912F910F9027
:100AA0000FBE0F901F9018951F920F920FB60F92C6
:100AB00011242F938F939F93EF93FF93E0912F0235
:100AC000F09130028081E0913502F091360282FD92
:100AD0001BC09081809138028F5F8F732091390203
:100AE000821741F0E0913802F0E0E15EFD4F958F12
:100AF00080933802FF91EF919F918F912F910F90EA
:100B00000FBE0F901F9018958081F4CF1F920F9207
:100B10000FB60F9211242F933F938F939F93AF9310
:100B2000BF938091170290911802A0911902B09181
:100B30001A023091160223E0230F2D3758F5019643
:100B4000A11DB11D209316028093170290931802E5
:100B5000A0931902B0931A0280911B0290911C027B
:100B6000A0911D02B0911E020196A11DB11D80939E
:100B70001B0290931C02A0931D02B0931E02BF9112
:100B8000AF919F918F913F912F910F900FBE0F903A
:100B90001F90189526E8230F0296A11DB11DD2CFF4
:100BA0000F931F93CF93DF93EFE1F2E01382128252
:100BB00088EE93E0A0E0B0E084839583A683B783BA
:100BC0008DE391E09183808385EC90E09587848725
:100BD00084EC90E09787868780EC90E0918B808B07
:100BE00081EC90E0938B828B82EC90E0958B848BF0
:100BF00086EC90E0978B868B118E128E138E148E5E
:100C000016E0E6EFF2E0DF01812F1D928A95E9F709
:100C100084E2E9E0F1E0ACEFB2E001900D928A9558
:100C2000E1F78CE0EDE2F1E0A0E2B3E001900D929B
:100C30008A95E1F7E3EFF2E0A0E0B1E08C918083E8
:100C400011968C911197818312968C918283CAEEB2
:100C5000D2E018821A8219826FE671E08DEE92E07E
:100C60000E941D0501E1088384B1876084B9E1E831
:100C7000F0E080818860808380818F7E8083A0E81F
:100C8000B0E08C9181608C938C918D7F8C938C9152
:100C900080628C938C918F7E8C9380818160808325
:100CA00080818D7F808380818B7F8083CCEBD2E0BD
:100CB0001B821A828FE491E09983888382E08C837F
:100CC0008FEF8D8383E08E8384E08F8385E0888738
:100CD000198787E08A871B861C861D861E861F86CD
:100CE00081E00E94EB02E4EDF2E0DF011D921A9533
:100CF000E9F768E072E08BED92E00E941D051DA20D
:100D00001FA21EA26FE671E084EE92E00E941D0514
:100D10008EE08DA382E00E94EB020E94E3020E8F20
:100D2000DF91CF911F910F910895CF93DF93CDB7AE
:100D3000DEB72C970FB6F894DEBF0FBECDBF789408
:100D400084B5826084BD84B5816084BD85B58260D0
:100D500085BD85B5816085BD80916E008160809381
:100D60006E001092810080918100826080938100EA
:100D700080918100816080938100809180008160FA
:100D8000809380008091B10084608093B100809155
:100D9000B00081608093B00080917A00846080937D
:100DA0007A0080917A00826080937A0080917A0044
:100DB000816080937A0080917A00806880937A00C5
:100DC0001092C100E0912F02F091300282E0808306
:100DD000E0912B02F0912C021082E0912D02F09113
:100DE0002E028FEC808310923702E0913302F09153
:100DF000340286E08083E0913102F09132028081FA
:100E000080618083E0913102F091320280818860BC
:100E10008083E0913102F09132028081806880838A
:100E2000E0913102F091320280818F7D808365E70D
:100E300071E0CE0101960E941D0540E061E0CE0107
:100E400001960E949703CE0101960E94B50360E8C7
:100E500071E0CE0101960E941D0541E061E0CE01E6
:100E600001960E949703CE0101960E94B5030E944D
:100E70001F024B015C0184EFC82EDD24D394E12CCA
:100E8000F12C0E941F02681979098A099B09683EA2
:100E9000734081059105A8F321E0C21AD108E10849
:100EA000F10888EE880E83E0981EA11CB11CC114C5
:100EB000D104E104F10429F700E010E00E94E3020C
:100EC00061E971E0CE0101960E941D0540E061E0FC
:100ED000CE0101960E949703CE0101960E94B503B0
:100EE0006BE971E0CE0101960E941D0541E060E0D2
:100EF000CE0101960E949703CE0101960E94B50390
:100F00006AEE72E0CE0101960E949404CE01019631
:100F10000E94BD036B017C01CE0101960E94B503C6
:100F2000F1E0CF16D104E104F10499F022E0C216F9
:100F3000D104E104F10409F46DC00115110509F4AF
:100F4000BDCF0E941B01882309F4B8CF0E94000086
:100F5000B5CF0E94E3026BEA71E0CE0101960E94D8
:100F60001D0540E060E0CE0101960E949703CE018E
:100F700001960E94B50367EB71E0CE0101960E94D5
:100F80001D0541E060E0CE0101960E949703CE016D
:100F900001960E94B5036AEE72E0CE0101960E94AE
:100FA0009404CE0101960E94BD036B017C01CE0129
:100FB00001960E94B50381E0C816D104E104F10452
:100FC000C1F0E2E0CE16D104E104F10409F0B5CF9E
:100FD00066ED71E0CE0101960E941D0540E060E0E3
:100FE000CE0101960E949703CE0101960E94B5039F
:100FF000FFCF65EC71E0CE0101960E941D0540E037
:1010000060E0CE0101960E949703CE0101960E94F6
:10101000B503FFCF0E94E30269EE71E0CE010196B5
:101020000E941D0540E060E0CE0101960E949703FA
:10103000CE0101960E94B50368EF71E0CE010196E2
:101040000E941D0541E060E0CE0101960E949703D9
:10105000CE0101960E94B5036AEE72E0CE010196C0
:101060000E949404CE0101960E94BD036B017C0195
:10107000CE0101960E94B503F1E0CF16D104E10440
:10108000F104C1F022E0C216D104E104F10409F038
:1010900054CF69E072E0CE0101960E941D0540E048
:1010A00060E0CE0101960E949703CE0101960E9456
:1010B000B503FFCF0E94E30243E050E065E072E039
:1010C0008CEB92E00E94A8008091CC02982F916056
:1010D0009093CC0289600E94DD0268E072E08BEDA3
:1010E00092E00E948A0468E072E0CE0107960E94B6
:1010F0001D0561EE72E0CE0101960E949404BE01CE
:101100006F5F7F4FCE0107960E94C803CE01019604
:101110000E94B50361EE72E0CE0101960E94940434
:10112000CE0101960E94D500CE0101960E94B50322
:10113000CB84DC84EF80F884C114D10409F487C027
:101140006DE671E0C7010E94A20B892BB1F48BED13
:1011500092E00E94BD036F3F71058105910541F04A
:101160003CF068E072E08BED92E00E948A04C1CF0F
:10117000CE0107960E94B503FFCF6DE571E0C70170
:101180000E94A20B892B09F062C00091DF0210912E
:10119000E0020115110509F45AC068E072E0CE01C1
:1011A00001960E941D058091DF029091E002009758
:1011B00009F1015011098017910708F48C01E091A1
:1011C000DB02F091DC02E00FF11FF08010826091F1
:1011D000DB027091DC026115710561F1CE010196AF
:1011E0000E948A048091DB029091DC02080F191F93
:1011F000F801F082BE016F5F7F4F8BED92E00E949D
:10120000C803CE0101960E94B5038091DF0260E021
:101210008D5F0E94880341E050E067E072E08CEB54
:1012200092E00E94A8008091DF0260E08D5F0E9442
:1012300088035FCF89819A81009711F00E94530A39
:101240001A8219821E821D821C821B82CBCFA601AC
:10125000B7018BED92E00E942904CE0107960E940F
:10126000D50047CF84EE92E00E94B5038BED92E06B
:101270000E94B5038DEE92E00C94B5031F93FC0120
:1012800099278827BC01E89411911032E9F31930AD
:1012900010F01E30C8F31B3251F01D3249F468942F
:1012A00006C00E946509610F711D811D911D11917C
:1012B00010531A30B0F33EF4909580957095619577
:1012C0007F4F8F4F9F4F1F910895592F482F372FD2
:1012D000262F660F771F881F991F660F771F881F9D
:1012E000991F620F731F841F951F660F771F881F3A
:1012F000991F08952F923F924F925F926F927F9223
:101300008F929F92AF92BF92CF92DF92EF92FF9215
:101310000F931F93CF93DF93CDB7DEB7CA1BDB0BC1
:101320000FB6F894DEBF0FBECDBF09942A88398866
:1013300048885F846E847D848C849B84AA84B9846D
:10134000C884DF80EE80FD800C811B81AA81B98179
:10135000CE0FD11D0FB6F894DEBF0FBECDBFED018D
:101360000895EE0FFF1F0590F491E02D09940F935F
:101370001F93CF93DF938230910510F482E090E0C9
:10138000E0912E03F0912F0330E020E0B0E0A0E0E8
:10139000309799F42115310509F44AC0281B390BFF
:1013A00024303105D8F58A819B816115710589F159
:1013B000FB0193838283FE0111C040815181028130
:1013C000138148175907E0F04817590799F4109707
:1013D00061F012960C93129713961C933296CF01DC
:1013E000DF91CF911F910F91089500932E031093D9
:1013F0002F03F4CF2115310551F04217530738F070
:10140000A901DB019A01BD01DF01F801C1CFEF01A4
:10141000F9CF90932F0380932E03CDCFFE01E20FDF
:10142000F31F819391932250310939832883D7CFB9
:1014300020912C0330912D03232B41F420910501A1
:101440003091060130932D0320932C03209103014A
:10145000309104012115310541F42DB73EB740917B
:10146000070150910801241B350BE0912C03F091EA
:101470002D03E217F307A0F42E1B3F0B28173907A3
:1014800078F0AC014E5F5F4F2417350748F04E0FE0
:101490005F1F50932D0340932C03819391939FCF13
:1014A000F0E0E0E09CCFCF93DF930097E9F0FC0100
:1014B000329713821282A0912E03B0912F03ED0177
:1014C00030E020E01097A1F420813181820F931F3A
:1014D00020912C0330912D032817390709F061C0A2
:1014E000F0932D03E0932C03DF91CF910895EA014F
:1014F000CE17DF07E8F54A815B819E014115510552
:10150000B1F7E901FB83EA8349915991C40FD51FD3
:10151000EC17FD0761F4808191810296840F951F7D
:10152000E90199838883828193819B838A83F0E098
:10153000E0E012968D919C9113970097B9F52D914B
:101540003C911197CD010296820F931F20912C039D
:1015500030912D032817390739F6309751F510923D
:101560002F0310922E03B0932D03A0932C03BCCF16
:10157000D383C28340815181840F951FC817D90737
:1015800061F44E5F5F4F88819981480F591F5183E5
:1015900040838A819B81938382832115310509F0E1
:1015A000B0CFF0932F03E0932E039ECFFD01DC011B
:1015B000C0CF13821282D7CFB0E0A0E0E2EEFAE013
:1015C0000C947C098C01009751F4CB010E94B7095F
:1015D0008C01C801CDB7DEB7E0E10C949809FC019D
:1015E000E60FF71F9C0122503109E217F30708F4B8
:1015F0009DC0D901CD91DC911197C617D70798F0FE
:10160000C530D10530F3CE0104978617970708F34C
:10161000C61BD70B2297C193D1936D937C93CF01B7
:101620000E94530AD6CF5B01AC1ABD0A4C018C0E46
:101630009D1EA0912E03B0912F03512C412CF12C13
:10164000E12C109731F580912C0390912D03881592
:10165000990509F05CC04616570608F058C08091FD
:10166000030190910401009741F48DB79EB740911A
:10167000070150910801841B950BE817F90708F042
:1016800055C0F0932D03E0932C03F901718360831F
:10169000A0CF8D919C91119712966C9012971396F2
:1016A0007C901397A815B90559F56C0142E0C40E5A
:1016B000D11CCA14DB0420F1AC014A195B09DA0120
:1016C0001296159780F06282738251834083D9010C
:1016D0006D937C93E114F10471F0D7011396FC93A0
:1016E000EE93129776CF22968C0F9D1FF90191836E
:1016F0008083F301EFCFF0932F03E0932E0369CFA4
:101700004816590608F42C017D01D3019ACFCB016C
:101710000E94B7097C01009749F0AE01B8010E9410
:10172000990BC8010E94530A870153CF10E000E0D3
:1017300050CFFB01DC0102C001900D92415050409E
:10174000D8F70895FB01DC018D91019080190110FB
:10175000D9F3990B0895FB01DC0101900D92002053
:10176000E1F7089510E0CDE5D0E004C0FE010E944D
:0E177000B1092196CE35D107C9F7F894FFCF05
:10177E00100F0E00003003800067246845CFFE8CEA
:10178E0043CDCCCC3D6510563C17FDA6440000C0A1
:10179E003FA8F3A63E14F83CC39A99993F5A12CF2C
:1017AE00C5B14FF3C3072C6242000000005101A8DF
:1017BE0000DE009E010F01ED00010100000000AFF0
:1017CE0003A8004402A7003300360039002300327C
:1017DE00003500380030003100340037002A004256
:1017EE00656C6C6F0057656C636F6D652021210011
:1017FE005465616D205361676974746172697573A4
:10180E00004D61696E204D656E7500313A53656EFF
:10181E007320323A5267624C65640043616C6962B0
:10182E0072617465203F00313A5965732020202083
:10183E00323A4E6F007C7C41742063616C69627237
:10184E006174696F6E007C7C4174204E2043616C24
:10185E006962726174696F6E00313A20436F6C6F0A
:10186E007220696E70757400323A205265616C2078
:10187E0054696D6500523A20007C7C5265616C2083
:06188E0054696D650000C5
:00000001FF
