:020000040000FA
:100000000C945E000C9486000C9486000C94860080
:100010000C9486000C9486000C9486000C94860048
:100020000C9486000C9486000C9486000C94860038
:100030000C9486000C9486000C9486000C94860028
:100040000C94D4030C9486000C94A2030C947C03AF
:100050000C9486000C9486000C9486000C94860008
:100060000C9486000C948600000000080002010039
:100070000003040700000000000000000000000072
:10008000250028002B0000000000240027002A0083
:10009000040404040404040402020202020203032E
:1000A0000303030301020408102040800102040836
:1000B00010200102040810201E04B70511241FBEE1
:1000C000CFEFD8E0DEBFCDBF11E0A0E0B1E0E8EFB8
:1000D000FFE002C005900D92AE35B107D9F722E0DE
:1000E000AEE5B1E001C01D92A236B207E1F710E023
:1000F000CDE5D0E004C02197FE010E94F705CC3584
:10010000D107C9F70E9403050C94EF070C94000077
:1001100090E0FC01EC55FF4F249180579F4FFC016C
:100120008491882399F090E0880F991FFC01EA5789
:10013000FF4FA591B491FC01E458FF4F8591949134
:100140008FB7F894EC91E22BEC938FBF0895AF92A8
:10015000BF92CF92DF92EF92FF920F931F93CF93B4
:10016000DF936C017B018B01040F151FEB015E0116
:10017000AE18BF08C017D10759F06991D601ED91AB
:10018000FC910190F081E02DC6010995892B79F74A
:10019000C501DF91CF911F910F91FF90EF90DF90FC
:1001A000CF90BF90AF900895FC01538D448D252FC3
:1001B00030E0842F90E0821B930B541710F0CF9601
:1001C000089501970895FC01918D828D981761F033
:1001D000A28DAE0FBF2FB11D5D968C91928D9F5F4A
:1001E0009F73928F90E008958FEF9FEF0895FC0129
:1001F000918D828D981731F0828DE80FF11D858DDC
:1002000090E008958FEF9FEF0895FC01918D228D6E
:10021000892F90E0805C9F4F821B91098F739927F3
:10022000089587E691E00E94050121E0892B09F4F9
:1002300020E0822F089580E090E0892B29F00E9431
:10024000110181110C9400000895FC01A48DA80FE8
:10025000B92FB11DA35ABF4F2C91848D90E0019608
:100260008F739927848FA689B7892C93A089B18928
:100270008C91837080648C93938D848D981306C0C9
:100280000288F389E02D80818F7D80830895EF922D
:10029000FF920F931F93CF93DF93EC0181E0888F40
:1002A0009B8D8C8D98131AC0E889F989808185FF10
:1002B00015C09FB7F894EE89FF896083E889F989B2
:1002C00080818370806480839FBF81E090E0DF91B4
:1002D000CF911F910F91FF90EF900895F62E0B8D07
:1002E00010E00F5F1F4F0F731127E02E8C8D8E11C2
:1002F0000CC00FB607FCFACFE889F989808185FF29
:10030000F5CFCE010E942501F1CFEB8DEC0FFD2F33
:10031000F11DE35AFF4FF0829FB7F8940B8FEA89E3
:10032000FB8980818062CFCFCF93DF93EC01888DF2
:100330008823B9F0AA89BB89E889F9898C9185FD60
:1003400003C0808186FD0DC00FB607FCF7CF8C91EE
:1003500085FFF2CF808185FFEDCFCE010E94250180
:10036000E9CFDF91CF91089590E0FC01E859FF4F6C
:100370002491FC01EC55FF4F3491FC01E057FF4FF5
:10038000E491EE23C9F0222339F0233001F1A8F4DF
:10039000213019F1223029F1F0E0EE0FFF1FE4586F
:1003A000FF4FA591B4918FB7F894EC91611126C0DD
:1003B00030953E233C938FBF08952730A9F0283015
:1003C000C9F0243049F7809180008F7D03C080916F
:1003D00080008F7780938000DFCF84B58F7784BDD6
:1003E000DBCF84B58F7DFBCF8091B0008F7780937A
:1003F000B000D2CF8091B0008F7DF9CF3E2BDACF05
:100400003FB7F8948091630190916401A0916501D8
:10041000B091660126B5A89B05C02F3F19F0019643
:10042000A11DB11D3FBFBA2FA92F982F8827BC014E
:10043000CD01620F711D811D911D42E0660F771F76
:10044000881F991F4A95D1F70895089590E080E09C
:100450000895CF93DF93EC0160E08E810E94B40198
:1004600061E08E810E94B40160E08E810E94B4013F
:100470008BE891E00197F1F7DF91CF910895CF924A
:10048000DF92EF92FF920F931F93CF93DF936C0154
:100490007C0187E0E80EF11CD0E0C0E0062F10E000
:1004A000B8010C2E02C0759567950A94E2F7617049
:1004B000F70181917F010E94B4012196C430D105DA
:1004C00079F7C601DF91CF911F910F91FF90EF90C7
:1004D000DF90CF900C942902CF92DF92EF92FF929F
:1004E0000F931F93CF93DF93EC01F62E642F8C8133
:1004F0000E94B4018D818F3F19F060E00E94B40129
:100500000F2D10E08F8584FF25C06E0187E0C80E97
:10051000D11CF12CE12CB8010E2C02C07595679509
:100520000A94E2F76170F60181916F010E94B401B3
:10053000FFEFEF1AFF0A88E0E816F10461F7CE0139
:10054000DF91CF911F910F91FF90EF90DF90CF90AF
:100550000C942902B80184E0759567958A95E1F7B6
:10056000CE010E943F026F2DCE01DF91CF911F91EE
:100570000F91FF90EF90DF90CF900C943F02CF93BC
:10058000DF93823029F490911302986090931302C4
:10059000809317021092180280E48093190280E180
:1005A00080931A0280E580931B02809108020E94CA
:1005B0008800809109028F3F11F00E94880080918D
:1005C0000A020E948800C4E0D2E09E01245032401A
:1005D0008091130284FD0AC084E090E021962817E0
:1005E00039073CF48E810E948800EFCF88E090E0CC
:1005F000F5CF8BE39DE00197F1F760E08091080271
:100600000E94B40160E080910A020E94B4018091CE
:1006100009028F3F19F060E00E94B401609113025B
:1006200064FD45C063E084E092E00E943F02CBE4B9
:10063000D6E4CE010197F1F763E084E092E00E94F6
:100640003F022197F1F763E084E092E00E943F02CD
:1006500083E592E00197F1F762E084E092E00E9486
:100660003F0260911302606240E084E092E00E94E9
:100670006C0284E08093140240E06CE084E092E03D
:100680000E946C0240E061E084E092E00E946C0213
:100690008BE39FE10197F1F782E08093150240E040
:1006A00066E084E092E0DF91CF910C946C0260628E
:1006B00040E084E092E00E946C028BE496E40197B3
:1006C000F1F760911302606240E084E092E00E94E2
:1006D0006C0283E592E00197F1F76091130260628A
:1006E00040E084E092E00E946C02BBCF41E00E94B7
:1006F0006C0281E090E008951F920F920FB60F9266
:1007000011242F933F934F935F936F937F938F9316
:100710009F93AF93BF93EF93FF9387E691E00E947F
:100720002501FF91EF91BF91AF919F918F917F91A3
:100730006F915F914F913F912F910F900FBE0F904E
:100740001F9018951F920F920FB60F9211242F939E
:100750008F939F93EF93FF93E0917701F09178014E
:100760008081E0917D01F0917E0182FD1BC090812E
:10077000809180018F5F8F7320918101821741F0FA
:10078000E0918001F0E0E959FE4F958F8093800160
:10079000FF91EF919F918F912F910F900FBE0F902E
:1007A0001F9018958081F4CF1F920F920FB60F9271
:1007B00011242F933F938F939F93AF93BF93809177
:1007C0005F0190916001A0916101B091620130914F
:1007D0005E0123E0230F2D3758F50196A11DB11DB1
:1007E00020935E0180935F0190936001A09361016B
:1007F000B09362018091630190916401A0916501C1
:10080000B09166010196A11DB11D80936301909383
:100810006401A0936501B0936601BF91AF919F9170
:100820008F913F912F910F900FBE0F901F901895B1
:1008300026E8230F0296A11DB11DD2CF10926A01A6
:100840001092690188EE93E0A0E0B0E080936B0124
:1008500090936C01A0936D01B0936E018DE391E0D4
:10086000909368018093670185EC90E09093740108
:100870008093730184EC90E09093760180937501EE
:1008800080EC90E0909378018093770181EC90E088
:1008900090937A018093790182EC90E090937C01AF
:1008A00080937B0186EC90E090937E0180937D01A4
:1008B00010928001109281011092820110928301A6
:1008C000E8E2F2E086E0DF011D928A95E9F784E232
:1008D000E9E0F1E0AEE2B2E001900D928A95E1F735
:1008E0008CE0EDE2F1E0A2E5B2E001900D928A9594
:1008F000E1F78091000180932502809101018093AE
:100900002602809102018093270210921C0210920D
:100910001E0210921D021092200210921F021092CD
:10092000220210922102109224021092230266E009
:1009300070E090E080E00E942207009709F1909318
:10094000200280931F0225E030E0309322022093A2
:1009500021022091230230912402232B11F4FC0167
:10096000108285E090E0909324028093230267E553
:1009700071E080911F02909120020E94E80714C04C
:1009800080911F0290912002009711F00E94990619
:100990001092200210921F02109224021092230241
:1009A000109222021092210281E180931C02109287
:1009B0000702109206028FE491E090930502809363
:1009C000040282E0809308028FEF8093090283E0A3
:1009D00080930A0284E080930B0285E080930C02EE
:1009E00086E080930D0287E080930E0210920F0242
:1009F0001092100210921102109212021092130221
:100A000081E00C94BF02789484B5826084BD84B583
:100A1000816084BD85B5826085BD85B5816085BDF9
:100A200080916E00816080936E00109281008091B1
:100A30008100826080938100809181008160809339
:100A40008100809180008160809380008091B1005E
:100A500084608093B1008091B00081608093B00089
:100A600080917A00846080937A0080917A0082601D
:100A700080937A0080917A00816080937A008091DF
:100A80007A00806880937A001092C100E09177012B
:100A9000F091780182E08083E0917301F09174011C
:100AA0001082E0917501F09176018FEC80831092B5
:100AB0007F01E0917B01F0917C0186E08083E091F1
:100AC0007901F0917A01808180618083E0917901E0
:100AD000F0917A01808188608083E0917901F091C2
:100AE0007A01808180688083E0917901F0917A01B8
:100AF00080818F7D808382E00E94BF0200E010E051
:100B0000C0E085B18C7F8C2B85B90E9400024B011F
:100B10005C0184EFC82EDD24D394E12CF12C0E94DB
:100B20000002681979098A099B09683E73408105AA
:100B30009105A8F321E0C21AD108E108F10888EE76
:100B4000880E83E0981EA11CB11CC114D104E104DD
:100B5000F10429F7CF5FC330A1F60115110581F229
:100B60000E941101882361F20E940000C9CF809188
:100B70001F0290912002009711F00C94990608959D
:100B80002F923F924F925F926F927F928F929F929D
:100B9000AF92BF92CF92DF92EF92FF920F931F938B
:100BA000CF93DF93CDB7DEB7CA1BDB0B0FB6F8943C
:100BB000DEBF0FBECDBF09942A88398848885F847C
:100BC0006E847D848C849B84AA84B984C884DF80ED
:100BD000EE80FD800C811B81AA81B981CE0FD11DD1
:100BE0000FB6F894DEBF0FBECDBFED010895EE0F36
:100BF000FF1F0590F491E02D09940F931F93CF935D
:100C0000DF938230910510F482E090E0E091600281
:100C1000F091610230E020E0B0E0A0E0309799F47C
:100C20002115310509F44AC0281B390B2430310540
:100C3000D8F58A819B816115710589F1FB01938348
:100C40008283FE0111C040815181028113814817C6
:100C50005907E0F04817590799F4109761F0129678
:100C60000C93129713961C933296CF01DF91CF917C
:100C70001F910F9108950093600210936102F4CFC9
:100C80002115310551F04217530738F0A901DB0156
:100C90009A01BD01DF01F801C1CFEF01F9CF9093B7
:100CA000610280936002CDCFFE01E20FF31F8193BA
:100CB00091932250310939832883D7CF20915E0246
:100CC00030915F02232B41F4209105013091060100
:100CD00030935F0220935E02209103013091040162
:100CE0002115310541F42DB73EB7409107015091D0
:100CF0000801241B350BE0915E02F0915F02E217C0
:100D0000F307A0F42E1B3F0B2817390778F0AC012E
:100D10004E5F5F4F2417350748F04E0F5F1F50930B
:100D20005F0240935E02819391939FCFF0E0E0E0F9
:100D30009CCFCF93DF930097E9F0FC0132971382A9
:100D40001282A0916002B0916102ED0130E020E0DA
:100D50001097A1F420813181820F931F20915E02B0
:100D600030915F022817390709F061C0F0935F02E4
:100D7000E0935E02DF91CF910895EA01CE17DF077D
:100D8000E8F54A815B819E0141155105B1F7E90102
:100D9000FB83EA8349915991C40FD51FEC17FD07D6
:100DA00061F4808191810296840F951FE9019983F6
:100DB0008883828193819B838A83F0E0E0E01296AE
:100DC0008D919C9113970097B9F52D913C911197B6
:100DD000CD010296820F931F20915E0230915F0237
:100DE0002817390739F6309751F5109261021092A1
:100DF0006002B0935F02A0935E02BCCFD383C28334
:100E000040815181840F951FC817D90761F44E5F47
:100E10005F4F88819981480F591F518340838A8190
:100E20009B81938382832115310509F0B0CFF09324
:100E30006102E09360029ECFFD01DC01C0CF13820E
:100E40001282D7CFB0E0A0E0E8E2F7E00C94C20550
:100E50008C01009751F4CB010E94FD058C01C80163
:100E6000CDB7DEB7E0E10C94DE05FC01E60FF71F1D
:100E70009C0122503109E217F30708F49DC0D90103
:100E8000CD91DC911197C617D70798F0C530D105E1
:100E900030F3CE0104978617970708F3C61BD70BCC
:100EA0002297C193D1936D937C93CF010E949906B1
:100EB000D6CF5B01AC1ABD0A4C018C0E9D1EA091D1
:100EC0006002B0916102512C412CF12CE12C109761
:100ED00031F580915E0290915F028815990509F0C5
:100EE0005CC04616570608F058C0809103019091E7
:100EF0000401009741F48DB79EB7409107015091CE
:100F00000801841B950BE817F90708F055C0F0930A
:100F10005F02E0935E02F90171836083A0CF8D913F
:100F20009C91119712966C90129713967C90139740
:100F3000A815B90559F56C0142E0C40ED11CCA14BC
:100F4000DB0420F1AC014A195B09DA01129615970E
:100F500080F06282738251834083D9016D937C93C8
:100F6000E114F10471F0D7011396FC93EE931297FC
:100F700076CF22968C0F9D1FF90191838083F30118
:100F8000EFCFF0936102E093600269CF48165906F3
:100F900008F42C017D01D3019ACFCB010E94FD05FD
:100FA0007C01009749F0AE01B8010E94DF07C8013B
:100FB0000E949906870153CF10E000E050CFFB015B
:100FC000DC0102C001900D9241505040D8F70895C5
:100FD000FB01DC0101900D920020E1F7089510E083
:100FE000CDE5D0E004C0FE010E94F7052196CE3584
:100FF000D107C9F7F894FFCF100F0E0000620280EE
:101000000067246845CFFE8C43CDCCCC3D6510569F
:101010003C17FDA6440000C03FA8F3A63E14F83CD0
:10102000C39A99993F5A12CFC5B14FF3C3072C62A7
:1010300042000000004701A700D40094010501E32D
:1010400000F700000000007603A7002602250242F8
:06105000656C6C6F0000EE
:107800000C94343C0C94513C0C94513C0C94513CE1
:107810000C94513C0C94513C0C94513C0C94513CB4
:107820000C94513C0C94513C0C94513C0C94513CA4
:107830000C94513C0C94513C0C94513C0C94513C94
:107840000C94513C0C94513C0C94513C0C94513C84
:107850000C94513C0C94513C0C94513C0C94513C74
:107860000C94513C0C94513C11241FBECFEFD8E036
:10787000DEBFCDBF11E0A0E0B1E0ECE9FFE702C060
:1078800005900D92A230B107D9F712E0A2E0B1E065
:1078900001C01D92AD30B107E1F70E942D3D0C945F
:1078A000CC3F0C94003C982F959595959595959582
:1078B000905D8F708A307CF0282F295A8091C0000B
:1078C00085FFFCCF9093C6008091C00085FFFCCF60
:1078D0002093C6000895282F205DF0CF982F809127
:1078E000C00085FFFCCF9093C6000895EF92FF92F1
:1078F0000F931F93EE24FF2487018091C00087FD22
:1079000017C00894E11CF11C011D111D81E4E8164B
:1079100082E4F8068FE0080780E0180770F3E09132
:107920000401F091050109958091C00087FFE9CF1E
:107930008091C6001F910F91FF90EF9008950E94D3
:10794000763C982F8091C00085FFFCCF9093C600B5
:1079500091362CF490330CF09053892F089597555D
:10796000892F08951F930E949F3C182F0E949F3CCF
:107970001295107F810F1F9108951F93182F882350
:1079800021F00E94763C1150E1F71F9108951F935A
:10799000182F0E94763C803249F0809103018F5F5E
:1079A000809303018530C1F01F9108958091C0003C
:1079B00085FFFCCF84E18093C6008091C00085FFE5
:1079C000FCCF1093C6008091C00085FFFCCF80E102
:1079D0008093C6001F910895E0910401F091050184
:1079E00009951F9108950E94763C803241F0809164
:1079F00003018F5F80930301853081F008958091AA
:107A0000C00085FFFCCF84E18093C6008091C00058
:107A100085FFFCCF80E18093C6000895E0910401CA
:107A2000F09105010995089540E951E08823A1F0FE
:107A30002D9A28EE33E0FA013197F1F721503040CA
:107A4000D1F72D9828EE33E0FA013197F1F7215064
:107A50003040D1F7815061F708953F924F925F9285
:107A60006F927F928F929F92AF92BF92CF92DF924E
:107A7000EF92FF920F931F93CF93DF93000080E16B
:107A80008093C4001092C50088E18093C10086E015
:107A90008093C2005098589A259A81E00E94143D24
:107AA00024E1F22E9EE1E92E85E9D82E0FE0C02ECA
:107AB00010E1B12EAA24A394B1E49B2EA6E58A2E50
:107AC000F2E57F2EE0E26E2E79E4572E63E5462E36
:107AD00050E5352E0E94763C8033B1F18133B9F107
:107AE000803409F46FC0813409F476C0823409F41B
:107AF00085C0853409F488C0803531F1823521F1A3
:107B0000813511F1853509F485C0863509F48DC0BC
:107B1000843609F496C0843709F403C1853709F423
:107B200072C1863709F466C0809103018F5F80932C
:107B30000301853079F6E0910401F0910501099582
:107B40000E94763C803351F60E94F33CC3CF0E94E2
:107B5000763C803249F78091C00085FFFCCFF092DF
:107B6000C6008091C00085FFFCCF9092C600809136
:107B7000C00085FFFCCF8092C6008091C00085FFC9
:107B8000FCCF7092C6008091C00085FFFCCF609250
:107B9000C6008091C00085FFFCCF5092C600809146
:107BA000C00085FFFCCF4092C6008091C00085FFD9
:107BB000FCCF3092C6008091C00085FFFCCFB09210
:107BC000C60088CF0E94763C863808F4BDCF0E945C
:107BD000763C0E94F33C7ECF0E94763C803809F4CC
:107BE0009CC0813809F40BC1823809F43CC1883942
:107BF00009F48FC080E00E94C73C6CCF84E10E94F2
:107C0000BD3C0E94F33C66CF85E00E94BD3C0E94D3
:107C1000F33C60CF0E94763C809306010E94763C44
:107C2000809307010E94F33C55CF0E94763C80333D
:107C300009F41DC183E00E94BD3C80E00E94C73C66
:107C400049CF0E94763C809309020E94763C809343
:107C5000080280910C028E7F80930C020E94763C79
:107C6000853409F415C18091080290910902892B8D
:107C700089F000E010E00E94763CF801E85FFE4FDA
:107C800080830F5F1F4F80910802909109020817AF
:107C9000190788F30E94763C803209F045CF809125
:107CA0000C0280FF01C16091060170910701660F0F
:107CB000771F7093070160930601A0910802B091AD
:107CC00009021097C9F0E8E0F1E09B01AD014E0F09
:107CD0005F1FF999FECF32BD21BD819180BDFA9A17
:107CE000F99A2F5F3F4FE417F50799F76A0F7B1F4B
:107CF00070930701609306018091C00085FFFCCF5F
:107D0000F092C6008091C00085FFFCCFB092C60003
:107D1000E1CE83E00E94C73CDDCE82E00E94C73CFA
:107D2000D9CE0E94763C809309020E94763C8093D3
:107D300008028091060190910701880F991F909386
:107D40000701809306010E94763C853409F4A6C0A1
:107D500080910C028E7F80930C020E94763C8032D0
:107D600009F0B8CE8091C00085FFFCCFF092C6002C
:107D7000609108027091090261157105B9F140E046
:107D800050E080910C02A82FA170B82FB27011C0E2
:107D9000BB2309F45CC0E0910601F0910701319624
:107DA000F0930701E09306014F5F5F4F46175707B7
:107DB000E8F4AA2369F3F999FECF209106013091E6
:107DC000070132BD21BDF89A90B58091C00085FFB2
:107DD000FCCF9093C6002F5F3F4F30930701209355
:107DE00006014F5F5F4F4617570718F38091C00099
:107DF00085FDE5CE8091C00085FFF8CFE0CE81E023
:107E00000E94C73C67CE0E94763C803209F08CCE3F
:107E10008091C00085FFFCCFF092C6008091C00029
:107E200085FFFCCFE092C6008091C00085FFFCCFAB
:107E3000D092C6008091C00085FFFCCFC092C600E2
:107E40008091C00085FFFCCFB092C60043CEE09188
:107E50000601F091070194918091C00085FFFCCF4D
:107E60009093C6009CCF80E10E94C73C33CE0E9415
:107E7000763C0E94763C182F0E94763C112309F430
:107E800083C0113009F484C08FE00E94C73C22CE29
:107E900080910C02816080930C02E5CE80910C02EF
:107EA000816080930C0259CF809107018823880F4D
:107EB000880B8A2180930B02809106019091070123
:107EC000880F991F90930701809306018091080203
:107ED00080FF09C080910802909109020196909359
:107EE000090280930802F894F999FECF1127E091D6
:107EF0000601F0910701C8E0D1E08091080290915D
:107F00000902103091F40091570001700130D9F34B
:107F100003E000935700E89500915700017001308D
:107F2000D9F301E100935700E89509901990009169
:107F3000570001700130D9F301E000935700E89534
:107F40001395103498F011270091570001700130FB
:107F5000D9F305E000935700E895009157000170B0
:107F60000130D9F301E100935700E895329602976A
:107F700009F0C7CF103011F00296E5CF112480919F
:107F8000C00085FFB9CEBCCE8EE10E94C73CA2CD19
:0E7F900085E90E94C73C9ECDF894FFCF80008B
:00000001FF
