:020000040000FA
:100000000C941C010C9444010C9444010C94440184
:100010000C9444010C9444010C9444010C9444014C
:100020000C9444010C9444010C9444010C9444013C
:100030000C9444010C9444010C9444010C9444012C
:100040000C94F40F0C9444010C94C20F0C949C0F6C
:100050000C9444010C9444010C9444010C9444010C
:100060000C9444010C94440108000000BE92244901
:10007000123EABAAAA2ABECDCCCC4C3E00000080DA
:10008000BEABAAAAAA3E00000000BF000000803F4D
:100090000000000000084178D3BB4387D1133D190D
:1000A0000E3CC3BD4282AD2B3E68EC8276BED98F3A
:1000B000E1A93E4C80EFFFBE01C4FF7F3F0000007E
:1000C000000007634236B79BD8A71A39685618AEA6
:1000D000BAAB558C1D3CB7CC5763BD6DEDFD753E7D
:1000E000F6177231BF000000803F00407A10F35ACB
:1000F00000A0724E18090010A5D4E80000E8764868
:10010000170000E40B54020000CA9A3B000000E113
:10011000F505000080969800000040420F000000A6
:10012000A08601000000102700000000E803000086
:1001300000006400000000000A0000000000010050
:10014000000000002C76D888DC674F0823DFC1DF71
:10015000AE59E1B1B796E5E3E453C63AE651997674
:1001600096E8E6C28426EB898C9B62ED407C6FFCAE
:10017000EFBC9C9F40F2BAA56FA5F490055A2AF7F0
:100180005C936B6CF9676DC11BFCE0E40D47FEF5F9
:1001900020E6B500D0ED902E030094357705008061
:1001A000841E080000204E0A000000C80C333333C0
:1001B000330F986E12831141EF8D2114893BE65560
:1001C00016CFFEE6DB18D1844B381BF77C1D901D43
:1001D000A4BBE424203284725E228100C9F124ECA5
:1001E000A1E53D270000000800020100000304070C
:1001F00000000000000000000000000025002800B2
:100200002B0000000000240027002A00040404043E
:1002100004040404020202020202030303030303B0
:10022000010204081020408001020408102001028D
:10023000040810205E103D1411241FBECFEFD8E03B
:10024000DEBFCDBF24E0A4E7B2E001C01D92A3371A
:10025000B207E1F712E0A0E0B1E0E4E7FAE302C0A0
:1002600005900D92A437B107D9F711E0CBE1D1E0A9
:1002700004C02197FE010E942C1BCA31D107C9F787
:100280000E94B1110C942D1D0C94000090E0FC0113
:10029000E05EFD4F2491845F9D4FFC018491882393
:1002A00099F090E0880F991FFC01EE5FFD4FA5913A
:1002B000B491FC01E850FE4F859194918FB7F8946A
:1002C000EC91E22BEC938FBF08954F925F926F9267
:1002D0007F928F929F92AF92BF92EF92FF920F9375
:1002E0001F93CF93DF93CEE8D3E0A1E9B3E0AD0154
:1002F000FE0191919E3008F09E509770906490930B
:100300007C0090917A00906490937A0090917A00AA
:1003100096FDFCCF9091780020917900322F292F03
:100320002D933D934E175F0721F7811154C003E6CB
:1003300014E084E9E82E83E0F82E6B817C81072E9F
:10034000000C880B990B0E9412174B015C01F801FD
:1003500020813181428153810E947117A50194014E
:100360000E94711727E137EB41ED58E30E947117A6
:100370002B013C01F8012481358146815781C5015B
:10038000B4010E9471172AE037ED43E25CE30E945A
:1003900071179B01AC01C301B2010E946718F801FB
:1003A00020853185428553850E9467180E94451932
:1003B0006F3F710519F014F06FEF70E077FF02C026
:1003C00070E060E07C836B8322960C501109EC1680
:1003D000FD0609F0B2CF81E993E0DF91CF911F9143
:1003E0000F91FF90EF90BF90AF909F908F907F9074
:1003F0006F905F904F9008950895AF92BF92CF9203
:10040000DF92EF92FF920F931F93CF93DF936C01D4
:100410007B018B01040F151FEB015E01AE18BF08B5
:10042000C017D10759F06991D601ED91FC91019067
:10043000F081E02DC6010995892B79F7C501DF917F
:10044000CF911F910F91FF90EF90DF90CF90BF90D1
:10045000AF900895FC01538D448D252F30E0842FFB
:1004600090E0821B930B541710F0CF9608950197DC
:100470000895FC01918D828D981761F0A28DAE0FC9
:10048000BF2FB11D5D968C91928D9F5F9F73928F50
:1004900090E008958FEF9FEF0895FC01918D828D7C
:1004A000981731F0828DE80FF11D858D90E0089549
:1004B0008FEF9FEF0895FC01918D228D892F90E0A1
:1004C000805C9F4F821B91098F73992708958FE756
:1004D00092E00E945B0221E0892B09F420E0822F48
:1004E000089580E090E0892B29F00E946702811135
:1004F0000C9400000895FC01A48DA80FB92FB11D24
:10050000A35ABF4F2C91848D90E001968F73992749
:10051000848FA689B7892C93A089B1898C91837027
:1005200080648C93938D848D981306C00288F38920
:10053000E02D80818F7D80830895EF92FF920F934D
:100540001F93CF93DF93EC0181E0888F9B8D8C8D7F
:1005500098131AC0E889F989808185FF15C09FB773
:10056000F894EE89FF896083E889F9898081837036
:10057000806480839FBF81E090E0DF91CF911F91E5
:100580000F91FF90EF900895F62E0B8D10E00F5F06
:100590001F4F0F731127E02E8C8D8E110CC00FB6DC
:1005A00007FCFACFE889F989808185FFF5CFCE0174
:1005B0000E947B02F1CFEB8DEC0FFD2FF11DE35A72
:1005C000FF4FF0829FB7F8940B8FEA89FB898081F7
:1005D0008062CFCFCF93DF93EC01888D8823B9F071
:1005E000AA89BB89E889F9898C9185FD03C080813E
:1005F00086FD0DC00FB607FCF7CF8C9185FFF2CFBB
:10060000808185FFEDCFCE010E947B02E9CFDF9193
:10061000CF91089590E0FC01EC51FE4F2491FC0134
:10062000E05EFD4F3491FC01E45FFD4FE491EE2369
:10063000C9F0222339F0233001F1A8F4213019F157
:10064000223029F1F0E0EE0FFF1FE850FE4FA59198
:10065000B4918FB7F894EC91611126C030953E2388
:100660003C938FBF08952730A9F02830C9F024307B
:1006700049F7809180008F7D03C0809180008F7743
:1006800080938000DFCF84B58F7784BDDBCF84B5C6
:100690008F7DFBCF8091B0008F778093B000D2CF59
:1006A0008091B0008F7DF9CF3E2BDACF3FB7F89421
:1006B0008091790290917A02A0917B02B0917C02A4
:1006C00026B5A89B05C02F3F19F00196A11DB11DAD
:1006D0003FBFBA2FA92F982F8827BC01CD01620FE9
:1006E000711D811D911D42E0660F771F881F991FA4
:1006F0004A95D1F708958F929F92AF92BF92CF9271
:10070000DF92EF92FF924B015C010E9456036B0156
:100710007C010E9456036C197D098E099F09683E71
:10072000734081059105A8F321E0821A9108A10880
:10073000B10888EEC80E83E0D81EE11CF11C8114BC
:100740009104A104B10429F7FF90EF90DF90CF90BE
:10075000BF90AF909F908F90089590E080E00895B3
:10076000CF93DF93EC0160E08E810E940A0361E089
:100770008E810E940A0360E08E810E940A038BE84A
:1007800091E00197F1F7DF91CF910895CF92DF9239
:10079000EF92FF920F931F93CF93DF936C017C0135
:1007A00087E0E80EF11CD0E0C0E0062F10E0B801B1
:1007B0000C2E02C0759567950A94E2F76170F701F7
:1007C00081917F010E940A032196C430D10579F7F7
:1007D000C601DF91CF911F910F91FF90EF90DF90B5
:1007E000CF900C94B003CF92DF92EF92FF920F93D1
:1007F0001F93CF93DF93EC01F62E642F8C810E9420
:100800000A038D818F3F19F060E00E940A030F2DCB
:1008100010E08F8584FF25C06E0187E0C80ED11CD3
:10082000F12CE12CB8010E2C02C0759567950A9445
:10083000E2F76170F60181916F010E940A03FFEFF8
:10084000EF1AFF0A88E0E816F10461F7CE01DF91A4
:10085000CF911F910F91FF90EF90DF90CF900C946C
:10086000B003B80184E0759567958A95E1F7CE01EC
:100870000E94C6036F2DCE01DF91CF911F910F9182
:10088000FF90EF90DF90CF900C94C60341E00E9460
:10089000F30381E090E0089540E00C94F30361E0FD
:1008A0008CE193E00E944C048BE39FE10197F1F708
:1008B0000895CF93DF93823029F490912B039860B1
:1008C00090932B0380932F031092300380E4809346
:1008D000310380E18093320380E58093330380917C
:1008E00020030E944601809121038F3F11F00E9456
:1008F0004601809122030E944601CCE1D3E09E0193
:100900002C51334080912B0384FD0AC084E090E099
:100910002196281739073CF48E810E944601EFCFBB
:1009200088E090E0F5CF8BE39DE00197F1F760E080
:10093000809120030E940A0360E0809122030E94BC
:100940000A03809121038F3F19F060E00E940A039F
:1009500060912B0364FD3AC063E08CE193E00E9458
:10096000C603CBE4D6E4CE010197F1F763E08CE156
:1009700093E00E94C6032197F1F763E08CE193E0D6
:100980000E94C60383E592E00197F1F762E08CE1F3
:1009900093E00E94C60360912B0360628CE193E0B8
:1009A0000E944C0484E080932C036CE08CE193E083
:1009B0000E944C040E944F0482E080932D0366E065
:1009C0008CE193E0DF91CF910C944C0460628CE158
:1009D00093E00E944C048BE496E40197F1F7609158
:1009E0002B0360628CE193E00E944C0483E592E06B
:1009F0000197F1F760912B0360628CE193E00E9414
:100A00004C04C9CFECE1F3E06089862F8160808BD4
:100A10006960CF010C944C04FC012389421710F04B
:100A20004FEF420FFC01E40FF11D2489620F606853
:100A30000C944C040F931F93CF93DF93EC018B0125
:100A4000413089F0422F60E0CE010E940C05F80190
:100A50004481558160817181CE01DF91CF911F91D9
:100A60000F910C94FD01FB018481958160E170E0A0
:100A7000681B790B76956795422FE6CF4F925F9270
:100A80006F927F928F929F92AF92BF92CF92DF929E
:100A9000EF92FF921F93CF93DF93CDB7DEB76097AE
:100AA0000FB6F894DEBF0FBECDBF162F9E012F5F8D
:100AB0003F4F690190E1F90111929A95E9F74EE8EB
:100AC00053E030E090E0891711F1DA0160E020E0B6
:100AD000E32EF12CEE0CFF1C1217A1F0F701E60F2C
:100AE000F11DEE0FFF1FEE0FFF1FEC0DFD1D199600
:100AF0008D909D90AD90BC901C9780829182A28237
:100B0000B3826F5F2F5F1496233031F73F5F9F5F93
:100B1000445F5F4F9330B9F6682F70E090E080E05B
:100B20000E9410179B01AC0160E070E080E89FEB31
:100B30000E94D0194B015C01612F70E090E080E0D1
:100B40000E9410179B01AC0160E070E080E89FEB11
:100B50000E94D0192B013C012D853E854F85588977
:100B600069817A818B819C810E9471176B017C0164
:100B700029853A854B855C856D817E818F8198853D
:100B80000E9471179B01AC01C701B6010E94661853
:100B90006B017C01A3019201C501B4010E94711790
:100BA0009B01AC01C701B6010E94711760960FB698
:100BB000F894DEBF0FBECDBFDF91CF911F91FF90A4
:100BC000EF90DF90CF90BF90AF909F908F907F90ED
:100BD0006F905F904F900895FB0101900020E9F71E
:100BE0003197AF01461B570BDC01ED91FC91028060
:100BF000F381E02D09948F929F92AF92BF92EF9272
:100C0000FF920F931F93CF93DF93CDB7DEB7A197DA
:100C10000FB6F894DEBF0FBECDBF7C01FA01CB0149
:100C200019A2223008F42AE08E010F5D1F4F822E98
:100C3000912CB12CA12CBF01A50194010E940A1B8B
:100C4000F901CA016A300CF5605DD8016E938D011F
:100C5000232B242B252B79F790E080E0109721F0AF
:100C6000BD01C7010E94EC05A1960FB6F894DEBF46
:100C70000FBECDBFDF91CF911F910F91FF90EF90ED
:100C8000BF90AF909F908F900895695CDECFCF9218
:100C9000DF92EF92FF920F931F93CF93DF936B013D
:100CA000770FEE08FF08F7FE1FC0EC01E881F9811D
:100CB0000190F081E02D6DE209958C0144275527C4
:100CC000BA014C195D096E097F092AE0CE010E9424
:100CD000FB05800F911FDF91CF911F910F91FF9026
:100CE000EF90DF90CF9008952AE0B701A601DF9141
:100CF000CF911F910F91FF90EF90DF90CF900C94C8
:100D0000FB054F925F926F927F928F929F92AF926C
:100D1000BF92CF92DF92EF92FF920F931F93CF93E8
:100D20006B017C01742EAC019B010E94201A6EE4C1
:100D300071E0811126C046015701E894B7F82FEF02
:100D40003FEF4FE75FE7C501B4010E94201A811110
:100D50000CC02FEF3FEF4FE75FE7C501B4010E94E2
:100D60000B1762E571E0181664F02FEF3FEF4FE7C5
:100D70005FE4C701B6010E947B191816ACF466E562
:100D800071E08FE792E0CF911F910F91FF90EF906C
:100D9000DF90CF90BF90AF909F908F907F906F909B
:100DA0005F904F900C94EC052FEF3FEF4FE75FEC17
:100DB000C701B6010E940B1787FDE1CF20E030E0AC
:100DC000A901C701B6010E940B1710E000E087FFE0
:100DD0000AC06DE28FE792E00E949D028C01F7FA53
:100DE000F094F7F8F094C0E060E070E080E09FE3FA
:100DF0007C1641F020E030E040E251E40E94D3183C
:100E0000CF5FF6CFA70196010E9467182B013C0126
:100E10000E944C194B015C012AE0BC01A4018FE740
:100E200092E00E94FB057C01E00EF11ECC23D1F183
:100E3000C501B4010E9410179B01AC01C301B201AE
:100E40000E9466184B015C016EE28FE792E00E94FF
:100E50009D02E80EF91EC15028F120E030E040E28A
:100E600051E4C501B4010E9471172B013C010E949D
:100E70004C194B01B12CA12C2AE0B501A4018FE73C
:100E800092E00E94FB05E80EF91EC501B4010E9424
:100E900010179B01AC01C301B2010E9466184B01FF
:100EA0005C01D9CFC701CF911F910F91FF90EF90B7
:100EB000DF90CF90BF90AF909F908F907F906F907A
:100EC0005F904F9008950C94EC05CF93DF93EC0165
:100ED0000E944F046AE571E08CE193E00E94630791
:100EE0006C817D818CE193E00E94470640E068E0E0
:100EF0008CE193E00E940C056EE571E08CE193E0DB
:100F00000E9463076A817B818CE193E00E9447061F
:100F100041E060E08CE193E00E940C0562E671E044
:100F20008CE193E00E946307688179818CE193E012
:100F3000DF91CF910C944706FC018081918100974D
:100F400011F00C94631460E070E0CB010895FC0193
:100F500024813581232B39F421E0FB018081882312
:100F600049F020E007C0808191810E941D1D21E091
:100F7000892BB9F7822F08950F931F93CF93DF9397
:100F80008C01EB01FC01808191810097E1F0688187
:100F9000798161157105A9F0428153812C813D81D0
:100FA0004217530770F00E94261D8C819D81F80125
:100FB000958384831D821C82DF91CF911F910F91B5
:100FC00008950E94CE1B88819981F80191838083C6
:100FD0008A819B81938382838C819D819583848385
:100FE000198218821B821A82E5CFCF93DF93EC011E
:100FF00088819981009711F00E94CE1B1982188276
:101000001D821C821B821A82DF91CF910895FC0100
:1010100080819181009711F00C94CE1B08950F935D
:101020001F93CF93DF938C01EC01C85BDF4F0C174C
:101030001D0729F02697CE010E940708F8CFDF91FF
:10104000CF911F910F9108950F931F93CF93DF932B
:10105000EC0188819981009759F02A813B812617FC
:10106000370730F081E0DF91CF911F910F91089504
:101070008B016F5F7F4F0E94571C009759F0998337
:1010800088831B830A832C813D81232B59F7FC0124
:101090001082E8CF80E0E7CFEF92FF920F931F938B
:1010A000CF93DF936115710541F480E0DF91CF911B
:1010B0001F910F91FF90EF90089541155105B1F0E8
:1010C0007B01EC010C811D81040F151FB8010E94EA
:1010D0002408882351F3288139818C819D81B701AF
:1010E000820F931F0E94261D1D830C8381E0DECF9B
:1010F000CF93DF93EC01FB0101900020E9F73197DA
:10110000AF01461B570B0E944C08811103C0CE0152
:101110000E94F507CE01DF91CF910895CF93DF9321
:10112000EC01FB0144815581608171810E944C0872
:10113000811103C0CE010E94F507CE01DF91CF914E
:101140000895EF92FF920F931F93CF93DF93EC01DB
:101150007B018A01BA010E94240881110BC0CE01D3
:101160000E94F507CE01DF91CF911F910F91FF9063
:10117000EF9008951D830C83B701888199810E94A7
:10118000261DF0CFFB0101900020E9F73197AF0158
:10119000461B570B0C94A1080F931F93CF93DF931B
:1011A000CDB7DEB762970FB6F894DEBF0FBECDBFE6
:1011B0008C01CB01F80111821082138212821582F8
:1011C00014824AE0BE016F5F7F4F0E948A14BE0105
:1011D0006F5F7F4FC8010E94C20862960FB6F894F5
:1011E000DEBF0FBECDBFDF91CF911F910F9108954C
:1011F000FB01DC0111961C921E9213961C921E920A
:10120000129715961C921E9214978617970749F00D
:10121000608171816115710521F0448155810C94C3
:10122000A1080895AF92BF92CF92DF92EF92FF9202
:101230000F931F93CF93DF937C01EB016C015B0154
:1012400088E4A80EB11C10E000E0BE01600F711F21
:10125000C8018C0D9D1D0E94F8080A5F1F4F0231C6
:10126000110599F7629682E1C80ED11CCA15DB05FB
:1012700051F78881F701E85BFF4F8083DF91CF91C1
:101280001F910F91FF90EF90DF90CF90BF90AF90A4
:1012900008950F931F93CF93DF93CDB7DEB7689771
:1012A0000FB6F894DEBF0FBECDBF8C01FC0160818C
:1012B0007181CE0101960E94CC08F8016281738190
:1012C000CE0107960E94CC08F80164817581CE0199
:1012D00043960E94CC08BE016D5E7F4FCE010D96F5
:1012E0000E94F80866E671E0CE010D960E9478082B
:1012F000BE01695F7F4F0E948E0866E671E00E9422
:101300007808BE016F5F7F4F0E948E08FC01448108
:101310005581608171818FE792E00E94FD0168E64E
:1013200071E08FE792E00E94EC05CE010D960E94DD
:101330000708CE0143960E940708CE0107960E9437
:101340000708CE0101960E94070868960FB6F89428
:10135000DEBF0FBECDBFDF91CF911F910F910895DA
:10136000FC01118210821382128215821482FB0109
:1013700001900020E9F73197AF01461B570B0C9401
:10138000A1089F92AF92BF92CF92DF92EF92FF920D
:101390000F931F93CF93DF938C016B01942EAA249C
:1013A000A394B12C7B0148E4E40EF11CD0E0C0E032
:1013B0008BB19E012C5F3F4FF50102C0EE0FFF1F66
:1013C0002A95E2F78F708E2B8BB961E070E080E098
:1013D00090E00E947B0363B170E033E07595679500
:1013E0003A95E1F76770F70160836623F1F170E0E9
:1013F00090E080E00E9410170E94881928E132E7EF
:1014000041E35FE30E94D3180E944C19F701608307
:1014100083B190E023E0959587952A95E1F7877051
:101420009927892BA9F78BB18F708BB9F701808130
:1014300092E19C9FB0019D9F700D1124F6E08F9F5B
:10144000600D711D11246C0D7D1DC8010E94F808EE
:10145000C801DF91CF911F910F91FF90EF90DF9026
:10146000CF90BF90AF909F9008952196C430D10542
:1014700009F09ECF91109ACF6EE771E0C8010E94EB
:10148000B009E6CF8F929F92AF92BF92CF92DF9238
:10149000EF92FF920F931F93CF93DF93CDB7DEB7F9
:1014A0002C970FB6F894DEBF0FBECDBFF82EE62EF8
:1014B0006A016EE771E08BE393E00E94C2086EE779
:1014C00071E0CE0107960E94B00941E0B601CE015D
:1014D00001960E94C109BE016F5F7F4FCE01079642
:1014E0000E94BC07CE0101960E9407086BE671E0DE
:1014F000CE0107960E94A707882309F44FC08BE30B
:1015000093E00E949C074B015C018FEF88169104C9
:10151000A104B10409F00CF4B5C04E2D6F2D8CE17F
:1015200093E00E940C0510E080913F0390914003EE
:101530001817190640F463E771E08CE193E00E940C
:1015400063071F5FF1CF4E2D6F2D8CE193E00E945A
:101550000C056DE671E08CE193E00E94630764EF97
:1015600071E080E090E00E947B034E2D6F2D8CE1B6
:1015700093E00E940C0561E771E08CE193E00E942A
:1015800063074E2D6F2D8CE193E00E940C056EE7F2
:1015900071E08BE393E00E94C20897CF65E771E0AA
:1015A000CE0107960E94A707882309F45AC000912C
:1015B0003F03109140030115110509F452C06EE775
:1015C00071E0CE0101960E94B00980913F03909195
:1015D0004003009709F1015011098017910708F4A1
:1015E0008C01E0913B03F0913C03E00FF11FB080D0
:1015F000108260913B0370913C03CE01019661150E
:10160000710561F10E94C20880913B0390913C03F7
:10161000080F191FF801B082BE016F5F7F4F8BE387
:1016200093E00E94BC07CE0101960E9407086091DA
:101630003F036F0D4E2D8CE193E00E940C0563E794
:1016400071E08CE193E00E94630760913F036F0DAE
:101650004E2D8CE193E00E940C0537CF0E94F507D8
:10166000D3CF4B855C856F8178858BE393E00E94B7
:101670004C084B855C856F8178858CE193E00E94F6
:10168000FD0123CFCE0107960E940708C4012C96C6
:101690000FB6F894DEBF0FBECDBFDF91CF911F9183
:1016A0000F91FF90EF90DF90CF90BF90AF909F9001
:1016B0008F900895CF92DF92FF920F931F93CF9355
:1016C000DF93CDB7DEB7C954D1090FB6F894DEBFAA
:1016D0000FBECDBF8C010E944F046AE571E08CE122
:1016E00093E00E9463070E940205B801CE010196B3
:1016F0000E941209AE014F5F5F4F60E083E00E94DD
:10170000420A9093350380933403CE0101960E94E0
:101710000F0840E068E08CE193E00E940C056EE564
:1017200071E08CE193E00E9463070E940205B8011A
:10173000CE0101960E941209AE014F5F5F4F60E03B
:101740008BE00E94420A9093370380933603CE01C8
:1017500001960E940F0841E060E08CE193E00E9456
:101760000C0562E671E08CE193E00E9463070E9441
:101770000205B801CE0101960E941209AE014F5F29
:101780005F4F61E083E00E94420A909339038093A7
:101790003803CE0101960E940F0860912C036E7FE2
:1017A00060932C0368608CE193E00E944C0441E05C
:1017B00068E08CE193E00E940C0567E771E08CE142
:1017C00093E00E94630794E3C92E93E0D92EF12C95
:1017D000F601619171916F018FE792E00E944706D7
:1017E000F2E066E671E0FF1202C068E671E08FE7A2
:1017F00092E00E946307F39483E0F812E9CF40E09F
:10180000B801CE0101960E94C1096EE771E0CE01D8
:1018100001960E94A707F82ECE0101960E940708A4
:10182000FF20E9F084E3C82E83E0D82EF12C85B1A7
:101830008C7F8F2985B9F601819191916F0199274C
:1018400090938B0080938A0064E670E080E090E0E3
:101850000E947B03F394F3E0FF12E9CFD0CF0E9404
:101860004F0484E393E0C75BDF4F0FB6F894DEBF0D
:101870000FBECDBFDF91CF911F910F91FF90DF90F1
:10188000CF9008952F923F924F925F926F927F92E6
:101890008F929F92AF92BF92CF92DF92EF92FF9280
:1018A0000F931F93CF93DF93CDB7DEB7CD54D109FC
:1018B0000FB6F894DEBF0FBECDBF5C014B018BE4C9
:1018C00094E02E969FAF8EAF2E97FC01108211826E
:1018D0001282138214821582168217821086118654
:1018E000128613863C9694E0EF36F90779F7439A0F
:1018F0009EE8C92E93E0D92EDE0111967D01F601F6
:1019000065A576A587A590A91EA21DA218A61FA24F
:101910001AA619A6870122E044E00E944514009708
:1019200009F487C0BC01CE0185960E94C20865E813
:1019300071E0CE01C1960E94B009BE016B5D7F4F80
:10194000CE01C1960E948E08BC01C7010E94F80812
:1019500020E040E0B701C5010E941A05C7010E94BE
:101960000708CE01C1960E940708CE0185960E9405
:10197000070840E0B401C7010E94C10965E771E0B2
:10198000C7010E94A707182FC7010E94070881E01E
:10199000111154C00E9465016091950370919603E6
:1019A000CE0185960E94CC086091930370919403B8
:1019B000CE01C1960E94CC08609191037091920370
:1019C000CE01CD960E94CC08BE01635C7F4FCE0154
:1019D000C7960E94F80862E871E0CE01C7960E949F
:1019E0007808BE016F5C7F4F0E948E0862E871E04C
:1019F0000E947808BE016B5D7F4F0E948E08BC017B
:101A0000C7010E94F80821E040E0B701C5010E942B
:101A10001A05C7010E940708CE01C7960E94070851
:101A2000CE01CD960E940708CE01C1960E940708FC
:101A30009CCFCE0185960E94F50779CF0E94650163
:101A40006091910370919203072E000C880B990B03
:101A50000E94121720E030E048EC52E40E94D318B4
:101A6000D601D9966D937D938D939C93DC9760916D
:101A7000930370919403072E000C880B990B0E941E
:101A8000121720E030E048EC52E40E94D318F6012F
:101A900065AB76AB87AB90AF609195037091960381
:101AA000072E000C880B990B0E94121720E030E0E3
:101AB00048EC52E40E94D318D601D1966D937D93E1
:101AC0008D939C93D497B0E1CB0ED11CEEE1CE1652
:101AD000E4E0DE0609F013CF439884E2D7011D92BB
:101AE0008A95E9F784E0282E312C0BEB13E0C12C0A
:101AF000D12C760146015701D8018D919D910D9011
:101B0000BC91A02D27968CAF9DAFAEAFBFAF2797EE
:101B1000F801E20DF31D4080518062807380A301C3
:101B20009201BC01CD010E9471179B01AC01C5015E
:101B3000B4010E9467184B015C01A3019201C3012B
:101B4000B2010E94711727962CAD3DAD4EAD5FAD31
:101B500027970E9471179B01AC01C701B6010E9433
:101B600067186B017C01005F1F4FB4E00B341B074B
:101B700019F680E090E0AFE8B4E48DA39EA3AFA394
:101B8000B8A789A69AA6ABA6BCA6CDA6DEA6EFA648
:101B9000F8AA810102571C4F99E028969FAF289719
:101BA0002C961CAE1DAE1EAE1FAE2C9727961CAEFB
:101BB0001DAE1EAE1FAE2797C12CD12C760146015B
:101BC0005701D8019D964D905D906D907C90D09777
:101BD000A3019201C501B4010E9467184B015C0189
:101BE000A3019201C301B2010E9471179B01AC01D4
:101BF000C701B6010E9467186B017C0120E030E04C
:101C000040E450E4C301B2010E94D0199B01AC0131
:101C100027966CAD7DAD8EAD9FAD27970E9467185E
:101C200027966CAF7DAF8EAF9FAF279720E030E057
:101C300040E850E4C301B2010E94D0199B01AC01FD
:101C40002C966CAD7DAD8EAD9FAD2C970E94671824
:101C50002C966CAF7DAF8EAF9FAF2C972896BFAD03
:101C60002897B1502896BFAF2897005F1F4FB1113A
:101C7000A8CFC0929703D0929803E0929903F09274
:101C80009A0380929B0390929C03A0929D03B09232
:101C90009E0380E090E0A0E1B1E480939F039093E5
:101CA000A003A093A103B093A20327968CAD9DAD92
:101CB000AEADBFAD27978093A3039093A403A093E9
:101CC000A503B093A603C092A703D092A803E09205
:101CD000A903F092AA038092AB039092AC03A09266
:101CE000AD03B092AE032C968CAD9DADAEADBFAD45
:101CF0002C978093AF039093B003A093B103B0935C
:101D0000B20327968CAD9DADAEADBFAD2797809346
:101D1000B3039093B403A093B503B093B603C092FA
:101D2000B703D092B803E092B903F092BA0360E02F
:101D300080E00E943E05A70196010E9471176B0189
:101D40007C0161E080E00E943E05A50194010E94B3
:101D50007117A70196010E9467186B017C0162E070
:101D600080E00E943E0520E030E040E151E40E9426
:101D70007117A70196010E9467182B013C01DE0133
:101D800011967D016D0110E0560100E0612F802F5A
:101D90000E943E05A30192010E94D318F5016193B0
:101DA0007193819391935F010F5F033079F71F5F08
:101DB000FCE0CF0ED11C133039F72E96AEACBFAC81
:101DC0002E97D5014D905D906D907D905D014E01F7
:101DD000B5E28B0E911CD12CC12CF4016191719153
:101DE000819191914F01F701EC0DFD1D2081318111
:101DF000428153810E9471179B01AC01C301B20162
:101E00000E9467182B013C01F4E0CF0ED11C8CE03E
:101E1000C816D10411F7F5013497408251826282CD
:101E2000738211509CE0E90EF11C1111CACF2E965D
:101E3000AEADBFAD2E971C962E96BFAFAEAF2E9710
:101E4000B4E02B0E311CE0E12E16310409F04DCE2A
:101E500061E971E08FE792E00E94630710E000E023
:101E6000C801855B9B4F6C01F12CD6016D917D9172
:101E70008D919D916D0142E00E948106B2E069E67C
:101E800071E0FB1611F06DE771E08FE792E00E94C0
:101E90006307F394E3E0FE12E8CF045F1F4F0432C0
:101EA0001105F1F661EC71E08FE792E00E946307A3
:101EB00010E000E062EF71E08FE792E00E946307BC
:101EC000C80185549C4F6C01F12CD6016D917D9118
:101ED0008D919D916D0142E00E948106B3E06FE714
:101EE00071E0FB1611F062E871E08FE792E00E946A
:101EF0006307F394E4E0FE12E8CF005F1F4F003960
:101F00001105C1F6C35BDF4F0FB6F894DEBF0FBEFD
:101F1000CDBFDF91CF911F910F91FF90EF90DF9098
:101F2000CF90BF90AF909F908F907F906F905F9079
:101F30004F903F902F9008951F920F920FB60F92DF
:101F400011242F933F934F935F936F937F938F93BE
:101F50009F93AF93BF93EF93FF938FE792E00E941D
:101F60007B02FF91EF91BF91AF919F918F917F91F4
:101F70006F915F914F913F912F910F900FBE0F90F6
:101F80001F9018951F920F920FB60F9211242F9346
:101F90008F939F93EF93FF93E0918F02F0919002C4
:101FA0008081E0919502F091960282FD1BC09081A4
:101FB000809198028F5F8F7320919902821741F070
:101FC000E0919802F0E0E158FD4F958F80939802E0
:101FD000FF91EF919F918F912F910F900FBE0F90D6
:101FE0001F9018958081F4CF1F920F920FB60F9219
:101FF00011242F933F938F939F93AF93BF9380911F
:10200000750290917602A0917702B091780230919A
:10201000740223E0230F2D3758F50196A11DB11D41
:10202000209374028093750290937602A0937702B6
:10203000B09378028091790290917A02A0917B020C
:10204000B0917C020196A11DB11D809379029093FD
:102050007A02A0937B02B0937C02BF91AF919F91D3
:102060008F913F912F910F900FBE0F901F90189559
:1020700026E8230F0296A11DB11DD2CFE1E8F0E0C2
:1020800080818860808380818F7E8083A0E8B0E03B
:102090008C9181608C938C918D7F8C938C918062DC
:1020A0008C938C918F7E8C938081816080838081E2
:1020B0008D7F808380818B7F808308951F93CF9352
:1020C000DF93EFE7F2E01382128288EE93E0A0E064
:1020D000B0E084839583A683B78384E391E0918302
:1020E000808385EC90E09587848784EC90E09787E7
:1020F000868780EC90E0918B808B81EC90E0938BD5
:10210000828B82EC90E0958B848B86EC90E0978BB1
:10211000868B118E128E138E148ECEE8D3E0188229
:1021200019821A8216E0E1E9F3E0DF01812F1D92A6
:102130008A95E9F7E7E9F3E084E2DF011D928A95E9
:10214000E9F7EBEBF3E080E9DF011D928A95E9F70F
:1021500080E090E0A8EFB1E48093CB039093CC03B0
:10216000A093CD03B093CE0380E090E0ACE7B2E45F
:102170008093DB039093DC03A093DD03B093DE0335
:1021800080E090E0AEEBB2E48093EB039093EC033D
:10219000A093ED03B093EE0380E090E0AEEFB2E4E5
:1021A0008093FB039093FC03A093FD03B093FE0385
:1021B00080E090E0AFE1B3E480930B0490930C04D3
:1021C000A0930D04B0930E0480E090E0AFE3B3E47D
:1021D00080931B0490931C04A0931D04B0931E04D1
:1021E00080E090E0AFE5B3E480932B0490932C045F
:1021F000A0932D04B0932E0480E090E0AFE7B3E409
:1022000080933B0490933C04A0933D04B0933E0420
:1022100084E2E9E0F1E0ABE4B4E001900D928A954C
:10222000E1F73B9AE0E0F1E0808188838181898356
:1022300082818A8364EF71E085E493E00E94B009B3
:1022400066EF71E08BE493E00E94B00968EF71E003
:1022500081E593E00E94B0096AEF71E087E593E0C1
:102260000E94B0096CEF71E08DE593E00E94B00927
:102270006EEF71E083E693E00E94B00960E072E0E7
:1022800089E693E00E94B00962E072E08FE693E095
:102290000E94B00964E072E085E793E00E94B00913
:1022A0006BE671E08BE793E00E94B00966E072E0B4
:1022B00081E893E00E94B00965E771E087E893E068
:1022C0000E94B00910928D038AB1806F8AB984B1DF
:1022D000877C84B984B1876084B90E943E10CCE1C8
:1022E000D3E01B821A8286E491E09983888382E09E
:1022F0008C838FEF8D8383E08E8384E08F8385E0F2
:102300008887198787E08A871B861C861D861E861C
:102310001F8681E00E945904E4E3F3E0DF011D928F
:102320001A95E9F76EE771E08BE393E00E94B0093C
:1023300080912D0190912E01A0912F018DA39EA33C
:10234000AFA384B1876084B90E943E1082E00E94EE
:1023500059040E944F0481E18E8FDF91CF911F912C
:102360000895CF93DF93CDB7DEB7C257D1090FB62B
:10237000F894DEBF0FBECDBF789484B5826084BD73
:1023800084B5816084BD85B5826085BD85B5816079
:1023900085BD80916E00816080936E0010928100F7
:1023A00080918100826080938100809181008160B2
:1023B0008093810080918000816080938000809173
:1023C000B10084608093B1008091B00081608093FF
:1023D000B00080917A00846080937A0080917A00C6
:1023E000826080937A0080917A00816080937A0085
:1023F00080917A00806880937A001092C100E09109
:102400008F02F091900282E08083E0918B02F09144
:102410008C021082E0918D02F0918E028FEC80830D
:1024200010929702E0919302F091940286E08083EB
:10243000E0919102F0919202808180618083E0912D
:102440009102F0919202808188608083E0919102F4
:10245000F0919202808180688083E0919102F091F6
:10246000920280818F7D808368E072E0CE010196C8
:102470000E94B00920E041E0BE016F5F7F4F8CE118
:1024800093E00E941A05CE0101960E94070863E1BD
:1024900072E0CE0101960E94B00921E041E0BE0148
:1024A0006F5F7F4F8CE193E00E941A05CE01019689
:1024B0000E94070864EF71E080E090E00E947B03D7
:1024C00086E4C82E81E0D82E8AE490E08C0F9D1F10
:1024D00007965C018AE490E08C0F9D1F48964C01A2
:1024E0000AE410E00C0F1D1F015E1F4F90E0E92E63
:1024F00090E0F92E0E944F0464E272E0CE01019652
:102500000E94B00920E041E0BE016F5F7F4F8CE187
:1025100093E00E941A05CE0101960E9407086EE220
:1025200072E0CE0101960E94B00921E040E0BE01B8
:102530006F5F7F4F8CE193E00E941A05CE010196F8
:102540000E94070841E065E473E0CE0101960E9415
:10255000C109CE0101960E949C072B013C01CE01CE
:1025600001960E94070891E0491651046104710424
:1025700099F082E0481651046104710409F4FBC02B
:10258000E114F10409F4B6CF0E946702882309F42C
:10259000B1CF0E940000AECF0E944F046EE372E004
:1025A000CE0101960E94B00920E040E0BE016F5FBD
:1025B0007F4F8CE193E00E941A05CE0101960E94A4
:1025C00007086AE472E0CE0101960E94B00921E09A
:1025D00040E0BE016F5F7F4F8CE193E00E941A05DF
:1025E000CE0101960E94070841E065E473E0CE0148
:1025F00001960E94C109CE0101960E949C072B0101
:102600003C01CE0101960E94070891E04916510451
:102610006104710499F182E0481651046104710467
:1026200009F0AECF439A40E065E473E0CE01019635
:102630000E94C1096EE771E0CE0101960E94A707D2
:10264000782ECE0101960E940708772009F413C165
:1026500080E00E94650190937E0280937D020E943B
:10266000650780917D0290917E020E94490968EC85
:1026700070E080E090E00E947B03D5CF65E473E0DA
:10268000CE0101960E94120980911E0390911F03B2
:102690002E969FAF8EAF2E972C96DFAECEAE2C9798
:1026A000809120032F968FAF2F9780912103609602
:1026B0008FAF60978091220361968FAF619788E01A
:1026C000E3E2F3E0D50101900D928A95E1F7809164
:1026D0002B036A968FAF6A9780912C036B968FAF0E
:1026E0006B9780912D036C968FAF6C9780912E0322
:1026F0006D968FAF6D9780912F036E968FAF6E970B
:102700008091300390913103A0913203B091330353
:10271000A2968CAF9DAFAEAFBFAFA29786E0E4E3C9
:10272000F3E0D40101900D928A95E1F780913A038C
:10273000A9968FAFA9976BE373E0C8010E94F808D0
:102740008091410390914203A0914303E2968DAFA3
:102750009EAFAFAFE297BE016F5F7F4FCE01865B4A
:102760009F4F0E94420CC8010E940708CE010196AB
:102770000E940F0805CF0E944F0468E572E0CE0169
:1027800001960E94B00920E040E0BE016F5F7F4FDC
:102790008CE193E00E941A05CE0101960E94070881
:1027A00067E672E0CE0101960E94B00921E040E0A8
:1027B000BE016F5F7F4F8CE193E00E941A05CE014E
:1027C00001960E94070841E065E473E0CE0101969E
:1027D0000E94C109CE0101960E949C072B013C0179
:1027E000CE0101960E94070891E049165104610448
:1027F000710491F182E0481651046104710409F0FA
:10280000BFCE439A40E065E473E0CE0101960E949A
:10281000C1096EE771E0CE0101960E94A707782EEC
:10282000CE0101960E940708772029F180E00E94DE
:10283000650190937E0280937D020E9465078091DE
:102840007D0290917E020E94490964E170E080E07F
:1028500090E00E947B03D6CF65E473E0CE01019641
:102860000E941209CE0101960E945A0B90937E029B
:1028700080937D027BCF439883CE8BE393E00E94CD
:10288000070885E493E00C940F08EF920F931F93D1
:10289000CF93DF93E80134E047FD34E1042E000CD0
:1028A000550B57FF03C0519541955109E32E022F57
:1028B000242FAE010E94C414CE01DF91CF911F914D
:1028C0000F91EF9008951F93FC0199278827BC0171
:1028D000E89411911032E9F3193010F01E30C8F36A
:1028E0001B3251F01D3249F4689406C00E949514C1
:1028F000610F711D811D911D119110531A30B0F39C
:102900003EF490958095709561957F4F8F4F9F4FC6
:102910001F910895BB274A3031F4992322F4BDE278
:10292000909581959F4F0C94AB14592F482F372FBA
:10293000262F660F771F881F991F660F771F881F26
:10294000991F620F731F841F951F660F771F881FC3
:10295000991F0895BB27FB015527AA27880F991FA8
:10296000AA1FA41710F0A41B83955051B9F7A05DBE
:10297000AA3308F0A95DA193009779F7B111B1933B
:102980001192CB010C94FB16A9E0B0E0EAECF4E163
:102990000C9435186A01F22EB02E102FFBE3AF2EE7
:1029A000A01608F41BE31F5F012F27E0AE014F5F65
:1029B0005F4F0E942316BC018981982F9970913036
:1029C00009F43FC09BE2E1FC04C09E2D9170E0FC45
:1029D0003AC05E2D5071E82FE87083FF46C084E056
:1029E000911101C083E0EF2DE81B8F1508F0E0E0A6
:1029F000D6018E2F20E2552351F1992329F0D601DB
:102A00009C93C60101966C0196012D5F3F4FE2FE3B
:102A100024C08EE4D6018C9391E411969C93119777
:102A200012968C93D9018E2F90E281111BC0E20F78
:102A3000F32FF11D10828EEF9FEF2996ECE00C949E
:102A400051189DE2C6CF90E2C4CF2D9381508111E1
:102A5000FCCFCE0ED11CE0E0D0CF8EE6D6018C9319
:102A600091E6DBCF9D938150E0CF482F447082FFE9
:102A70003DC084E0911101C083E08F1510F4EF2D6B
:102A8000E81BD6018E2F20E2552309F1992329F066
:102A9000D6019C93C60101966C0196012D5F3F4FB4
:102AA000E2FE1BC089E4D6018C938EE411968C93D0
:102AB000119786E412968C93D9018E2F90E2882389
:102AC00009F4B5CF9D938150FACF2D938150811198
:102AD000FCCFCE0ED11CE0E0D9CF89E6D6018C9395
:102AE0008EE611968C93119786E6E4CF9B0177FFD3
:102AF00002C030E020E0A1E0B0E0911102C0B0E0FF
:102B0000A0E0F9013196AE0FBF1F8B2C912CBB209A
:102B100009F461C05401EFEFAE1ABE0AAA0DBB1D45
:102B2000FA161B0619F014F04F2D4A1B511188C0DC
:102B3000E3FC59C07601A42FB0E2A1114FC0C40E2E
:102B4000D11C992309F45BC040E0D6011196F6012F
:102B500090836D01552309F448C0012F060F9A8117
:102B6000582F507184FF03C0913309F4015010169F
:102B70000CF047C0093008F008E0EEE2FE2E5B01E1
:102B8000A01AB10885019194819491082F3F3207D2
:102B900029F4D601FC92F60131966F016217730792
:102BA00094F1021713077CF5DB01A21BB30BAA24D7
:102BB000A394B12CAC0EBD1EAA0DBB1D11968C9119
:102BC00021503109D601119628153905F4F0F60186
:102BD00080836D01DBCFB12CA12CA0CFF701B19385
:102BE0007F01A150AACF9111B0CFD601942F50E30D
:102BF00002C05D9391509111FCCFC40ED11C40E0F6
:102C0000ACCF01E0BACF80E3DBCF6217730731F4BA
:102C1000963388F4953311F4552369F0F6018083D7
:102C2000FD01842F90E2811108C0A40FB11D1C92F8
:102C300090E080E002CF81E3F1CF91938150F3CF18
:102C4000911183CF8ACF283008F027E03327DA01AB
:102C5000990F311D87FD916000966105710539F46A
:102C600032602E5F3D9330E32A95E1F708959F3F50
:102C700030F080387105610509F03C5F3C5F3D93A1
:102C8000913008F08068911DDF93CF931F930F93CD
:102C9000FF92EF92192F987F9695E92F969596952A
:102CA000E90FFF27EC5BFE4F99273327EE24FF2423
:102CB000A701E70105900894079428F4360FE71E52
:102CC000F81E491F511D660F771F881F991F069414
:102CD000A1F70590079428F4E70EF81E491F561F28
:102CE000C11D770F881F991F661F0694A1F70590D5
:102CF000079428F4F80E491F561FC71FD11D880FCF
:102D0000991F661F771F0694A1F70590079420F47A
:102D1000490F561FC71FD81F990F661F771F881F9F
:102D20000694A9F784911095177041F0D695C79530
:102D300057954795F794E7941A95C1F7EAEEF0E0B6
:102D400068941590159135916591959105907FE264
:102D50007395E118F10A430B560BC90BD009C0F764
:102D6000E10CF11E431F561FC91FD01D7EF47033A6
:102D700011F48A95E6CFE894015030F0080F0AF478
:102D80000027021708F4202F2395022F7A3328F00A
:102D900079E37D932A95E9F710C07D932A9589F60A
:102DA000069497956795379517951794E118F10A4A
:102DB000430B560BC90BD00998F023957E91739560
:102DC0007A3308F070E37C932013B8F77E9170613A
:102DD0007D9330F0839571E37D9370E32A95E1F75D
:102DE0001124EF90FF900F911F91CF91DF919927C0
:102DF00087FD90950895DC01FC01672F7191772381
:102E0000E1F7329704C07C916D9370836291AE17A5
:102E1000BF07C8F308950E944D1708F481E0089594
:102E2000E89409C097FB3EF4909580957095619564
:102E30007F4F8F4F9F4F9923A9F0F92F96E9BB271A
:102E40009395F695879577956795B795F111F8CF96
:102E5000FAF4BB0F11F460FF1BC06F5F7F4F8F4F01
:102E60009F4F16C0882311F096E911C0772321F0F7
:102E70009EE8872F762F05C0662371F096E8862F8F
:102E800070E060E02AF09A95660F771F881FDAF7E6
:102E9000880F9695879597F90895990F0008550F13
:102EA000AA0BE0E8FEEF16161706E807F907C0F0D0
:102EB00012161306E407F50798F0621B730B840BD8
:102EC000950B39F40A2661F0232B242B252B21F4B2
:102ED00008950A2609F4A140A6958FEF811D811D52
:102EE00008950E9484170C94F5170E94E71738F094
:102EF0000E94EE1720F0952311F00C94DE170C942D
:102F0000E41711240C9429180E94061870F3959F59
:102F1000C1F3950F50E0551F629FF001729FBB27D0
:102F2000F00DB11D639FAA27F00DB11DAA1F649F6C
:102F30006627B00DA11D661F829F2227B00DA11D1F
:102F4000621F739FB00DA11D621F839FA00D611DA5
:102F5000221F749F3327A00D611D231F849F600DC6
:102F6000211D822F762F6A2F11249F5750409AF0EF
:102F7000F1F088234AF0EE0FFF1FBB1F661F771F7B
:102F8000881F91505040A9F79E3F510580F00C9446
:102F9000DE170C9429185F3FE4F3983ED4F386952E
:102FA00077956795B795F795E7959F5FC1F7FE2BE6
:102FB000880F911D9695879597F9089597F99F67C2
:102FC00080E870E060E008959FEF80EC08950024B1
:102FD0000A941616170618060906089500240A947E
:102FE00012161306140605060895092E0394000C04
:102FF00011F4882352F0BB0F40F4BF2B11F460FF93
:1030000004C06F5F7F4F8F4F9F4F089557FD9058BB
:10301000440F551F59F05F3F71F04795880F97FB9C
:10302000991F61F09F3F79F0879508951216130656
:103030001406551FF2CF4695F1DF08C01616170685
:103040001806991FF1CF86957105610508940895BA
:10305000E894BB2766277727CB0197F908952F922D
:103060003F924F925F926F927F928F929F92AF9218
:10307000BF92CF92DF92EF92FF920F931F93CF9365
:10308000DF93CDB7DEB7CA1BDB0B0FB6F894DEBFFC
:103090000FBECDBF09942A88398848885F846E8422
:1030A0007D848C849B84AA84B984C884DF80EE806C
:1030B000FD800C811B81AA81B981CE0FD11D0FB675
:1030C000F894DEBF0FBECDBFED0108955058BB2769
:1030D000AA270E947E180C94F5170E94E71738F073
:1030E0000E94EE1720F039F49F3F19F426F40C9457
:1030F000E4170EF4E095E7FB0C94DE17E92F0E942D
:10310000061858F3BA17620773078407950720F06B
:1031100079F4A6F50C9428180EF4E0950B2EBA2F2E
:10312000A02D0B01B90190010C01CA01A0011124CD
:10313000FF27591B99F0593F50F4503E68F11A1679
:10314000F040A22F232F342F4427585FF3CF46950A
:1031500037952795A795F0405395C9F77EF41F162C
:10316000BA0B620B730B840BBAF09150A1F0FF0FF6
:10317000BB1F661F771F881FC2F70EC0BA0F621FE2
:10318000731F841F48F4879577956795B795F795D2
:103190009E3F08F0B0CF9395880F08F09927EE0F67
:1031A0009795879508950E94E7180C94F5170E944B
:1031B000EE1758F00E94E71740F029F45F3F29F01E
:1031C0000C94DE1751110C9429180C94E4170E94EA
:1031D000061868F39923B1F3552391F3951B550B0A
:1031E000BB27AA2762177307840738F09F5F5F4FDA
:1031F000220F331F441FAA1FA9F335D00E2E3AF019
:10320000E0E832D091505040E695001CCAF72BD030
:10321000FE2F29D0660F771F881FBB1F2617370781
:103220004807AB07B0E809F0BB0B802DBF01FF27B3
:1032300093585F4F3AF09E3F510578F00C94DE179B
:103240000C9429185F3FE4F3983ED4F38695779564
:103250006795B795F7959F5FC9F7880F911D96956C
:10326000879597F90895E1E0660F771F881FBB1FC8
:10327000621773078407BA0720F0621B730B840B75
:10328000BA0BEE1F88F7E09508950E944C196894D8
:10329000B1110C94291808950E940E1888F09F57B8
:1032A00098F0B92F9927B751B0F0E1F0660F771F6A
:1032B000881F991F1AF0BA95C9F714C0B13091F060
:1032C0000E942818B1E008950C942818672F782FD1
:1032D0008827B85F39F0B93FCCF386957795679525
:1032E000B395D9F73EF490958095709561957F4F91
:1032F0008F4F9F4F08950E944D1708F48FEF089548
:1033000016F00C945F1A0C94E41768940C94DE1772
:103310000E940E18A8F39923C1F3AEF3DF93CF9365
:103320001F930F93FF92C92FDD2788232AF021973F
:10333000660F771F881FDAF720E030E040E85FEB88
:103340009FE3883920F0803E38F021968F770E94E5
:103350006718E8E6F0E004C00E946718E5E9F0E0CD
:103360000E946D1A8B01BE01EC01FB2E6F57710993
:103370007595771F880B990B0E94121728E132E789
:1033800041E35FE30E948417AF2D9801AE01FF90E7
:103390000F911F91CF91DF910E947E180C94F51729
:1033A000FA01EE0FFF1F309621053105A1F16115DD
:1033B000710561F48038BFE39B0749F16894903848
:1033C000810561F08038BFEF9B0741F099234AF5F2
:1033D000FF3FE1053105210519F1E8940894E795CF
:1033E000D901AA2329F4AB2FBE2FF85FD0F310C068
:1033F000FF5F70F4A695E0F7F73950F019F0FF3A47
:1034000038F49F779F930DD00F9007FC9058089544
:1034100046F00C94E41760E070E080E89FE30895C4
:103420004FE79F775F934F933F932F930E948819A5
:103430002F913F914F915F910E9471170C942D1A1B
:103440000E944D17880B990B089529F416F00C94DF
:10345000DE170C9428180C94E4170E940E18A8F399
:103460009638A0F707F80F92E8942BE33AEA48EB76
:103470005FE70E9487170F920F920F924DB75EB7CA
:103480000F920E94D61AE2ECF0E00E946D1A4F9162
:103490005F91EF91FF91E595EE1FFF1F49F0FE57F9
:1034A000E0684427EE0F441FFA95E1F74195550B6C
:1034B0000E94A01A0F9007FE0C94941A08959F3F43
:1034C00031F0915020F4879577956795B795880FDF
:1034D000911D9695879597F90895DF93CF931F9344
:1034E0000F93FF92EF92DF927B018C01689406C0EC
:1034F000DA2EEF010E948417FE01E894A591259130
:10350000359145915591A6F3EF010E947E18FE0179
:103510009701A801DA9469F7DF90EF90FF900F917F
:103520001F91CF91DF9108959B01AC0160E070E0A5
:1035300080E89FE30C94D3180C94DE170C945F1A68
:103540000E940E18D8F39923C9F3940F511DA3F3C9
:103550009150504094F059F0882332F0660F771F55
:10356000881F91505040C1F79E3F51052CF7880F9E
:10357000911D9695879597F908955F3FACF0983E19
:103580009CF0BB27869577956795B79508F4B16051
:103590009395C1F7BB0F58F711F460FFE8CF6F5F49
:1035A0007F4F8F4F9F4FE3CF0C942918FA01DC0116
:1035B000AA0FBB1F9B01AC01BF5728F4222733275A
:1035C0004427507820C0B75190F4AB2F0024469583
:1035D00037952795011CA395D2F3002071F0220F97
:1035E000331F441FB395DAF30ED00C946618613084
:1035F0007105A0E88A07B94630F49B01AC01662743
:10360000772788279078309621F020833183428372
:1036100053830895A1E21A2EAA1BBB1BFD010DC006
:10362000AA1FBB1FEE1FFF1FA217B307E407F50772
:1036300020F0A21BB30BE40BF50B661F771F881F4E
:10364000991F1A9469F760957095809590959B01E4
:10365000AC01BD01CF010895EE0FFF1F0590F4915D
:10366000E02D09940F931F93CF93DF938230910540
:1036700010F482E090E0E0917104F091720430E087
:1036800020E0B0E0A0E0309799F42115310509F46D
:103690004AC0281B390B24303105D8F58A819B811B
:1036A0006115710589F1FB0193838283FE0111C0CD
:1036B000408151810281138148175907E0F0481772
:1036C000590799F4109761F012960C93129713967C
:1036D0001C933296CF01DF91CF911F910F910895E6
:1036E0000093710410937204F4CF2115310551F049
:1036F0004217530738F0A901DB019A01BD01DF0130
:10370000F801C1CFEF01F9CF909372048093710457
:10371000CDCFFE01E20FF31F819391932250310927
:1037200039832883D7CF20916F0430917004232BE5
:1037300041F42091050130910601309370042093EB
:103740006F0420910301309104012115310541F4EA
:103750002DB73EB74091070150910801241B350B4E
:10376000E0916F04F0917004E217F307A0F42E1BB0
:103770003F0B2817390778F0AC014E5F5F4F2417D5
:10378000350748F04E0F5F1F5093700440936F044D
:10379000819391939FCFF0E0E0E09CCFCF93DF93B4
:1037A0000097E9F0FC01329713821282A091710414
:1037B000B0917204ED0130E020E01097A1F4208177
:1037C0003181820F931F20916F043091700428176C
:1037D000390709F061C0F0937004E0936F04DF9142
:1037E000CF910895EA01CE17DF07E8F54A815B81A2
:1037F0009E0141155105B1F7E901FB83EA83499127
:103800005991C40FD51FEC17FD0761F48081918198
:103810000296840F951FE9019983888382819381A1
:103820009B838A83F0E0E0E012968D919C91139740
:103830000097B9F52D913C911197CD010296820F19
:10384000931F20916F04309170042817390739F6BF
:10385000309751F51092720410927104B093700475
:10386000A0936F04BCCFD383C28340815181840F66
:10387000951FC817D90761F44E5F5F4F8881998102
:10388000480F591F518340838A819B819383828390
:103890002115310509F0B0CFF0937204E093710463
:1038A0009ECFFD01DC01C0CF13821282D7CFB0E0E2
:1038B000A0E0EDE5FCE10C9431188C01009751F487
:1038C000CB010E94321B8C01C801CDB7DEB7E0E10D
:1038D0000C944D18FC01E60FF71F9C012250310992
:1038E000E217F30708F49DC0D901CD91DC9111973F
:1038F000C617D70798F0C530D10530F3CE0104972D
:103900008617970708F3C61BD70B2297C193D1934D
:103910006D937C93CF010E94CE1BD6CF5B01AC1A76
:10392000BD0A4C018C0E9D1EA0917104B0917204D1
:10393000512C412CF12CE12C109731F580916F0422
:10394000909170048815990509F05CC046165706D9
:1039500008F058C08091030190910401009741F450
:103960008DB79EB74091070150910801841B950BBC
:10397000E817F90708F055C0F0937004E0936F045E
:10398000F90171836083A0CF8D919C91119712965C
:103990006C90129713967C901397A815B90559F55A
:1039A0006C0142E0C40ED11CCA14DB0420F1AC014E
:1039B0004A195B09DA011296159780F062827382C8
:1039C00051834083D9016D937C93E114F10471F02C
:1039D000D7011396FC93EE93129776CF22968C0F15
:1039E0009D1FF90191838083F301EFCFF09372045F
:1039F000E093710469CF4816590608F42C017D0143
:103A0000D3019ACFCB010E94321B7C01009749F071
:103A1000AE01B8010E94141DC8010E94CE1B87018F
:103A200053CF10E000E050CFFB01DC0102C0019059
:103A30000D9241505040D8F70895FB01DC018D9163
:103A4000019080190110D9F3990B0895FB01DC0155
:103A500001900D920020E1F7089511E0CBE1D1E053
:103A600004C0FE010E942C1B2196CC31D107C9F75E
:103A7000F894FFCF100F0E000073048000DCB1D16A
:103A80004044A8ADC19C1D2EC10A11BE3FE8B13A09
:103A9000427905EFC247EC20406104FD4128909136
:103AA000C2100F0F000000009D02FD012A02EA0271
:103AB0005B0239024D02000000004604FD01AD0327
:103AC000FC016E616E00696E66006F766600523AA8
:103AD0002000473A2000423A20002C000D0A002A1C
:103AE0000045525200202020002300446F6E6521C3
:103AF0000009005D0A002C20004361707475726536
:103B0000202D3E200052656772657373696F6E20C9
:103B1000436F6E7374616E74730A2D2D2D2D2D2DD0
:103B20002D2D2D2D2D2D2D2D2D2D2D2D2D2D2D2DC5
:103B30002D2D2D0A005261772044617461206D653E
:103B400073737572656D656E74730A2D2D2D2D2D31
:103B50002D2D2D2D2D2D2D2D2D2D2D2D2D2D2D2D95
:103B60002D2D2D2D0A005B00310032003300340072
:103B700035003600370038003900300057656C6377
:103B80006F6D65202121005465616D205361676967
:103B900074746172697573004D61696E204D656E54
:103BA0007500313A53656E7320323A5267624C6544
:103BB000640043616C696272617465203F00313A50
:103BC00059657320202020323A4E6F00313A20434D
:103BD0006F6C6F7220696E70757400323A20526596
:083BE000616C2054696D650061
:107E0000112484B714BE81FFF0D085E080938100F7
:107E100082E08093C00088E18093C10086E0809377
:107E2000C20080E18093C4008EE0C9D0259A86E02C
:107E300020E33CEF91E0309385002093840096BBD3
:107E4000B09BFECF1D9AA8958150A9F7CC24DD24C4
:107E500088248394B5E0AB2EA1E19A2EF3E0BF2EE7
:107E6000A2D0813461F49FD0082FAFD0023811F036
:107E7000013811F484E001C083E08DD089C08234E0
:107E800011F484E103C0853419F485E0A6D080C0E4
:107E9000853579F488D0E82EFF2485D0082F10E0AE
:107EA000102F00270E291F29000F111F8ED06801E7
:107EB0006FC0863521F484E090D080E0DECF843638
:107EC00009F040C070D06FD0082F6DD080E0C81688
:107ED00080E7D80618F4F601B7BEE895C0E0D1E017
:107EE00062D089930C17E1F7F0E0CF16F0E7DF06D8
:107EF00018F0F601B7BEE89568D007B600FCFDCFD4
:107F0000A601A0E0B1E02C9130E011968C91119780
:107F100090E0982F8827822B932B1296FA010C0160
:107F200087BEE89511244E5F5F4FF1E0A038BF0790
:107F300051F7F601A7BEE89507B600FCFDCF97BE46
:107F4000E89526C08437B1F42ED02DD0F82E2BD052
:107F50003CD0F601EF2C8F010F5F1F4F84911BD097
:107F6000EA94F801C1F70894C11CD11CFA94CF0C13
:107F7000D11C0EC0853739F428D08EE10CD085E9AC
:107F80000AD08FE07ACF813511F488E018D01DD067
:107F900080E101D065CF982F8091C00085FFFCCF94
:107FA0009093C60008958091C00087FFFCCF809118
:107FB000C00084FD01C0A8958091C6000895E0E648
:107FC000F0E098E1908380830895EDDF803219F02E
:107FD00088E0F5DFFFCF84E1DECF1F93182FE3DFCA
:107FE0001150E9F7F2DF1F91089580E0E8DFEE27F6
:047FF000FF270994CA
:027FFE00040479
:00000001FF
