:020000040000FA
:100000000C9476000C949E000C949E000C949E0020
:100010000C949E000C949E000C949E000C949E00E8
:100020000C949E000C949E000C949E000C949E00D8
:100030000C949E000C949E000C949E000C949E00C8
:100040000C94AD010C949E000C941D020C94F701CD
:100050000C949E000C949E000C949E000C949E00A8
:100060000C949E000C949E0007634236B79BD8A761
:100070001A39685618AEBAAB558C1D3CB7CC5763CD
:10008000BD6DEDFD753EF6177231BF000000803F7B
:1000900008000000BE922449123EABAAAA2ABECD97
:1000A000CCCC4C3E00000080BEABAAAAAA3E000009
:1000B0000000BF000000803F000000000008417801
:1000C000D3BB4387D1133D190E3CC3BD4282AD2B38
:1000D0003E68EC8276BED98FE1A93E4C80EFFFBE30
:1000E00001C4FF7F3F00000000004F0211241FBE2B
:1000F000CFEFD8E0DEBFCDBF11E0A0E0B1E0EEEA87
:10010000F0E102C005900D92A635B107D9F722E0C3
:10011000A6E5B1E001C01D92A533B207E1F710E0FA
:10012000C6E7D0E004C02197FE010E944F08C53702
:10013000D107C9F70E94A2020C9455080C94000044
:10014000AF92BF92CF92DF92EF92FF920F931F93E5
:10015000CF93DF936C017B018B01040F151FEB0123
:100160005E01AE18BF08C017D10759F06991D601DA
:10017000ED91FC910190F081E02DC6010995892B4C
:1001800079F7C501DF91CF911F910F91FF90EF900B
:10019000DF90CF90BF90AF900895FC01538D448DB8
:1001A000252F30E0842F90E0821B930B541710F022
:1001B000CF96089501970895FC01918D828D98172F
:1001C00061F0A28DAE0FBF2FB11D5D968C91928D07
:1001D0009F5F9F73928F90E008958FEF9FEF089538
:1001E000FC01918D828D981731F0828DE80FF11D01
:1001F000858D90E008958FEF9FEF0895FC01918D1C
:10020000228D892F90E0805C9F4F821B91098F7314
:10021000992708958FE591E00E94FE0021E0892B47
:1002200009F420E0822F089580E090E0892B29F0E6
:100230000E940A0181110C9400000895FC01A48D14
:10024000A80FB92FB11DA35ABF4F2C91848D90E0F8
:1002500001968F739927848FA689B7892C93A089DB
:10026000B1898C91837080648C93938D848D981365
:1002700006C00288F389E02D80818F7D80830895F8
:10028000EF92FF920F931F93CF93DF93EC0181E0E6
:10029000888F9B8D8C8D98131AC0E889F98980818D
:1002A00085FF15C09FB7F894EE89FF896083E889C0
:1002B000F98980818370806480839FBF81E090E0B2
:1002C000DF91CF911F910F91FF90EF900895F62E3F
:1002D0000B8D10E00F5F1F4F0F731127E02E8C8DD9
:1002E0008E110CC00FB607FCFACFE889F98980811E
:1002F00085FFF5CFCE010E941E01F1CFEB8DEC0FF3
:10030000FD2FF11DE35AFF4FF0829FB7F8940B8F3A
:10031000EA89FB8980818062CFCFCF93DF93EC01A4
:10032000888D8823B9F0AA89BB89E889F9898C91DD
:1003300085FD03C0808186FD0DC00FB607FCF7CF99
:100340008C9185FFF2CF808185FFEDCFCE010E9499
:100350001E01E9CFDF91CF9108951F920F920FB642
:100360000F9211242F933F938F939F93AF93BF933B
:1003700080915B0190915C01A0915D01B0915E0163
:1003800030915A0123E0230F2D3758F50196A11D16
:10039000B11D20935A0180935B0190935C01A0935F
:1003A0005D01B0935E018091560190915701A0913B
:1003B0005801B09159010196A11DB11D80935601BC
:1003C00090935701A0935801B0935901BF91AF91F9
:1003D0009F918F913F912F910F900FBE0F901F9083
:1003E000189526E8230F0296A11DB11DD2CF1F92AA
:1003F0000F920FB60F9211242F933F934F935F9359
:100400006F937F938F939F93AF93BF93EF93FF93DC
:100410008FE591E00E941E01FF91EF91BF91AF9196
:100420009F918F917F916F915F914F913F912F910C
:100430000F900FBE0F901F9018951F920F920FB63E
:100440000F9211242F938F939F93EF93FF93E0913B
:100450006F01F09170018081E0917501F09176015A
:1004600082FD1BC09081809178018F5F8F732091F6
:100470007901821741F0E0917801F0E0E15AFE4FF6
:10048000958F80937801FF91EF919F918F912F919C
:100490000F900FBE0F901F9018958081F4CFEFE55D
:1004A000F1E01382128288EE93E0A0E0B0E0848352
:1004B0009583A683B78383E491E09183808385EC61
:1004C00090E09587848784EC90E09787868780EC1E
:1004D00090E0918B808B81EC90E0938B828B82EC0F
:1004E00090E0958B848B86EC90E0978B868B118EB9
:1004F000128E138E148EEFEFF1E086E0DF011D9275
:100500008A95E9F784E2E3E0F1E0A5E0B2E001904A
:100510000D928A95E1F78CE0E7E2F1E0A9E2B2E022
:1005200001900D928A95E1F7ECEFF1E0A0E0B1E0E7
:100530008C91808311968C911197818312968C9166
:1005400082830895CF93DF93CDB7DEB7A3970FB61D
:10055000F894DEBF0FBECDBF789484B5826084BDB1
:1005600084B5816084BD85B5826085BD85B58160B7
:1005700085BD80916E00816080936E001092810035
:1005800080918100826080938100809181008160F0
:1005900080938100809180008160809380008091B1
:1005A000B10084608093B1008091B000816080933D
:1005B000B00080917A00846080937A0080917A0004
:1005C000826080937A0080917A00816080937A00C3
:1005D00080917A00806880937A001092C100E09147
:1005E0006F01F091700182E08083E0916B01F091E6
:1005F0006C011082E0916D01F0916E018FEC8083AF
:1006000010927701E0917301F091740186E080838C
:10061000E0917101F0917201808180618083E091AD
:100620007101F0917201808188608083E091710195
:10063000F0917201808180688083E0917101F09176
:10064000720180818F7D80838CE0E3E3F1E0DE0145
:10065000119601900D928A95E1F70CEF11E0CE0111
:1006600001965C01EFEFF1E0FBA3EAA36F017801D3
:10067000F70181917F018E3008F08E508770806481
:1006800080937C0080917A00806480937A008091CE
:100690007A0086FDFCCF8091780060917900F501A9
:1006A00041905190619071905F01762F682F072ED5
:1006B000000C880B990B0E94D105A30192010E94A6
:1006C0005D060E949905F601619371936F018FEFAA
:1006D00091E08E159F0561F689E2282E82E0382E82
:1006E0009CEFE92E91E0F92E6701F10141905190C4
:1006F000619071901F01F6012189328943895489E3
:1007000060E070E080E89FE30E9427054B015C01F8
:10071000F70163817481072E000C880B990B0E94EE
:10072000D105A30192010E94BA04F6012185328508
:10073000438554850E942705A50194010E94CA069D
:10074000F60125853685478550890E94BA040E94A6
:100750009905F70174836383FCE0CF0ED11C82E01E
:10076000E80EF11CE2E0F2E0EE15FF0509F0BDCF66
:10077000F80123813481032E000C440B550B2C52BD
:10078000314041095109A5EFB0E00E947E042EE4FA
:1007900032E040E050E00E945F04BA01A9014B5FE3
:1007A0005F4F6F4F7F4FCA014F3F51050CF465C03B
:1007B0008FEF90E0F801948383830E5F1F4FE01664
:1007C000F106B1F6F12CEAA1FBA181909190FBA377
:1007D000EAA3092C000CAA08BB08B7FE58C06DE2BA
:1007E0008FE591E00E94400122273327A9012819B3
:1007F00039094A095B0919A28E010F5D1F4FCA0111
:10080000B9012AE030E040E050E00E948904605DD8
:10081000F80162938F01211531054105510579F7E2
:100820000115110561F001900020E9F73197AF0142
:10083000401B510BB8018FE591E00E94A000F2E04F
:1008400061E571E0FF1202C063E571E041E050E054
:100850008FE591E00E94A000F39483E0F812B3CFFB
:1008600080E090E0892B09F4EFCE0E940A018823F2
:1008700009F4EACE0E940000E7CEF8011816190626
:100880001CF45483438399CF1482138296CFA5011D
:10089000940119A28E010F5D1F4FCA01B9012AE010
:1008A00030E040E050E00E948904605DF80162930E
:1008B0008F01211531054105510579F7B1CF052E7D
:1008C00097FB1EF400940E94760457FD07D00E9407
:1008D000890407FC03D04EF40C947604509540959F
:1008E000309521953F4F4F4F5F4F089590958095DC
:1008F000709561957F4F8F4F9F4F08950E94AB0475
:10090000A59F900DB49F900DA49F800D911D112463
:100910000895A1E21A2EAA1BBB1BFD010DC0AA1F40
:10092000BB1FEE1FFF1FA217B307E407F50720F058
:10093000A21BB30BE40BF50B661F771F881F991FD3
:100940001A9469F760957095809590959B01AC011C
:10095000BD01CF010895A29FB001B39FC001A39F25
:10096000700D811D1124911DB29F700D811D1124E8
:10097000911D08955058BB27AA270E94D2040C94B9
:1009800023060E94150638F00E941C0620F039F458
:100990009F3F19F426F40C9412060EF4E095E7FB41
:1009A0000C940C06E92F0E94340658F3BA1762071C
:1009B00073078407950720F079F4A6F50C94560682
:1009C0000EF4E0950B2EBA2FA02D0B01B90190016A
:1009D0000C01CA01A0011124FF27591B99F0593FAE
:1009E00050F4503E68F11A16F040A22F232F342FF6
:1009F0004427585FF3CF469537952795A795F04044
:100A00005395C9F77EF41F16BA0B620B730B840B58
:100A1000BAF09150A1F0FF0FBB1F661F771F881F10
:100A2000C2F70EC0BA0F621F731F841F48F4879568
:100A300077956795B795F7959E3F08F0B0CF93955A
:100A4000880F08F09927EE0F9795879508950E94D3
:100A50003B050C9423060E941C0658F00E941506C4
:100A600040F029F45F3F29F00C940C0651110C94CE
:100A700057060C9412060E94340668F39923B1F3CA
:100A8000552391F3951B550BBB27AA2762177307B4
:100A9000840738F09F5F5F4F220F331F441FAA1F48
:100AA000A9F335D00E2E3AF0E0E832D09150504004
:100AB000E695001CCAF72BD0FE2F29D0660F771FB2
:100AC000881FBB1F261737074807AB07B0E809F098
:100AD000BB0B802DBF01FF2793585F4F3AF09E3F1D
:100AE000510578F00C940C060C9457065F3FE4F324
:100AF000983ED4F3869577956795B795F7959F5F60
:100B0000C9F7880F911D9695879597F90895E1E0AB
:100B1000660F771F881FBB1F621773078407BA070A
:100B200020F0621B730B840BBA0BEE1F88F7E09565
:100B300008950E94A0056894B1110C945706089579
:100B40000E943C0688F09F5798F0B92F9927B7511B
:100B5000B0F0E1F0660F771F881F991F1AF0BA9561
:100B6000C9F714C0B13091F00E945606B1E0089563
:100B70000C945606672F782F8827B85F39F0B93F55
:100B8000CCF3869577956795B395D9F73EF4909514
:100B90008095709561957F4F8F4F9F4F0895E89492
:100BA00009C097FB3EF490958095709561957F4FB5
:100BB0008F4F9F4F9923A9F0F92F96E9BB27939563
:100BC000F695879577956795B795F111F8CFFAF473
:100BD000BB0F11F460FF1BC06F5F7F4F8F4F9F4FA4
:100BE00016C0882311F096E911C0772321F09EE802
:100BF000872F762F05C0662371F096E8862F70E068
:100C000060E02AF09A95660F771F881FDAF7880F41
:100C10009695879597F9089597F99F6780E870E012
:100C200060E008959FEF80EC089500240A94161662
:100C3000170618060906089500240A9412161306CA
:100C4000140605060895092E0394000C11F4882358
:100C500052F0BB0F40F4BF2B11F460FF04C06F5F74
:100C60007F4F8F4F9F4F089557FD9058440F551F4A
:100C700059F05F3F71F04795880F97FB991F61F01E
:100C80009F3F79F087950895121613061406551F95
:100C9000F2CF4695F1DF08C0161617061806991F01
:100CA000F1CF86957105610508940895E894BB27F6
:100CB00066277727CB0197F908950E9470060C9458
:100CC00023060E94150638F00E941C0620F095238A
:100CD00011F00C940C060C94120611240C94570677
:100CE0000E94340670F3959FC1F3950F50E0551F95
:100CF000629FF001729FBB27F00DB11D639FAA2771
:100D0000F00DB11DAA1F649F6627B00DA11D661FBF
:100D1000829F2227B00DA11D621F739FB00DA11DE0
:100D2000621F839FA00D611D221F749F3327A00D9A
:100D3000611D231F849F600D211D822F762F6A2F36
:100D400011249F5750409AF0F1F088234AF0EE0F9B
:100D5000FF1FBB1F661F771F881F91505040A9F7C8
:100D60009E3F510580F00C940C060C9457065F3F93
:100D7000E4F3983ED4F3869577956795B795F79504
:100D8000E7959F5FC1F7FE2B880F911D969587957C
:100D900097F90895FA01EE0FFF1F309621053105EE
:100DA000A1F16115710561F48038BFE39B0749F13A
:100DB00068949038810561F08038BFEF9B0741F05F
:100DC00099234AF5FF3FE1053105210519F1E89422
:100DD0000894E795D901AA2329F4AB2FBE2FF85F19
:100DE000D0F310C0FF5F70F4A695E0F7F73950F02C
:100DF00019F0FF3A38F49F779F930DD00F9007FCBE
:100E00009058089546F00C94120660E070E080E877
:100E10009FE308954FE79F775F934F933F932F93FF
:100E20000E94C5072F913F914F915F910E945D06EF
:100E30000C94220729F416F00C940C060C94560618
:100E40000C9412060E943C06A8F39638A0F707F807
:100E50000F92E8942BE33AEA48EB5FE70E947306AF
:100E60000F920F920F924DB75EB70F920E940D082E
:100E7000E8E6F0E00E9454074F915F91EF91FF91F7
:100E8000E595EE1FFF1F49F0FE57E0684427EE0F7F
:100E9000441FFA95E1F74195550B0E9487070F9083
:100EA00007FE0C947B070895DF93CF931F930F9356
:100EB000FF92EF92DF927B018C01689406C0DA2EDC
:100EC000EF010E947006FE01E894A59125913591ED
:100ED00045915591A6F3EF010E94D204FE019701BE
:100EE000A801DA9469F7DF90EF90FF900F911F91BE
:100EF000CF91DF9108959B01AC0160E070E080E844
:100F00009FE30C9427050C940C060C9441080E9456
:100F10003C06D8F39923C9F3940F511DA3F39150C4
:100F2000504094F059F0882332F0660F771F881FE5
:100F300091505040C1F79E3F51052CF7880F911DED
:100F40009695879597F908955F3FACF0983E9CF091
:100F5000BB27869577956795B79508F4B16093950B
:100F6000C1F7BB0F58F711F460FFE8CF6F5F7F4FF9
:100F70008F4F9F4FE3CF0C94570616F00C94410807
:100F80000C94120668940C940C060E943C06A8F37C
:100F90009923C1F3AEF3DF93CF931F930F93FF9287
:100FA000C92FDD2788232AF02197660F771F881F16
:100FB000DAF720E030E040E85FEB9FE3883920F08B
:100FC000803E38F021968F770E94BB04E0E9F0E084
:100FD00004C00E94BB04EDEBF0E00E9454078B01BB
:100FE000BE01EC01FB2E6F5771097595771F880BB9
:100FF000990B0E94D10528E132E741E35FE30E94AB
:101000007006AF2D9801AE01FF900F911F91CF9107
:10101000DF910E94D2040C942306FA01DC01AA0F8E
:10102000BB1F9B01AC01BF5728F42227332744275D
:10103000507820C0B75190F4AB2F002446953795D7
:101040002795011CA395D2F3002071F0220F331FC6
:10105000441FB395DAF30ED00C94BA0461307105D5
:10106000A0E88A07B94630F49B01AC0166277727D0
:1010700088279078309621F02083318342835383F0
:1010800008959F3F31F0915020F4879577956795AB
:10109000B795880F911D9695879597F90895EE0F4E
:1010A000FF1F0590F491E02D0994F894FFCF100FE5
:1010B0000E67246845CFFE8C43CDCCCC3D651056E1
:1010C0003C17FDA6440000C03FA8F3A63E14F83C20
:1010D000C39A99993F5A12CFC5B14FF3C3072C62F7
:1010E000420000803F404D913FA323993F00000004
:1010F000004001A000CD008D01FE00DC00F0002CBE
:04110000000A0000E1
:107800000C94343C0C94513C0C94513C0C94513CE1
:107810000C94513C0C94513C0C94513C0C94513CB4
:107820000C94513C0C94513C0C94513C0C94513CA4
:107830000C94513C0C94513C0C94513C0C94513C94
:107840000C94513C0C94513C0C94513C0C94513C84
:107850000C94513C0C94513C0C94513C0C94513C74
:107860000C94513C0C94513C11241FBECFEFD8E036
:10787000DEBFCDBF11E0A0E0B1E0ECE9FFE702C060
:1078800005900D92A230B107D9F712E0A2E0B1E065
:1078900001C01D92AD30B107E1F70E942D3D0C945F
:1078A000CC3F0C94003C982F959595959595959582
:1078B000905D8F708A307CF0282F295A8091C0000B
:1078C00085FFFCCF9093C6008091C00085FFFCCF60
:1078D0002093C6000895282F205DF0CF982F809127
:1078E000C00085FFFCCF9093C6000895EF92FF92F1
:1078F0000F931F93EE24FF2487018091C00087FD22
:1079000017C00894E11CF11C011D111D81E4E8164B
:1079100082E4F8068FE0080780E0180770F3E09132
:107920000401F091050109958091C00087FFE9CF1E
:107930008091C6001F910F91FF90EF9008950E94D3
:10794000763C982F8091C00085FFFCCF9093C600B5
:1079500091362CF490330CF09053892F089597555D
:10796000892F08951F930E949F3C182F0E949F3CCF
:107970001295107F810F1F9108951F93182F882350
:1079800021F00E94763C1150E1F71F9108951F935A
:10799000182F0E94763C803249F0809103018F5F5E
:1079A000809303018530C1F01F9108958091C0003C
:1079B00085FFFCCF84E18093C6008091C00085FFE5
:1079C000FCCF1093C6008091C00085FFFCCF80E102
:1079D0008093C6001F910895E0910401F091050184
:1079E00009951F9108950E94763C803241F0809164
:1079F00003018F5F80930301853081F008958091AA
:107A0000C00085FFFCCF84E18093C6008091C00058
:107A100085FFFCCF80E18093C6000895E0910401CA
:107A2000F09105010995089540E951E08823A1F0FE
:107A30002D9A28EE33E0FA013197F1F721503040CA
:107A4000D1F72D9828EE33E0FA013197F1F7215064
:107A50003040D1F7815061F708953F924F925F9285
:107A60006F927F928F929F92AF92BF92CF92DF924E
:107A7000EF92FF920F931F93CF93DF93000080E16B
:107A80008093C4001092C50088E18093C10086E015
:107A90008093C2005098589A259A81E00E94143D24
:107AA00024E1F22E9EE1E92E85E9D82E0FE0C02ECA
:107AB00010E1B12EAA24A394B1E49B2EA6E58A2E50
:107AC000F2E57F2EE0E26E2E79E4572E63E5462E36
:107AD00050E5352E0E94763C8033B1F18133B9F107
:107AE000803409F46FC0813409F476C0823409F41B
:107AF00085C0853409F488C0803531F1823521F1A3
:107B0000813511F1853509F485C0863509F48DC0BC
:107B1000843609F496C0843709F403C1853709F423
:107B200072C1863709F466C0809103018F5F80932C
:107B30000301853079F6E0910401F0910501099582
:107B40000E94763C803351F60E94F33CC3CF0E94E2
:107B5000763C803249F78091C00085FFFCCFF092DF
:107B6000C6008091C00085FFFCCF9092C600809136
:107B7000C00085FFFCCF8092C6008091C00085FFC9
:107B8000FCCF7092C6008091C00085FFFCCF609250
:107B9000C6008091C00085FFFCCF5092C600809146
:107BA000C00085FFFCCF4092C6008091C00085FFD9
:107BB000FCCF3092C6008091C00085FFFCCFB09210
:107BC000C60088CF0E94763C863808F4BDCF0E945C
:107BD000763C0E94F33C7ECF0E94763C803809F4CC
:107BE0009CC0813809F40BC1823809F43CC1883942
:107BF00009F48FC080E00E94C73C6CCF84E10E94F2
:107C0000BD3C0E94F33C66CF85E00E94BD3C0E94D3
:107C1000F33C60CF0E94763C809306010E94763C44
:107C2000809307010E94F33C55CF0E94763C80333D
:107C300009F41DC183E00E94BD3C80E00E94C73C66
:107C400049CF0E94763C809309020E94763C809343
:107C5000080280910C028E7F80930C020E94763C79
:107C6000853409F415C18091080290910902892B8D
:107C700089F000E010E00E94763CF801E85FFE4FDA
:107C800080830F5F1F4F80910802909109020817AF
:107C9000190788F30E94763C803209F045CF809125
:107CA0000C0280FF01C16091060170910701660F0F
:107CB000771F7093070160930601A0910802B091AD
:107CC00009021097C9F0E8E0F1E09B01AD014E0F09
:107CD0005F1FF999FECF32BD21BD819180BDFA9A17
:107CE000F99A2F5F3F4FE417F50799F76A0F7B1F4B
:107CF00070930701609306018091C00085FFFCCF5F
:107D0000F092C6008091C00085FFFCCFB092C60003
:107D1000E1CE83E00E94C73CDDCE82E00E94C73CFA
:107D2000D9CE0E94763C809309020E94763C8093D3
:107D300008028091060190910701880F991F909386
:107D40000701809306010E94763C853409F4A6C0A1
:107D500080910C028E7F80930C020E94763C8032D0
:107D600009F0B8CE8091C00085FFFCCFF092C6002C
:107D7000609108027091090261157105B9F140E046
:107D800050E080910C02A82FA170B82FB27011C0E2
:107D9000BB2309F45CC0E0910601F0910701319624
:107DA000F0930701E09306014F5F5F4F46175707B7
:107DB000E8F4AA2369F3F999FECF209106013091E6
:107DC000070132BD21BDF89A90B58091C00085FFB2
:107DD000FCCF9093C6002F5F3F4F30930701209355
:107DE00006014F5F5F4F4617570718F38091C00099
:107DF00085FDE5CE8091C00085FFF8CFE0CE81E023
:107E00000E94C73C67CE0E94763C803209F08CCE3F
:107E10008091C00085FFFCCFF092C6008091C00029
:107E200085FFFCCFE092C6008091C00085FFFCCFAB
:107E3000D092C6008091C00085FFFCCFC092C600E2
:107E40008091C00085FFFCCFB092C60043CEE09188
:107E50000601F091070194918091C00085FFFCCF4D
:107E60009093C6009CCF80E10E94C73C33CE0E9415
:107E7000763C0E94763C182F0E94763C112309F430
:107E800083C0113009F484C08FE00E94C73C22CE29
:107E900080910C02816080930C02E5CE80910C02EF
:107EA000816080930C0259CF809107018823880F4D
:107EB000880B8A2180930B02809106019091070123
:107EC000880F991F90930701809306018091080203
:107ED00080FF09C080910802909109020196909359
:107EE000090280930802F894F999FECF1127E091D6
:107EF0000601F0910701C8E0D1E08091080290915D
:107F00000902103091F40091570001700130D9F34B
:107F100003E000935700E89500915700017001308D
:107F2000D9F301E100935700E89509901990009169
:107F3000570001700130D9F301E000935700E89534
:107F40001395103498F011270091570001700130FB
:107F5000D9F305E000935700E895009157000170B0
:107F60000130D9F301E100935700E895329602976A
:107F700009F0C7CF103011F00296E5CF112480919F
:107F8000C00085FFB9CEBCCE8EE10E94C73CA2CD19
:0E7F900085E90E94C73C9ECDF894FFCF80008B
:00000001FF
